{
	"contracts/Upgrade Attempt/SurvivalCoin.sol": {
		"SurvivalCoin": {
			"abi": [
				{
					"inputs": [
						{
							"internalType": "address",
							"name": "_admin",
							"type": "address"
						},
						{
							"internalType": "uint256",
							"name": "_initialSupply",
							"type": "uint256"
						}
					],
					"stateMutability": "nonpayable",
					"type": "constructor"
				},
				{
					"anonymous": false,
					"inputs": [
						{
							"indexed": true,
							"internalType": "address",
							"name": "owner",
							"type": "address"
						},
						{
							"indexed": true,
							"internalType": "address",
							"name": "spender",
							"type": "address"
						},
						{
							"indexed": false,
							"internalType": "uint256",
							"name": "value",
							"type": "uint256"
						}
					],
					"name": "Approval",
					"type": "event"
				},
				{
					"anonymous": false,
					"inputs": [
						{
							"indexed": true,
							"internalType": "address",
							"name": "from",
							"type": "address"
						},
						{
							"indexed": true,
							"internalType": "address",
							"name": "to",
							"type": "address"
						},
						{
							"indexed": false,
							"internalType": "uint256",
							"name": "value",
							"type": "uint256"
						}
					],
					"name": "Transfer",
					"type": "event"
				},
				{
					"inputs": [],
					"name": "admin",
					"outputs": [
						{
							"internalType": "address",
							"name": "",
							"type": "address"
						}
					],
					"stateMutability": "view",
					"type": "function"
				},
				{
					"inputs": [
						{
							"internalType": "address",
							"name": "owner",
							"type": "address"
						},
						{
							"internalType": "address",
							"name": "spender",
							"type": "address"
						}
					],
					"name": "allowance",
					"outputs": [
						{
							"internalType": "uint256",
							"name": "",
							"type": "uint256"
						}
					],
					"stateMutability": "view",
					"type": "function"
				},
				{
					"inputs": [
						{
							"internalType": "address",
							"name": "spender",
							"type": "address"
						},
						{
							"internalType": "uint256",
							"name": "value",
							"type": "uint256"
						}
					],
					"name": "approve",
					"outputs": [
						{
							"internalType": "bool",
							"name": "",
							"type": "bool"
						}
					],
					"stateMutability": "nonpayable",
					"type": "function"
				},
				{
					"inputs": [
						{
							"internalType": "address",
							"name": "account",
							"type": "address"
						}
					],
					"name": "balanceOf",
					"outputs": [
						{
							"internalType": "uint256",
							"name": "",
							"type": "uint256"
						}
					],
					"stateMutability": "view",
					"type": "function"
				},
				{
					"inputs": [],
					"name": "burn",
					"outputs": [
						{
							"internalType": "bool",
							"name": "",
							"type": "bool"
						}
					],
					"stateMutability": "nonpayable",
					"type": "function"
				},
				{
					"inputs": [],
					"name": "decimals",
					"outputs": [
						{
							"internalType": "uint8",
							"name": "",
							"type": "uint8"
						}
					],
					"stateMutability": "view",
					"type": "function"
				},
				{
					"inputs": [],
					"name": "name",
					"outputs": [
						{
							"internalType": "string",
							"name": "",
							"type": "string"
						}
					],
					"stateMutability": "view",
					"type": "function"
				},
				{
					"inputs": [],
					"name": "symbol",
					"outputs": [
						{
							"internalType": "string",
							"name": "",
							"type": "string"
						}
					],
					"stateMutability": "view",
					"type": "function"
				},
				{
					"inputs": [],
					"name": "totalSupply",
					"outputs": [
						{
							"internalType": "uint256",
							"name": "",
							"type": "uint256"
						}
					],
					"stateMutability": "view",
					"type": "function"
				},
				{
					"inputs": [
						{
							"internalType": "address",
							"name": "to",
							"type": "address"
						},
						{
							"internalType": "uint256",
							"name": "value",
							"type": "uint256"
						}
					],
					"name": "transfer",
					"outputs": [
						{
							"internalType": "bool",
							"name": "",
							"type": "bool"
						}
					],
					"stateMutability": "nonpayable",
					"type": "function"
				},
				{
					"inputs": [
						{
							"internalType": "address",
							"name": "from",
							"type": "address"
						},
						{
							"internalType": "address",
							"name": "to",
							"type": "address"
						},
						{
							"internalType": "uint256",
							"name": "value",
							"type": "uint256"
						}
					],
					"name": "transferFrom",
					"outputs": [
						{
							"internalType": "bool",
							"name": "",
							"type": "bool"
						}
					],
					"stateMutability": "nonpayable",
					"type": "function"
				}
			],
			"devdoc": {
				"details": "ERC20 token representing SurvivalCoin.",
				"kind": "dev",
				"methods": {
					"allowance(address,address)": {
						"details": "Returns the amount of tokens that an owner has allowed a spender to spend.",
						"params": {
							"owner": "The address that owns the tokens.",
							"spender": "The address that is allowed to spend the tokens."
						},
						"returns": {
							"_0": "The amount of tokens allowed to be spent."
						}
					},
					"approve(address,uint256)": {
						"details": "Approves the specified address to spend the specified amount of tokens on behalf of the message sender.",
						"params": {
							"spender": "The address to approve for spending the tokens.",
							"value": "The amount of tokens to be spent."
						},
						"returns": {
							"_0": "True if the approval was successful, revert otherwise."
						}
					},
					"balanceOf(address)": {
						"details": "Returns the balance of the specified address.",
						"params": {
							"account": "The address to query the balance of."
						},
						"returns": {
							"_0": "The balance of the specified address."
						}
					},
					"burn()": {
						"details": "Allows the admin to burn all remaining tokens.",
						"returns": {
							"_0": "True if the burn was successful."
						}
					},
					"constructor": {
						"details": "Constructor to initialize the SurvivalCoin token.",
						"params": {
							"_admin": "The address of the admin.",
							"_initialSupply": "The initial token supply."
						}
					},
					"transfer(address,uint256)": {
						"details": "Transfers tokens from the sender to the specified recipient.",
						"params": {
							"to": "The address to transfer tokens to.",
							"value": "The amount of tokens to transfer."
						},
						"returns": {
							"_0": "True if the transfer was successful, revert otherwise."
						}
					},
					"transferFrom(address,address,uint256)": {
						"details": "Transfers tokens from one address to another.",
						"params": {
							"from": "The address to transfer tokens from.",
							"to": "The address to transfer tokens to.",
							"value": "The amount of tokens to transfer."
						},
						"returns": {
							"_0": "True if the transfer was successful, revert otherwise."
						}
					}
				},
				"title": "SurvivalCoin",
				"version": 1
			},
			"evm": {
				"assembly": "    /* \"contracts/Upgrade Attempt/SurvivalCoin.sol\":178:1612  contract SurvivalCoin is ERC20Token {\r... */\n  mstore(0x40, 0x80)\n    /* \"contracts/Upgrade Attempt/SurvivalCoin.sol\":406:545  constructor(address _admin, uint256 _initialSupply) ERC20Token(\"SurvivalCoin\", \"SVC2\", 0, _initialSupply) {\r... */\n  callvalue\n  dup1\n  iszero\n  tag_1\n  jumpi\n  0x00\n  dup1\n  revert\ntag_1:\n  pop\n  mload(0x40)\n  sub(codesize, bytecodeSize)\n  dup1\n  bytecodeSize\n  dup4\n  codecopy\n  dup2\n  dup2\n  add\n  0x40\n  mstore\n  dup2\n  add\n  swap1\n  tag_2\n  swap2\n  swap1\n  tag_3\n  jump\t// in\ntag_2:\n    /* \"contracts/Upgrade Attempt/ERC20Token.sol\":857:1200  constructor(\r... */\n  mload(0x40)\n  dup1\n  0x40\n  add\n  0x40\n  mstore\n  dup1\n  0x0c\n  dup2\n  mstore\n  0x20\n  add\n  0x537572766976616c436f696e0000000000000000000000000000000000000000\n  dup2\n  mstore\n  pop\n  mload(0x40)\n  dup1\n  0x40\n  add\n  0x40\n  mstore\n  dup1\n  0x04\n  dup2\n  mstore\n  0x20\n  add\n  0x5356433200000000000000000000000000000000000000000000000000000000\n  dup2\n  mstore\n  pop\n    /* \"contracts/Upgrade Attempt/SurvivalCoin.sol\":493:494  0 */\n  0x00\n    /* \"contracts/Upgrade Attempt/SurvivalCoin.sol\":496:510  _initialSupply */\n  dup4\n    /* \"contracts/Upgrade Attempt/ERC20Token.sol\":1015:1020  _name */\n  dup4\n    /* \"contracts/Upgrade Attempt/ERC20Token.sol\":1008:1012  name */\n  0x00\n    /* \"contracts/Upgrade Attempt/ERC20Token.sol\":1008:1020  name = _name */\n  swap1\n  dup1\n  mload\n  swap1\n  0x20\n  add\n  swap1\n  tag_7\n  swap3\n  swap2\n  swap1\n  tag_8\n  jump\t// in\ntag_7:\n  pop\n    /* \"contracts/Upgrade Attempt/ERC20Token.sol\":1040:1047  _symbol */\n  dup3\n    /* \"contracts/Upgrade Attempt/ERC20Token.sol\":1031:1037  symbol */\n  0x01\n    /* \"contracts/Upgrade Attempt/ERC20Token.sol\":1031:1047  symbol = _symbol */\n  swap1\n  dup1\n  mload\n  swap1\n  0x20\n  add\n  swap1\n  tag_9\n  swap3\n  swap2\n  swap1\n  tag_8\n  jump\t// in\ntag_9:\n  pop\n    /* \"contracts/Upgrade Attempt/ERC20Token.sol\":1069:1078  _decimals */\n  dup2\n    /* \"contracts/Upgrade Attempt/ERC20Token.sol\":1058:1066  decimals */\n  0x02\n  0x00\n    /* \"contracts/Upgrade Attempt/ERC20Token.sol\":1058:1078  decimals = _decimals */\n  0x0100\n  exp\n  dup2\n  sload\n  dup2\n  0xff\n  mul\n  not\n  and\n  swap1\n  dup4\n  0xff\n  and\n  mul\n  or\n  swap1\n  sstore\n  pop\n    /* \"contracts/Upgrade Attempt/ERC20Token.sol\":1135:1144  _decimals */\n  dup2\n    /* \"contracts/Upgrade Attempt/ERC20Token.sol\":1127:1145  uint256(_decimals) */\n  0xff\n  and\n    /* \"contracts/Upgrade Attempt/ERC20Token.sol\":1121:1123  10 */\n  0x0a\n    /* \"contracts/Upgrade Attempt/ERC20Token.sol\":1121:1145  10 ** uint256(_decimals) */\n  tag_10\n  swap2\n  swap1\n  tag_11\n  jump\t// in\ntag_10:\n    /* \"contracts/Upgrade Attempt/ERC20Token.sol\":1103:1117  _initialSupply */\n  dup2\n    /* \"contracts/Upgrade Attempt/ERC20Token.sol\":1103:1146  _initialSupply * (10 ** uint256(_decimals)) */\n  tag_12\n  swap2\n  swap1\n  tag_13\n  jump\t// in\ntag_12:\n    /* \"contracts/Upgrade Attempt/ERC20Token.sol\":1089:1100  totalSupply */\n  0x03\n    /* \"contracts/Upgrade Attempt/ERC20Token.sol\":1089:1146  totalSupply = _initialSupply * (10 ** uint256(_decimals)) */\n  dup2\n  swap1\n  sstore\n  pop\n    /* \"contracts/Upgrade Attempt/ERC20Token.sol\":1181:1192  totalSupply */\n  sload(0x03)\n    /* \"contracts/Upgrade Attempt/ERC20Token.sol\":1157:1166  _balances */\n  0x04\n    /* \"contracts/Upgrade Attempt/ERC20Token.sol\":1157:1178  _balances[msg.sender] */\n  0x00\n    /* \"contracts/Upgrade Attempt/ERC20Token.sol\":1167:1177  msg.sender */\n  caller\n    /* \"contracts/Upgrade Attempt/ERC20Token.sol\":1157:1178  _balances[msg.sender] */\n  0xffffffffffffffffffffffffffffffffffffffff\n  and\n  0xffffffffffffffffffffffffffffffffffffffff\n  and\n  dup2\n  mstore\n  0x20\n  add\n  swap1\n  dup2\n  mstore\n  0x20\n  add\n  0x00\n  keccak256\n    /* \"contracts/Upgrade Attempt/ERC20Token.sol\":1157:1192  _balances[msg.sender] = totalSupply */\n  dup2\n  swap1\n  sstore\n  pop\n    /* \"contracts/Upgrade Attempt/ERC20Token.sol\":857:1200  constructor(\r... */\n  pop\n  pop\n  pop\n  pop\n    /* \"contracts/Upgrade Attempt/SurvivalCoin.sol\":531:537  _admin */\n  dup2\n    /* \"contracts/Upgrade Attempt/SurvivalCoin.sol\":523:528  admin */\n  0x06\n  0x00\n    /* \"contracts/Upgrade Attempt/SurvivalCoin.sol\":523:537  admin = _admin */\n  0x0100\n  exp\n  dup2\n  sload\n  dup2\n  0xffffffffffffffffffffffffffffffffffffffff\n  mul\n  not\n  and\n  swap1\n  dup4\n  0xffffffffffffffffffffffffffffffffffffffff\n  and\n  mul\n  or\n  swap1\n  sstore\n  pop\n    /* \"contracts/Upgrade Attempt/SurvivalCoin.sol\":406:545  constructor(address _admin, uint256 _initialSupply) ERC20Token(\"SurvivalCoin\", \"SVC2\", 0, _initialSupply) {\r... */\n  pop\n  pop\n    /* \"contracts/Upgrade Attempt/SurvivalCoin.sol\":178:1612  contract SurvivalCoin is ERC20Token {\r... */\n  jump(tag_15)\ntag_8:\n  dup3\n  dup1\n  sload\n  tag_16\n  swap1\n  tag_17\n  jump\t// in\ntag_16:\n  swap1\n  0x00\n  mstore\n  keccak256(0x00, 0x20)\n  swap1\n  0x1f\n  add\n  0x20\n  swap1\n  div\n  dup2\n  add\n  swap3\n  dup3\n  tag_19\n  jumpi\n  0x00\n  dup6\n  sstore\n  jump(tag_18)\ntag_19:\n  dup3\n  0x1f\n  lt\n  tag_20\n  jumpi\n  dup1\n  mload\n  not(0xff)\n  and\n  dup4\n  dup1\n  add\n  or\n  dup6\n  sstore\n  jump(tag_18)\ntag_20:\n  dup3\n  dup1\n  add\n  0x01\n  add\n  dup6\n  sstore\n  dup3\n  iszero\n  tag_18\n  jumpi\n  swap2\n  dup3\n  add\ntag_21:\n  dup3\n  dup2\n  gt\n  iszero\n  tag_22\n  jumpi\n  dup3\n  mload\n  dup3\n  sstore\n  swap2\n  0x20\n  add\n  swap2\n  swap1\n  0x01\n  add\n  swap1\n  jump(tag_21)\ntag_22:\ntag_18:\n  pop\n  swap1\n  pop\n  tag_23\n  swap2\n  swap1\n  tag_24\n  jump\t// in\ntag_23:\n  pop\n  swap1\n  jump\t// out\ntag_24:\ntag_25:\n  dup1\n  dup3\n  gt\n  iszero\n  tag_26\n  jumpi\n  0x00\n  dup2\n  0x00\n  swap1\n  sstore\n  pop\n  0x01\n  add\n  jump(tag_25)\ntag_26:\n  pop\n  swap1\n  jump\t// out\n    /* \"#utility.yul\":7:150   */\ntag_28:\n  0x00\n    /* \"#utility.yul\":95:101   */\n  dup2\n    /* \"#utility.yul\":89:102   */\n  mload\n    /* \"#utility.yul\":80:102   */\n  swap1\n  pop\n    /* \"#utility.yul\":111:144   */\n  tag_30\n    /* \"#utility.yul\":138:143   */\n  dup2\n    /* \"#utility.yul\":111:144   */\n  tag_31\n  jump\t// in\ntag_30:\n    /* \"#utility.yul\":70:150   */\n  swap3\n  swap2\n  pop\n  pop\n  jump\t// out\n    /* \"#utility.yul\":156:299   */\ntag_32:\n  0x00\n    /* \"#utility.yul\":244:250   */\n  dup2\n    /* \"#utility.yul\":238:251   */\n  mload\n    /* \"#utility.yul\":229:251   */\n  swap1\n  pop\n    /* \"#utility.yul\":260:293   */\n  tag_34\n    /* \"#utility.yul\":287:292   */\n  dup2\n    /* \"#utility.yul\":260:293   */\n  tag_35\n  jump\t// in\ntag_34:\n    /* \"#utility.yul\":219:299   */\n  swap3\n  swap2\n  pop\n  pop\n  jump\t// out\n    /* \"#utility.yul\":305:745   */\ntag_3:\n  0x00\n  dup1\n    /* \"#utility.yul\":441:443   */\n  0x40\n    /* \"#utility.yul\":429:438   */\n  dup4\n    /* \"#utility.yul\":420:427   */\n  dup6\n    /* \"#utility.yul\":416:439   */\n  sub\n    /* \"#utility.yul\":412:444   */\n  slt\n    /* \"#utility.yul\":409:411   */\n  iszero\n  tag_37\n  jumpi\n    /* \"#utility.yul\":457:458   */\n  0x00\n    /* \"#utility.yul\":454:455   */\n  dup1\n    /* \"#utility.yul\":447:459   */\n  revert\n    /* \"#utility.yul\":409:411   */\ntag_37:\n    /* \"#utility.yul\":500:501   */\n  0x00\n    /* \"#utility.yul\":525:589   */\n  tag_38\n    /* \"#utility.yul\":581:588   */\n  dup6\n    /* \"#utility.yul\":572:578   */\n  dup3\n    /* \"#utility.yul\":561:570   */\n  dup7\n    /* \"#utility.yul\":557:579   */\n  add\n    /* \"#utility.yul\":525:589   */\n  tag_28\n  jump\t// in\ntag_38:\n    /* \"#utility.yul\":515:589   */\n  swap3\n  pop\n    /* \"#utility.yul\":471:599   */\n  pop\n    /* \"#utility.yul\":638:640   */\n  0x20\n    /* \"#utility.yul\":664:728   */\n  tag_39\n    /* \"#utility.yul\":720:727   */\n  dup6\n    /* \"#utility.yul\":711:717   */\n  dup3\n    /* \"#utility.yul\":700:709   */\n  dup7\n    /* \"#utility.yul\":696:718   */\n  add\n    /* \"#utility.yul\":664:728   */\n  tag_32\n  jump\t// in\ntag_39:\n    /* \"#utility.yul\":654:728   */\n  swap2\n  pop\n    /* \"#utility.yul\":609:738   */\n  pop\n    /* \"#utility.yul\":399:745   */\n  swap3\n  pop\n  swap3\n  swap1\n  pop\n  jump\t// out\n    /* \"#utility.yul\":751:1599   */\ntag_40:\n  0x00\n  dup1\n    /* \"#utility.yul\":843:849   */\n  dup3\n    /* \"#utility.yul\":834:849   */\n  swap2\n  pop\n    /* \"#utility.yul\":867:872   */\n  dup4\n    /* \"#utility.yul\":858:872   */\n  swap1\n  pop\n    /* \"#utility.yul\":881:1593   */\ntag_42:\n    /* \"#utility.yul\":902:903   */\n  0x01\n    /* \"#utility.yul\":892:900   */\n  dup6\n    /* \"#utility.yul\":889:904   */\n  gt\n    /* \"#utility.yul\":881:1593   */\n  iszero\n  tag_44\n  jumpi\n    /* \"#utility.yul\":997:1001   */\n  dup1\n    /* \"#utility.yul\":992:995   */\n  dup7\n    /* \"#utility.yul\":988:1002   */\n  div\n    /* \"#utility.yul\":982:986   */\n  dup2\n    /* \"#utility.yul\":979:1003   */\n  gt\n    /* \"#utility.yul\":976:978   */\n  iszero\n  tag_45\n  jumpi\n    /* \"#utility.yul\":1006:1024   */\n  tag_46\n  tag_47\n  jump\t// in\ntag_46:\n    /* \"#utility.yul\":976:978   */\ntag_45:\n    /* \"#utility.yul\":1056:1057   */\n  0x01\n    /* \"#utility.yul\":1046:1054   */\n  dup6\n    /* \"#utility.yul\":1042:1058   */\n  and\n    /* \"#utility.yul\":1039:1041   */\n  iszero\n  tag_48\n  jumpi\n    /* \"#utility.yul\":1471:1475   */\n  dup1\n    /* \"#utility.yul\":1464:1469   */\n  dup3\n    /* \"#utility.yul\":1460:1476   */\n  mul\n    /* \"#utility.yul\":1451:1476   */\n  swap2\n  pop\n    /* \"#utility.yul\":1039:1041   */\ntag_48:\n    /* \"#utility.yul\":1521:1525   */\n  dup1\n    /* \"#utility.yul\":1515:1519   */\n  dup2\n    /* \"#utility.yul\":1511:1526   */\n  mul\n    /* \"#utility.yul\":1503:1526   */\n  swap1\n  pop\n    /* \"#utility.yul\":1551:1583   */\n  tag_49\n    /* \"#utility.yul\":1574:1582   */\n  dup6\n    /* \"#utility.yul\":1551:1583   */\n  tag_50\n  jump\t// in\ntag_49:\n    /* \"#utility.yul\":1539:1583   */\n  swap5\n  pop\n    /* \"#utility.yul\":881:1593   */\n  jump(tag_42)\ntag_44:\n    /* \"#utility.yul\":824:1599   */\n  swap5\n  pop\n  swap5\n  swap3\n  pop\n  pop\n  pop\n  jump\t// out\n    /* \"#utility.yul\":1605:1890   */\ntag_11:\n  0x00\n    /* \"#utility.yul\":1689:1712   */\n  tag_52\n    /* \"#utility.yul\":1707:1711   */\n  dup3\n    /* \"#utility.yul\":1689:1712   */\n  tag_53\n  jump\t// in\ntag_52:\n    /* \"#utility.yul\":1681:1712   */\n  swap2\n  pop\n    /* \"#utility.yul\":1733:1760   */\n  tag_54\n    /* \"#utility.yul\":1751:1759   */\n  dup4\n    /* \"#utility.yul\":1733:1760   */\n  tag_53\n  jump\t// in\ntag_54:\n    /* \"#utility.yul\":1721:1760   */\n  swap3\n  pop\n    /* \"#utility.yul\":1779:1883   */\n  tag_55\n    /* \"#utility.yul\":1816:1882   */\n  0xffffffffffffffffffffffffffffffffffffffffffffffffffffffffffffffff\n    /* \"#utility.yul\":1806:1814   */\n  dup5\n    /* \"#utility.yul\":1800:1804   */\n  dup5\n    /* \"#utility.yul\":1779:1883   */\n  tag_56\n  jump\t// in\ntag_55:\n    /* \"#utility.yul\":1770:1883   */\n  swap1\n  pop\n    /* \"#utility.yul\":1671:1890   */\n  swap3\n  swap2\n  pop\n  pop\n  jump\t// out\n    /* \"#utility.yul\":1896:2969   */\ntag_56:\n  0x00\n    /* \"#utility.yul\":2141:2149   */\n  dup3\n    /* \"#utility.yul\":2131:2133   */\n  tag_58\n  jumpi\n    /* \"#utility.yul\":2162:2163   */\n  0x01\n    /* \"#utility.yul\":2153:2163   */\n  swap1\n  pop\n    /* \"#utility.yul\":2164:2169   */\n  jump(tag_57)\n    /* \"#utility.yul\":2131:2133   */\ntag_58:\n    /* \"#utility.yul\":2190:2194   */\n  dup2\n    /* \"#utility.yul\":2180:2182   */\n  tag_59\n  jumpi\n    /* \"#utility.yul\":2207:2208   */\n  0x00\n    /* \"#utility.yul\":2198:2208   */\n  swap1\n  pop\n    /* \"#utility.yul\":2209:2214   */\n  jump(tag_57)\n    /* \"#utility.yul\":2180:2182   */\ntag_59:\n    /* \"#utility.yul\":2276:2280   */\n  dup2\n    /* \"#utility.yul\":2324:2325   */\n  0x01\n    /* \"#utility.yul\":2319:2346   */\n  dup2\n  eq\n  tag_61\n  jumpi\n    /* \"#utility.yul\":2360:2361   */\n  0x02\n    /* \"#utility.yul\":2355:2546   */\n  dup2\n  eq\n  tag_62\n  jumpi\n    /* \"#utility.yul\":2269:2546   */\n  jump(tag_60)\n    /* \"#utility.yul\":2319:2346   */\ntag_61:\n    /* \"#utility.yul\":2337:2338   */\n  0x01\n    /* \"#utility.yul\":2328:2338   */\n  swap2\n  pop\n    /* \"#utility.yul\":2339:2344   */\n  pop\n  jump(tag_57)\n    /* \"#utility.yul\":2355:2546   */\ntag_62:\n    /* \"#utility.yul\":2400:2403   */\n  0xff\n    /* \"#utility.yul\":2390:2398   */\n  dup5\n    /* \"#utility.yul\":2387:2404   */\n  gt\n    /* \"#utility.yul\":2384:2386   */\n  iszero\n  tag_63\n  jumpi\n    /* \"#utility.yul\":2407:2425   */\n  tag_64\n  tag_47\n  jump\t// in\ntag_64:\n    /* \"#utility.yul\":2384:2386   */\ntag_63:\n    /* \"#utility.yul\":2456:2464   */\n  dup4\n    /* \"#utility.yul\":2453:2454   */\n  0x02\n    /* \"#utility.yul\":2449:2465   */\n  exp\n    /* \"#utility.yul\":2440:2465   */\n  swap2\n  pop\n    /* \"#utility.yul\":2491:2494   */\n  dup5\n    /* \"#utility.yul\":2484:2489   */\n  dup3\n    /* \"#utility.yul\":2481:2495   */\n  gt\n    /* \"#utility.yul\":2478:2480   */\n  iszero\n  tag_65\n  jumpi\n    /* \"#utility.yul\":2498:2516   */\n  tag_66\n  tag_47\n  jump\t// in\ntag_66:\n    /* \"#utility.yul\":2478:2480   */\ntag_65:\n    /* \"#utility.yul\":2531:2536   */\n  pop\n  jump(tag_57)\n    /* \"#utility.yul\":2269:2546   */\ntag_60:\n  pop\n    /* \"#utility.yul\":2655:2657   */\n  0x20\n    /* \"#utility.yul\":2645:2653   */\n  dup4\n    /* \"#utility.yul\":2642:2658   */\n  lt\n    /* \"#utility.yul\":2636:2639   */\n  0x0133\n    /* \"#utility.yul\":2630:2634   */\n  dup4\n    /* \"#utility.yul\":2627:2640   */\n  lt\n    /* \"#utility.yul\":2623:2659   */\n  and\n    /* \"#utility.yul\":2605:2607   */\n  0x4e\n    /* \"#utility.yul\":2595:2603   */\n  dup5\n    /* \"#utility.yul\":2592:2608   */\n  lt\n    /* \"#utility.yul\":2587:2589   */\n  0x0b\n    /* \"#utility.yul\":2581:2585   */\n  dup5\n    /* \"#utility.yul\":2578:2590   */\n  lt\n    /* \"#utility.yul\":2574:2609   */\n  and\n    /* \"#utility.yul\":2558:2669   */\n  or\n    /* \"#utility.yul\":2555:2557   */\n  iszero\n  tag_67\n  jumpi\n    /* \"#utility.yul\":2711:2719   */\n  dup3\n    /* \"#utility.yul\":2705:2709   */\n  dup3\n    /* \"#utility.yul\":2701:2720   */\n  exp\n    /* \"#utility.yul\":2692:2720   */\n  swap1\n  pop\n    /* \"#utility.yul\":2746:2749   */\n  dup4\n    /* \"#utility.yul\":2739:2744   */\n  dup2\n    /* \"#utility.yul\":2736:2750   */\n  gt\n    /* \"#utility.yul\":2733:2735   */\n  iszero\n  tag_68\n  jumpi\n    /* \"#utility.yul\":2753:2771   */\n  tag_69\n  tag_47\n  jump\t// in\ntag_69:\n    /* \"#utility.yul\":2733:2735   */\ntag_68:\n    /* \"#utility.yul\":2786:2791   */\n  jump(tag_57)\n    /* \"#utility.yul\":2555:2557   */\ntag_67:\n    /* \"#utility.yul\":2826:2868   */\n  tag_70\n    /* \"#utility.yul\":2864:2867   */\n  dup5\n    /* \"#utility.yul\":2854:2862   */\n  dup5\n    /* \"#utility.yul\":2848:2852   */\n  dup5\n    /* \"#utility.yul\":2845:2846   */\n  0x01\n    /* \"#utility.yul\":2826:2868   */\n  tag_40\n  jump\t// in\ntag_70:\n    /* \"#utility.yul\":2811:2868   */\n  swap3\n  pop\n  swap1\n  pop\n    /* \"#utility.yul\":2900:2904   */\n  dup2\n    /* \"#utility.yul\":2895:2898   */\n  dup5\n    /* \"#utility.yul\":2891:2905   */\n  div\n    /* \"#utility.yul\":2884:2889   */\n  dup2\n    /* \"#utility.yul\":2881:2906   */\n  gt\n    /* \"#utility.yul\":2878:2880   */\n  iszero\n  tag_71\n  jumpi\n    /* \"#utility.yul\":2909:2927   */\n  tag_72\n  tag_47\n  jump\t// in\ntag_72:\n    /* \"#utility.yul\":2878:2880   */\ntag_71:\n    /* \"#utility.yul\":2958:2962   */\n  dup2\n    /* \"#utility.yul\":2951:2956   */\n  dup2\n    /* \"#utility.yul\":2947:2963   */\n  mul\n    /* \"#utility.yul\":2938:2963   */\n  swap1\n  pop\n    /* \"#utility.yul\":1956:2969   */\ntag_57:\n  swap4\n  swap3\n  pop\n  pop\n  pop\n  jump\t// out\n    /* \"#utility.yul\":2975:3323   */\ntag_13:\n  0x00\n    /* \"#utility.yul\":3038:3058   */\n  tag_74\n    /* \"#utility.yul\":3056:3057   */\n  dup3\n    /* \"#utility.yul\":3038:3058   */\n  tag_53\n  jump\t// in\ntag_74:\n    /* \"#utility.yul\":3033:3058   */\n  swap2\n  pop\n    /* \"#utility.yul\":3072:3092   */\n  tag_75\n    /* \"#utility.yul\":3090:3091   */\n  dup4\n    /* \"#utility.yul\":3072:3092   */\n  tag_53\n  jump\t// in\ntag_75:\n    /* \"#utility.yul\":3067:3092   */\n  swap3\n  pop\n    /* \"#utility.yul\":3260:3261   */\n  dup2\n    /* \"#utility.yul\":3192:3258   */\n  0xffffffffffffffffffffffffffffffffffffffffffffffffffffffffffffffff\n    /* \"#utility.yul\":3188:3262   */\n  div\n    /* \"#utility.yul\":3185:3186   */\n  dup4\n    /* \"#utility.yul\":3182:3263   */\n  gt\n    /* \"#utility.yul\":3177:3178   */\n  dup3\n    /* \"#utility.yul\":3170:3179   */\n  iszero\n    /* \"#utility.yul\":3163:3180   */\n  iszero\n    /* \"#utility.yul\":3159:3264   */\n  and\n    /* \"#utility.yul\":3156:3158   */\n  iszero\n  tag_76\n  jumpi\n    /* \"#utility.yul\":3267:3285   */\n  tag_77\n  tag_47\n  jump\t// in\ntag_77:\n    /* \"#utility.yul\":3156:3158   */\ntag_76:\n    /* \"#utility.yul\":3315:3316   */\n  dup3\n    /* \"#utility.yul\":3312:3313   */\n  dup3\n    /* \"#utility.yul\":3308:3317   */\n  mul\n    /* \"#utility.yul\":3297:3317   */\n  swap1\n  pop\n    /* \"#utility.yul\":3023:3323   */\n  swap3\n  swap2\n  pop\n  pop\n  jump\t// out\n    /* \"#utility.yul\":3329:3425   */\ntag_78:\n  0x00\n    /* \"#utility.yul\":3395:3419   */\n  tag_80\n    /* \"#utility.yul\":3413:3418   */\n  dup3\n    /* \"#utility.yul\":3395:3419   */\n  tag_81\n  jump\t// in\ntag_80:\n    /* \"#utility.yul\":3384:3419   */\n  swap1\n  pop\n    /* \"#utility.yul\":3374:3425   */\n  swap2\n  swap1\n  pop\n  jump\t// out\n    /* \"#utility.yul\":3431:3557   */\ntag_81:\n  0x00\n    /* \"#utility.yul\":3508:3550   */\n  0xffffffffffffffffffffffffffffffffffffffff\n    /* \"#utility.yul\":3501:3506   */\n  dup3\n    /* \"#utility.yul\":3497:3551   */\n  and\n    /* \"#utility.yul\":3486:3551   */\n  swap1\n  pop\n    /* \"#utility.yul\":3476:3557   */\n  swap2\n  swap1\n  pop\n  jump\t// out\n    /* \"#utility.yul\":3563:3640   */\ntag_53:\n  0x00\n    /* \"#utility.yul\":3629:3634   */\n  dup2\n    /* \"#utility.yul\":3618:3634   */\n  swap1\n  pop\n    /* \"#utility.yul\":3608:3640   */\n  swap2\n  swap1\n  pop\n  jump\t// out\n    /* \"#utility.yul\":3646:3966   */\ntag_17:\n  0x00\n    /* \"#utility.yul\":3727:3728   */\n  0x02\n    /* \"#utility.yul\":3721:3725   */\n  dup3\n    /* \"#utility.yul\":3717:3729   */\n  div\n    /* \"#utility.yul\":3707:3729   */\n  swap1\n  pop\n    /* \"#utility.yul\":3774:3775   */\n  0x01\n    /* \"#utility.yul\":3768:3772   */\n  dup3\n    /* \"#utility.yul\":3764:3776   */\n  and\n    /* \"#utility.yul\":3795:3813   */\n  dup1\n    /* \"#utility.yul\":3785:3787   */\n  tag_85\n  jumpi\n    /* \"#utility.yul\":3851:3855   */\n  0x7f\n    /* \"#utility.yul\":3843:3849   */\n  dup3\n    /* \"#utility.yul\":3839:3856   */\n  and\n    /* \"#utility.yul\":3829:3856   */\n  swap2\n  pop\n    /* \"#utility.yul\":3785:3787   */\ntag_85:\n    /* \"#utility.yul\":3913:3915   */\n  0x20\n    /* \"#utility.yul\":3905:3911   */\n  dup3\n    /* \"#utility.yul\":3902:3916   */\n  lt\n    /* \"#utility.yul\":3882:3900   */\n  dup2\n    /* \"#utility.yul\":3879:3917   */\n  eq\n    /* \"#utility.yul\":3876:3878   */\n  iszero\n  tag_86\n  jumpi\n    /* \"#utility.yul\":3932:3950   */\n  tag_87\n  tag_88\n  jump\t// in\ntag_87:\n    /* \"#utility.yul\":3876:3878   */\ntag_86:\n    /* \"#utility.yul\":3697:3966   */\n  pop\n  swap2\n  swap1\n  pop\n  jump\t// out\n    /* \"#utility.yul\":3972:4152   */\ntag_47:\n    /* \"#utility.yul\":4020:4097   */\n  0x4e487b7100000000000000000000000000000000000000000000000000000000\n    /* \"#utility.yul\":4017:4018   */\n  0x00\n    /* \"#utility.yul\":4010:4098   */\n  mstore\n    /* \"#utility.yul\":4117:4121   */\n  0x11\n    /* \"#utility.yul\":4114:4115   */\n  0x04\n    /* \"#utility.yul\":4107:4122   */\n  mstore\n    /* \"#utility.yul\":4141:4145   */\n  0x24\n    /* \"#utility.yul\":4138:4139   */\n  0x00\n    /* \"#utility.yul\":4131:4146   */\n  revert\n    /* \"#utility.yul\":4158:4338   */\ntag_88:\n    /* \"#utility.yul\":4206:4283   */\n  0x4e487b7100000000000000000000000000000000000000000000000000000000\n    /* \"#utility.yul\":4203:4204   */\n  0x00\n    /* \"#utility.yul\":4196:4284   */\n  mstore\n    /* \"#utility.yul\":4303:4307   */\n  0x22\n    /* \"#utility.yul\":4300:4301   */\n  0x04\n    /* \"#utility.yul\":4293:4308   */\n  mstore\n    /* \"#utility.yul\":4327:4331   */\n  0x24\n    /* \"#utility.yul\":4324:4325   */\n  0x00\n    /* \"#utility.yul\":4317:4332   */\n  revert\n    /* \"#utility.yul\":4344:4446   */\ntag_50:\n  0x00\n    /* \"#utility.yul\":4433:4438   */\n  dup2\n    /* \"#utility.yul\":4430:4431   */\n  0x01\n    /* \"#utility.yul\":4426:4439   */\n  shr\n    /* \"#utility.yul\":4405:4439   */\n  swap1\n  pop\n    /* \"#utility.yul\":4395:4446   */\n  swap2\n  swap1\n  pop\n  jump\t// out\n    /* \"#utility.yul\":4452:4574   */\ntag_31:\n    /* \"#utility.yul\":4525:4549   */\n  tag_93\n    /* \"#utility.yul\":4543:4548   */\n  dup2\n    /* \"#utility.yul\":4525:4549   */\n  tag_78\n  jump\t// in\ntag_93:\n    /* \"#utility.yul\":4518:4523   */\n  dup2\n    /* \"#utility.yul\":4515:4550   */\n  eq\n    /* \"#utility.yul\":4505:4507   */\n  tag_94\n  jumpi\n    /* \"#utility.yul\":4564:4565   */\n  0x00\n    /* \"#utility.yul\":4561:4562   */\n  dup1\n    /* \"#utility.yul\":4554:4566   */\n  revert\n    /* \"#utility.yul\":4505:4507   */\ntag_94:\n    /* \"#utility.yul\":4495:4574   */\n  pop\n  jump\t// out\n    /* \"#utility.yul\":4580:4702   */\ntag_35:\n    /* \"#utility.yul\":4653:4677   */\n  tag_96\n    /* \"#utility.yul\":4671:4676   */\n  dup2\n    /* \"#utility.yul\":4653:4677   */\n  tag_53\n  jump\t// in\ntag_96:\n    /* \"#utility.yul\":4646:4651   */\n  dup2\n    /* \"#utility.yul\":4643:4678   */\n  eq\n    /* \"#utility.yul\":4633:4635   */\n  tag_97\n  jumpi\n    /* \"#utility.yul\":4692:4693   */\n  0x00\n    /* \"#utility.yul\":4689:4690   */\n  dup1\n    /* \"#utility.yul\":4682:4694   */\n  revert\n    /* \"#utility.yul\":4633:4635   */\ntag_97:\n    /* \"#utility.yul\":4623:4702   */\n  pop\n  jump\t// out\n    /* \"contracts/Upgrade Attempt/SurvivalCoin.sol\":178:1612  contract SurvivalCoin is ERC20Token {\r... */\ntag_15:\n  dataSize(sub_0)\n  dup1\n  dataOffset(sub_0)\n  0x00\n  codecopy\n  0x00\n  return\nstop\n\nsub_0: assembly {\n        /* \"contracts/Upgrade Attempt/SurvivalCoin.sol\":178:1612  contract SurvivalCoin is ERC20Token {\r... */\n      mstore(0x40, 0x80)\n      callvalue\n      dup1\n      iszero\n      tag_1\n      jumpi\n      0x00\n      dup1\n      revert\n    tag_1:\n      pop\n      jumpi(tag_2, lt(calldatasize, 0x04))\n      shr(0xe0, calldataload(0x00))\n      dup1\n      0x44df8e70\n      gt\n      tag_14\n      jumpi\n      dup1\n      0x44df8e70\n      eq\n      tag_8\n      jumpi\n      dup1\n      0x70a08231\n      eq\n      tag_9\n      jumpi\n      dup1\n      0x95d89b41\n      eq\n      tag_10\n      jumpi\n      dup1\n      0xa9059cbb\n      eq\n      tag_11\n      jumpi\n      dup1\n      0xdd62ed3e\n      eq\n      tag_12\n      jumpi\n      dup1\n      0xf851a440\n      eq\n      tag_13\n      jumpi\n      jump(tag_2)\n    tag_14:\n      dup1\n      0x06fdde03\n      eq\n      tag_3\n      jumpi\n      dup1\n      0x095ea7b3\n      eq\n      tag_4\n      jumpi\n      dup1\n      0x18160ddd\n      eq\n      tag_5\n      jumpi\n      dup1\n      0x23b872dd\n      eq\n      tag_6\n      jumpi\n      dup1\n      0x313ce567\n      eq\n      tag_7\n      jumpi\n    tag_2:\n      0x00\n      dup1\n      revert\n        /* \"contracts/Upgrade Attempt/ERC20Token.sol\":171:189  string public name */\n    tag_3:\n      tag_15\n      tag_16\n      jump\t// in\n    tag_15:\n      mload(0x40)\n      tag_17\n      swap2\n      swap1\n      tag_18\n      jump\t// in\n    tag_17:\n      mload(0x40)\n      dup1\n      swap2\n      sub\n      swap1\n      return\n        /* \"contracts/Upgrade Attempt/ERC20Token.sol\":3555:3759  function approve(address spender, uint256 value) public returns (bool) {\r... */\n    tag_4:\n      tag_19\n      0x04\n      dup1\n      calldatasize\n      sub\n      dup2\n      add\n      swap1\n      tag_20\n      swap2\n      swap1\n      tag_21\n      jump\t// in\n    tag_20:\n      tag_22\n      jump\t// in\n    tag_19:\n      mload(0x40)\n      tag_23\n      swap2\n      swap1\n      tag_24\n      jump\t// in\n    tag_23:\n      mload(0x40)\n      dup1\n      swap2\n      sub\n      swap1\n      return\n        /* \"contracts/Upgrade Attempt/ERC20Token.sol\":251:277  uint256 public totalSupply */\n    tag_5:\n      tag_25\n      tag_26\n      jump\t// in\n    tag_25:\n      mload(0x40)\n      tag_27\n      swap2\n      swap1\n      tag_28\n      jump\t// in\n    tag_27:\n      mload(0x40)\n      dup1\n      swap2\n      sub\n      swap1\n      return\n        /* \"contracts/Upgrade Attempt/ERC20Token.sol\":2249:2604  function transferFrom(address from, address to, uint256 value) public returns (bool) {\r... */\n    tag_6:\n      tag_29\n      0x04\n      dup1\n      calldatasize\n      sub\n      dup2\n      add\n      swap1\n      tag_30\n      swap2\n      swap1\n      tag_31\n      jump\t// in\n    tag_30:\n      tag_32\n      jump\t// in\n    tag_29:\n      mload(0x40)\n      tag_33\n      swap2\n      swap1\n      tag_24\n      jump\t// in\n    tag_33:\n      mload(0x40)\n      dup1\n      swap2\n      sub\n      swap1\n      return\n        /* \"contracts/Upgrade Attempt/ERC20Token.sol\":223:244  uint8 public decimals */\n    tag_7:\n      tag_34\n      tag_35\n      jump\t// in\n    tag_34:\n      mload(0x40)\n      tag_36\n      swap2\n      swap1\n      tag_37\n      jump\t// in\n    tag_36:\n      mload(0x40)\n      dup1\n      swap2\n      sub\n      swap1\n      return\n        /* \"contracts/Upgrade Attempt/SurvivalCoin.sol\":911:1042  function burn() external onlyAdmin returns (bool) {\r... */\n    tag_8:\n      tag_38\n      tag_39\n      jump\t// in\n    tag_38:\n      mload(0x40)\n      tag_40\n      swap2\n      swap1\n      tag_24\n      jump\t// in\n    tag_40:\n      mload(0x40)\n      dup1\n      swap2\n      sub\n      swap1\n      return\n        /* \"contracts/Upgrade Attempt/ERC20Token.sol\":1399:1509  function balanceOf(address account) public view returns (uint256) {\r... */\n    tag_9:\n      tag_41\n      0x04\n      dup1\n      calldatasize\n      sub\n      dup2\n      add\n      swap1\n      tag_42\n      swap2\n      swap1\n      tag_43\n      jump\t// in\n    tag_42:\n      tag_44\n      jump\t// in\n    tag_41:\n      mload(0x40)\n      tag_45\n      swap2\n      swap1\n      tag_28\n      jump\t// in\n    tag_45:\n      mload(0x40)\n      dup1\n      swap2\n      sub\n      swap1\n      return\n        /* \"contracts/Upgrade Attempt/ERC20Token.sol\":196:216  string public symbol */\n    tag_10:\n      tag_46\n      tag_47\n      jump\t// in\n    tag_46:\n      mload(0x40)\n      tag_48\n      swap2\n      swap1\n      tag_18\n      jump\t// in\n    tag_48:\n      mload(0x40)\n      dup1\n      swap2\n      sub\n      swap1\n      return\n        /* \"contracts/Upgrade Attempt/ERC20Token.sol\":1788:1928  function transfer(address to, uint256 value) public returns (bool) {\r... */\n    tag_11:\n      tag_49\n      0x04\n      dup1\n      calldatasize\n      sub\n      dup2\n      add\n      swap1\n      tag_50\n      swap2\n      swap1\n      tag_21\n      jump\t// in\n    tag_50:\n      tag_51\n      jump\t// in\n    tag_49:\n      mload(0x40)\n      tag_52\n      swap2\n      swap1\n      tag_24\n      jump\t// in\n    tag_52:\n      mload(0x40)\n      dup1\n      swap2\n      sub\n      swap1\n      return\n        /* \"contracts/Upgrade Attempt/ERC20Token.sol\":4058:4192  function allowance(address owner, address spender) public view returns (uint256) {\r... */\n    tag_12:\n      tag_53\n      0x04\n      dup1\n      calldatasize\n      sub\n      dup2\n      add\n      swap1\n      tag_54\n      swap2\n      swap1\n      tag_55\n      jump\t// in\n    tag_54:\n      tag_56\n      jump\t// in\n    tag_53:\n      mload(0x40)\n      tag_57\n      swap2\n      swap1\n      tag_28\n      jump\t// in\n    tag_57:\n      mload(0x40)\n      dup1\n      swap2\n      sub\n      swap1\n      return\n        /* \"contracts/Upgrade Attempt/SurvivalCoin.sol\":553:573  address public admin */\n    tag_13:\n      tag_58\n      tag_59\n      jump\t// in\n    tag_58:\n      mload(0x40)\n      tag_60\n      swap2\n      swap1\n      tag_61\n      jump\t// in\n    tag_60:\n      mload(0x40)\n      dup1\n      swap2\n      sub\n      swap1\n      return\n        /* \"contracts/Upgrade Attempt/ERC20Token.sol\":171:189  string public name */\n    tag_16:\n      0x00\n      dup1\n      sload\n      tag_62\n      swap1\n      tag_63\n      jump\t// in\n    tag_62:\n      dup1\n      0x1f\n      add\n      0x20\n      dup1\n      swap2\n      div\n      mul\n      0x20\n      add\n      mload(0x40)\n      swap1\n      dup2\n      add\n      0x40\n      mstore\n      dup1\n      swap3\n      swap2\n      swap1\n      dup2\n      dup2\n      mstore\n      0x20\n      add\n      dup3\n      dup1\n      sload\n      tag_64\n      swap1\n      tag_63\n      jump\t// in\n    tag_64:\n      dup1\n      iszero\n      tag_65\n      jumpi\n      dup1\n      0x1f\n      lt\n      tag_66\n      jumpi\n      0x0100\n      dup1\n      dup4\n      sload\n      div\n      mul\n      dup4\n      mstore\n      swap2\n      0x20\n      add\n      swap2\n      jump(tag_65)\n    tag_66:\n      dup3\n      add\n      swap2\n      swap1\n      0x00\n      mstore\n      keccak256(0x00, 0x20)\n      swap1\n    tag_67:\n      dup2\n      sload\n      dup2\n      mstore\n      swap1\n      0x01\n      add\n      swap1\n      0x20\n      add\n      dup1\n      dup4\n      gt\n      tag_67\n      jumpi\n      dup3\n      swap1\n      sub\n      0x1f\n      and\n      dup3\n      add\n      swap2\n    tag_65:\n      pop\n      pop\n      pop\n      pop\n      pop\n      dup2\n      jump\t// out\n        /* \"contracts/Upgrade Attempt/ERC20Token.sol\":3555:3759  function approve(address spender, uint256 value) public returns (bool) {\r... */\n    tag_22:\n        /* \"contracts/Upgrade Attempt/ERC20Token.sol\":3620:3624  bool */\n      0x00\n        /* \"contracts/Upgrade Attempt/ERC20Token.sol\":3672:3677  value */\n      dup2\n        /* \"contracts/Upgrade Attempt/ERC20Token.sol\":3637:3648  _allowances */\n      0x05\n        /* \"contracts/Upgrade Attempt/ERC20Token.sol\":3637:3660  _allowances[msg.sender] */\n      0x00\n        /* \"contracts/Upgrade Attempt/ERC20Token.sol\":3649:3659  msg.sender */\n      caller\n        /* \"contracts/Upgrade Attempt/ERC20Token.sol\":3637:3660  _allowances[msg.sender] */\n      0xffffffffffffffffffffffffffffffffffffffff\n      and\n      0xffffffffffffffffffffffffffffffffffffffff\n      and\n      dup2\n      mstore\n      0x20\n      add\n      swap1\n      dup2\n      mstore\n      0x20\n      add\n      0x00\n      keccak256\n        /* \"contracts/Upgrade Attempt/ERC20Token.sol\":3637:3669  _allowances[msg.sender][spender] */\n      0x00\n        /* \"contracts/Upgrade Attempt/ERC20Token.sol\":3661:3668  spender */\n      dup6\n        /* \"contracts/Upgrade Attempt/ERC20Token.sol\":3637:3669  _allowances[msg.sender][spender] */\n      0xffffffffffffffffffffffffffffffffffffffff\n      and\n      0xffffffffffffffffffffffffffffffffffffffff\n      and\n      dup2\n      mstore\n      0x20\n      add\n      swap1\n      dup2\n      mstore\n      0x20\n      add\n      0x00\n      keccak256\n        /* \"contracts/Upgrade Attempt/ERC20Token.sol\":3637:3677  _allowances[msg.sender][spender] = value */\n      dup2\n      swap1\n      sstore\n      pop\n        /* \"contracts/Upgrade Attempt/ERC20Token.sol\":3714:3721  spender */\n      dup3\n        /* \"contracts/Upgrade Attempt/ERC20Token.sol\":3693:3729  Approval(msg.sender, spender, value) */\n      0xffffffffffffffffffffffffffffffffffffffff\n      and\n        /* \"contracts/Upgrade Attempt/ERC20Token.sol\":3702:3712  msg.sender */\n      caller\n        /* \"contracts/Upgrade Attempt/ERC20Token.sol\":3693:3729  Approval(msg.sender, spender, value) */\n      0xffffffffffffffffffffffffffffffffffffffff\n      and\n      0x8c5be1e5ebec7d5bd14f71427d1e84f3dd0314c0f7b2291e5b200ac8c7c3b925\n        /* \"contracts/Upgrade Attempt/ERC20Token.sol\":3723:3728  value */\n      dup5\n        /* \"contracts/Upgrade Attempt/ERC20Token.sol\":3693:3729  Approval(msg.sender, spender, value) */\n      mload(0x40)\n      tag_69\n      swap2\n      swap1\n      tag_28\n      jump\t// in\n    tag_69:\n      mload(0x40)\n      dup1\n      swap2\n      sub\n      swap1\n      log3\n        /* \"contracts/Upgrade Attempt/ERC20Token.sol\":3747:3751  true */\n      0x01\n        /* \"contracts/Upgrade Attempt/ERC20Token.sol\":3740:3751  return true */\n      swap1\n      pop\n        /* \"contracts/Upgrade Attempt/ERC20Token.sol\":3555:3759  function approve(address spender, uint256 value) public returns (bool) {\r... */\n      swap3\n      swap2\n      pop\n      pop\n      jump\t// out\n        /* \"contracts/Upgrade Attempt/ERC20Token.sol\":251:277  uint256 public totalSupply */\n    tag_26:\n      sload(0x03)\n      dup2\n      jump\t// out\n        /* \"contracts/Upgrade Attempt/ERC20Token.sol\":2249:2604  function transferFrom(address from, address to, uint256 value) public returns (bool) {\r... */\n    tag_32:\n        /* \"contracts/Upgrade Attempt/ERC20Token.sol\":2328:2332  bool */\n      0x00\n        /* \"contracts/Upgrade Attempt/ERC20Token.sol\":2345:2366  uint256 allowedAmount */\n      dup1\n        /* \"contracts/Upgrade Attempt/ERC20Token.sol\":2369:2380  _allowances */\n      0x05\n        /* \"contracts/Upgrade Attempt/ERC20Token.sol\":2369:2386  _allowances[from] */\n      0x00\n        /* \"contracts/Upgrade Attempt/ERC20Token.sol\":2381:2385  from */\n      dup7\n        /* \"contracts/Upgrade Attempt/ERC20Token.sol\":2369:2386  _allowances[from] */\n      0xffffffffffffffffffffffffffffffffffffffff\n      and\n      0xffffffffffffffffffffffffffffffffffffffff\n      and\n      dup2\n      mstore\n      0x20\n      add\n      swap1\n      dup2\n      mstore\n      0x20\n      add\n      0x00\n      keccak256\n        /* \"contracts/Upgrade Attempt/ERC20Token.sol\":2369:2398  _allowances[from][msg.sender] */\n      0x00\n        /* \"contracts/Upgrade Attempt/ERC20Token.sol\":2387:2397  msg.sender */\n      caller\n        /* \"contracts/Upgrade Attempt/ERC20Token.sol\":2369:2398  _allowances[from][msg.sender] */\n      0xffffffffffffffffffffffffffffffffffffffff\n      and\n      0xffffffffffffffffffffffffffffffffffffffff\n      and\n      dup2\n      mstore\n      0x20\n      add\n      swap1\n      dup2\n      mstore\n      0x20\n      add\n      0x00\n      keccak256\n      sload\n        /* \"contracts/Upgrade Attempt/ERC20Token.sol\":2345:2398  uint256 allowedAmount = _allowances[from][msg.sender] */\n      swap1\n      pop\n        /* \"contracts/Upgrade Attempt/ERC20Token.sol\":2434:2439  value */\n      dup3\n        /* \"contracts/Upgrade Attempt/ERC20Token.sol\":2417:2430  allowedAmount */\n      dup2\n        /* \"contracts/Upgrade Attempt/ERC20Token.sol\":2417:2439  allowedAmount >= value */\n      lt\n      iszero\n        /* \"contracts/Upgrade Attempt/ERC20Token.sol\":2409:2488  require(allowedAmount >= value, \"ERC20: transfer amount exceeds allowedAmount\") */\n      tag_71\n      jumpi\n      mload(0x40)\n      0x08c379a000000000000000000000000000000000000000000000000000000000\n      dup2\n      mstore\n      0x04\n      add\n      tag_72\n      swap1\n      tag_73\n      jump\t// in\n    tag_72:\n      mload(0x40)\n      dup1\n      swap2\n      sub\n      swap1\n      revert\n    tag_71:\n        /* \"contracts/Upgrade Attempt/ERC20Token.sol\":2532:2537  value */\n      dup3\n        /* \"contracts/Upgrade Attempt/ERC20Token.sol\":2499:2510  _allowances */\n      0x05\n        /* \"contracts/Upgrade Attempt/ERC20Token.sol\":2499:2516  _allowances[from] */\n      0x00\n        /* \"contracts/Upgrade Attempt/ERC20Token.sol\":2511:2515  from */\n      dup8\n        /* \"contracts/Upgrade Attempt/ERC20Token.sol\":2499:2516  _allowances[from] */\n      0xffffffffffffffffffffffffffffffffffffffff\n      and\n      0xffffffffffffffffffffffffffffffffffffffff\n      and\n      dup2\n      mstore\n      0x20\n      add\n      swap1\n      dup2\n      mstore\n      0x20\n      add\n      0x00\n      keccak256\n        /* \"contracts/Upgrade Attempt/ERC20Token.sol\":2499:2528  _allowances[from][msg.sender] */\n      0x00\n        /* \"contracts/Upgrade Attempt/ERC20Token.sol\":2517:2527  msg.sender */\n      caller\n        /* \"contracts/Upgrade Attempt/ERC20Token.sol\":2499:2528  _allowances[from][msg.sender] */\n      0xffffffffffffffffffffffffffffffffffffffff\n      and\n      0xffffffffffffffffffffffffffffffffffffffff\n      and\n      dup2\n      mstore\n      0x20\n      add\n      swap1\n      dup2\n      mstore\n      0x20\n      add\n      0x00\n      keccak256\n      0x00\n        /* \"contracts/Upgrade Attempt/ERC20Token.sol\":2499:2537  _allowances[from][msg.sender] -= value */\n      dup3\n      dup3\n      sload\n      tag_74\n      swap2\n      swap1\n      tag_75\n      jump\t// in\n    tag_74:\n      swap3\n      pop\n      pop\n      dup2\n      swap1\n      sstore\n      pop\n        /* \"contracts/Upgrade Attempt/ERC20Token.sol\":2548:2574  _transfer(from, to, value) */\n      tag_76\n        /* \"contracts/Upgrade Attempt/ERC20Token.sol\":2558:2562  from */\n      dup6\n        /* \"contracts/Upgrade Attempt/ERC20Token.sol\":2564:2566  to */\n      dup6\n        /* \"contracts/Upgrade Attempt/ERC20Token.sol\":2568:2573  value */\n      dup6\n        /* \"contracts/Upgrade Attempt/ERC20Token.sol\":2548:2557  _transfer */\n      tag_77\n        /* \"contracts/Upgrade Attempt/ERC20Token.sol\":2548:2574  _transfer(from, to, value) */\n      jump\t// in\n    tag_76:\n        /* \"contracts/Upgrade Attempt/ERC20Token.sol\":2592:2596  true */\n      0x01\n        /* \"contracts/Upgrade Attempt/ERC20Token.sol\":2585:2596  return true */\n      swap2\n      pop\n      pop\n        /* \"contracts/Upgrade Attempt/ERC20Token.sol\":2249:2604  function transferFrom(address from, address to, uint256 value) public returns (bool) {\r... */\n      swap4\n      swap3\n      pop\n      pop\n      pop\n      jump\t// out\n        /* \"contracts/Upgrade Attempt/ERC20Token.sol\":223:244  uint8 public decimals */\n    tag_35:\n      0x02\n      0x00\n      swap1\n      sload\n      swap1\n      0x0100\n      exp\n      swap1\n      div\n      0xff\n      and\n      dup2\n      jump\t// out\n        /* \"contracts/Upgrade Attempt/SurvivalCoin.sol\":911:1042  function burn() external onlyAdmin returns (bool) {\r... */\n    tag_39:\n        /* \"contracts/Upgrade Attempt/SurvivalCoin.sol\":955:959  bool */\n      0x00\n        /* \"contracts/Upgrade Attempt/SurvivalCoin.sol\":709:714  admin */\n      0x06\n      0x00\n      swap1\n      sload\n      swap1\n      0x0100\n      exp\n      swap1\n      div\n      0xffffffffffffffffffffffffffffffffffffffff\n      and\n        /* \"contracts/Upgrade Attempt/SurvivalCoin.sol\":695:714  msg.sender == admin */\n      0xffffffffffffffffffffffffffffffffffffffff\n      and\n        /* \"contracts/Upgrade Attempt/SurvivalCoin.sol\":695:705  msg.sender */\n      caller\n        /* \"contracts/Upgrade Attempt/SurvivalCoin.sol\":695:714  msg.sender == admin */\n      0xffffffffffffffffffffffffffffffffffffffff\n      and\n      eq\n        /* \"contracts/Upgrade Attempt/SurvivalCoin.sol\":687:756  require(msg.sender == admin, \"SurvivalCoin: caller is not the admin\") */\n      tag_79\n      jumpi\n      mload(0x40)\n      0x08c379a000000000000000000000000000000000000000000000000000000000\n      dup2\n      mstore\n      0x04\n      add\n      tag_80\n      swap1\n      tag_81\n      jump\t// in\n    tag_80:\n      mload(0x40)\n      dup1\n      swap2\n      sub\n      swap1\n      revert\n    tag_79:\n        /* \"contracts/Upgrade Attempt/SurvivalCoin.sol\":972:1012  _burn(msg.sender, balanceOf(msg.sender)) */\n      tag_83\n        /* \"contracts/Upgrade Attempt/SurvivalCoin.sol\":978:988  msg.sender */\n      caller\n        /* \"contracts/Upgrade Attempt/SurvivalCoin.sol\":990:1011  balanceOf(msg.sender) */\n      tag_84\n        /* \"contracts/Upgrade Attempt/SurvivalCoin.sol\":1000:1010  msg.sender */\n      caller\n        /* \"contracts/Upgrade Attempt/SurvivalCoin.sol\":990:999  balanceOf */\n      tag_44\n        /* \"contracts/Upgrade Attempt/SurvivalCoin.sol\":990:1011  balanceOf(msg.sender) */\n      jump\t// in\n    tag_84:\n        /* \"contracts/Upgrade Attempt/SurvivalCoin.sol\":972:977  _burn */\n      tag_85\n        /* \"contracts/Upgrade Attempt/SurvivalCoin.sol\":972:1012  _burn(msg.sender, balanceOf(msg.sender)) */\n      jump\t// in\n    tag_83:\n        /* \"contracts/Upgrade Attempt/SurvivalCoin.sol\":1030:1034  true */\n      0x01\n        /* \"contracts/Upgrade Attempt/SurvivalCoin.sol\":1023:1034  return true */\n      swap1\n      pop\n        /* \"contracts/Upgrade Attempt/SurvivalCoin.sol\":911:1042  function burn() external onlyAdmin returns (bool) {\r... */\n      swap1\n      jump\t// out\n        /* \"contracts/Upgrade Attempt/ERC20Token.sol\":1399:1509  function balanceOf(address account) public view returns (uint256) {\r... */\n    tag_44:\n        /* \"contracts/Upgrade Attempt/ERC20Token.sol\":1456:1463  uint256 */\n      0x00\n        /* \"contracts/Upgrade Attempt/ERC20Token.sol\":1483:1492  _balances */\n      0x04\n        /* \"contracts/Upgrade Attempt/ERC20Token.sol\":1483:1501  _balances[account] */\n      0x00\n        /* \"contracts/Upgrade Attempt/ERC20Token.sol\":1493:1500  account */\n      dup4\n        /* \"contracts/Upgrade Attempt/ERC20Token.sol\":1483:1501  _balances[account] */\n      0xffffffffffffffffffffffffffffffffffffffff\n      and\n      0xffffffffffffffffffffffffffffffffffffffff\n      and\n      dup2\n      mstore\n      0x20\n      add\n      swap1\n      dup2\n      mstore\n      0x20\n      add\n      0x00\n      keccak256\n      sload\n        /* \"contracts/Upgrade Attempt/ERC20Token.sol\":1476:1501  return _balances[account] */\n      swap1\n      pop\n        /* \"contracts/Upgrade Attempt/ERC20Token.sol\":1399:1509  function balanceOf(address account) public view returns (uint256) {\r... */\n      swap2\n      swap1\n      pop\n      jump\t// out\n        /* \"contracts/Upgrade Attempt/ERC20Token.sol\":196:216  string public symbol */\n    tag_47:\n      0x01\n      dup1\n      sload\n      tag_87\n      swap1\n      tag_63\n      jump\t// in\n    tag_87:\n      dup1\n      0x1f\n      add\n      0x20\n      dup1\n      swap2\n      div\n      mul\n      0x20\n      add\n      mload(0x40)\n      swap1\n      dup2\n      add\n      0x40\n      mstore\n      dup1\n      swap3\n      swap2\n      swap1\n      dup2\n      dup2\n      mstore\n      0x20\n      add\n      dup3\n      dup1\n      sload\n      tag_88\n      swap1\n      tag_63\n      jump\t// in\n    tag_88:\n      dup1\n      iszero\n      tag_89\n      jumpi\n      dup1\n      0x1f\n      lt\n      tag_90\n      jumpi\n      0x0100\n      dup1\n      dup4\n      sload\n      div\n      mul\n      dup4\n      mstore\n      swap2\n      0x20\n      add\n      swap2\n      jump(tag_89)\n    tag_90:\n      dup3\n      add\n      swap2\n      swap1\n      0x00\n      mstore\n      keccak256(0x00, 0x20)\n      swap1\n    tag_91:\n      dup2\n      sload\n      dup2\n      mstore\n      swap1\n      0x01\n      add\n      swap1\n      0x20\n      add\n      dup1\n      dup4\n      gt\n      tag_91\n      jumpi\n      dup3\n      swap1\n      sub\n      0x1f\n      and\n      dup3\n      add\n      swap2\n    tag_89:\n      pop\n      pop\n      pop\n      pop\n      pop\n      dup2\n      jump\t// out\n        /* \"contracts/Upgrade Attempt/ERC20Token.sol\":1788:1928  function transfer(address to, uint256 value) public returns (bool) {\r... */\n    tag_51:\n        /* \"contracts/Upgrade Attempt/ERC20Token.sol\":1849:1853  bool */\n      0x00\n        /* \"contracts/Upgrade Attempt/ERC20Token.sol\":1866:1898  _transfer(msg.sender, to, value) */\n      tag_93\n        /* \"contracts/Upgrade Attempt/ERC20Token.sol\":1876:1886  msg.sender */\n      caller\n        /* \"contracts/Upgrade Attempt/ERC20Token.sol\":1888:1890  to */\n      dup5\n        /* \"contracts/Upgrade Attempt/ERC20Token.sol\":1892:1897  value */\n      dup5\n        /* \"contracts/Upgrade Attempt/ERC20Token.sol\":1866:1875  _transfer */\n      tag_77\n        /* \"contracts/Upgrade Attempt/ERC20Token.sol\":1866:1898  _transfer(msg.sender, to, value) */\n      jump\t// in\n    tag_93:\n        /* \"contracts/Upgrade Attempt/ERC20Token.sol\":1916:1920  true */\n      0x01\n        /* \"contracts/Upgrade Attempt/ERC20Token.sol\":1909:1920  return true */\n      swap1\n      pop\n        /* \"contracts/Upgrade Attempt/ERC20Token.sol\":1788:1928  function transfer(address to, uint256 value) public returns (bool) {\r... */\n      swap3\n      swap2\n      pop\n      pop\n      jump\t// out\n        /* \"contracts/Upgrade Attempt/ERC20Token.sol\":4058:4192  function allowance(address owner, address spender) public view returns (uint256) {\r... */\n    tag_56:\n        /* \"contracts/Upgrade Attempt/ERC20Token.sol\":4130:4137  uint256 */\n      0x00\n        /* \"contracts/Upgrade Attempt/ERC20Token.sol\":4157:4168  _allowances */\n      0x05\n        /* \"contracts/Upgrade Attempt/ERC20Token.sol\":4157:4175  _allowances[owner] */\n      0x00\n        /* \"contracts/Upgrade Attempt/ERC20Token.sol\":4169:4174  owner */\n      dup5\n        /* \"contracts/Upgrade Attempt/ERC20Token.sol\":4157:4175  _allowances[owner] */\n      0xffffffffffffffffffffffffffffffffffffffff\n      and\n      0xffffffffffffffffffffffffffffffffffffffff\n      and\n      dup2\n      mstore\n      0x20\n      add\n      swap1\n      dup2\n      mstore\n      0x20\n      add\n      0x00\n      keccak256\n        /* \"contracts/Upgrade Attempt/ERC20Token.sol\":4157:4184  _allowances[owner][spender] */\n      0x00\n        /* \"contracts/Upgrade Attempt/ERC20Token.sol\":4176:4183  spender */\n      dup4\n        /* \"contracts/Upgrade Attempt/ERC20Token.sol\":4157:4184  _allowances[owner][spender] */\n      0xffffffffffffffffffffffffffffffffffffffff\n      and\n      0xffffffffffffffffffffffffffffffffffffffff\n      and\n      dup2\n      mstore\n      0x20\n      add\n      swap1\n      dup2\n      mstore\n      0x20\n      add\n      0x00\n      keccak256\n      sload\n        /* \"contracts/Upgrade Attempt/ERC20Token.sol\":4150:4184  return _allowances[owner][spender] */\n      swap1\n      pop\n        /* \"contracts/Upgrade Attempt/ERC20Token.sol\":4058:4192  function allowance(address owner, address spender) public view returns (uint256) {\r... */\n      swap3\n      swap2\n      pop\n      pop\n      jump\t// out\n        /* \"contracts/Upgrade Attempt/SurvivalCoin.sol\":553:573  address public admin */\n    tag_59:\n      0x06\n      0x00\n      swap1\n      sload\n      swap1\n      0x0100\n      exp\n      swap1\n      div\n      0xffffffffffffffffffffffffffffffffffffffff\n      and\n      dup2\n      jump\t// out\n        /* \"contracts/Upgrade Attempt/ERC20Token.sol\":2868:3215  function _transfer(address from, address to, uint256 value) internal {\r... */\n    tag_77:\n        /* \"contracts/Upgrade Attempt/ERC20Token.sol\":2970:2971  0 */\n      0x00\n        /* \"contracts/Upgrade Attempt/ERC20Token.sol\":2956:2972  to != address(0) */\n      0xffffffffffffffffffffffffffffffffffffffff\n      and\n        /* \"contracts/Upgrade Attempt/ERC20Token.sol\":2956:2958  to */\n      dup3\n        /* \"contracts/Upgrade Attempt/ERC20Token.sol\":2956:2972  to != address(0) */\n      0xffffffffffffffffffffffffffffffffffffffff\n      and\n      eq\n      iszero\n        /* \"contracts/Upgrade Attempt/ERC20Token.sol\":2948:3012  require(to != address(0), \"ERC20: transfer to the zero address\") */\n      tag_96\n      jumpi\n      mload(0x40)\n      0x08c379a000000000000000000000000000000000000000000000000000000000\n      dup2\n      mstore\n      0x04\n      add\n      tag_97\n      swap1\n      tag_98\n      jump\t// in\n    tag_97:\n      mload(0x40)\n      dup1\n      swap2\n      sub\n      swap1\n      revert\n    tag_96:\n        /* \"contracts/Upgrade Attempt/ERC20Token.sol\":3050:3055  value */\n      dup1\n        /* \"contracts/Upgrade Attempt/ERC20Token.sol\":3031:3040  _balances */\n      0x04\n        /* \"contracts/Upgrade Attempt/ERC20Token.sol\":3031:3046  _balances[from] */\n      0x00\n        /* \"contracts/Upgrade Attempt/ERC20Token.sol\":3041:3045  from */\n      dup6\n        /* \"contracts/Upgrade Attempt/ERC20Token.sol\":3031:3046  _balances[from] */\n      0xffffffffffffffffffffffffffffffffffffffff\n      and\n      0xffffffffffffffffffffffffffffffffffffffff\n      and\n      dup2\n      mstore\n      0x20\n      add\n      swap1\n      dup2\n      mstore\n      0x20\n      add\n      0x00\n      keccak256\n      sload\n        /* \"contracts/Upgrade Attempt/ERC20Token.sol\":3031:3055  _balances[from] >= value */\n      lt\n      iszero\n        /* \"contracts/Upgrade Attempt/ERC20Token.sol\":3023:3098  require(_balances[from] >= value, \"ERC20: transfer amount exceeds balance\") */\n      tag_99\n      jumpi\n      mload(0x40)\n      0x08c379a000000000000000000000000000000000000000000000000000000000\n      dup2\n      mstore\n      0x04\n      add\n      tag_100\n      swap1\n      tag_101\n      jump\t// in\n    tag_100:\n      mload(0x40)\n      dup1\n      swap2\n      sub\n      swap1\n      revert\n    tag_99:\n        /* \"contracts/Upgrade Attempt/ERC20Token.sol\":3128:3133  value */\n      dup1\n        /* \"contracts/Upgrade Attempt/ERC20Token.sol\":3109:3118  _balances */\n      0x04\n        /* \"contracts/Upgrade Attempt/ERC20Token.sol\":3109:3124  _balances[from] */\n      0x00\n        /* \"contracts/Upgrade Attempt/ERC20Token.sol\":3119:3123  from */\n      dup6\n        /* \"contracts/Upgrade Attempt/ERC20Token.sol\":3109:3124  _balances[from] */\n      0xffffffffffffffffffffffffffffffffffffffff\n      and\n      0xffffffffffffffffffffffffffffffffffffffff\n      and\n      dup2\n      mstore\n      0x20\n      add\n      swap1\n      dup2\n      mstore\n      0x20\n      add\n      0x00\n      keccak256\n      0x00\n        /* \"contracts/Upgrade Attempt/ERC20Token.sol\":3109:3133  _balances[from] -= value */\n      dup3\n      dup3\n      sload\n      tag_102\n      swap2\n      swap1\n      tag_75\n      jump\t// in\n    tag_102:\n      swap3\n      pop\n      pop\n      dup2\n      swap1\n      sstore\n      pop\n        /* \"contracts/Upgrade Attempt/ERC20Token.sol\":3161:3166  value */\n      dup1\n        /* \"contracts/Upgrade Attempt/ERC20Token.sol\":3144:3153  _balances */\n      0x04\n        /* \"contracts/Upgrade Attempt/ERC20Token.sol\":3144:3157  _balances[to] */\n      0x00\n        /* \"contracts/Upgrade Attempt/ERC20Token.sol\":3154:3156  to */\n      dup5\n        /* \"contracts/Upgrade Attempt/ERC20Token.sol\":3144:3157  _balances[to] */\n      0xffffffffffffffffffffffffffffffffffffffff\n      and\n      0xffffffffffffffffffffffffffffffffffffffff\n      and\n      dup2\n      mstore\n      0x20\n      add\n      swap1\n      dup2\n      mstore\n      0x20\n      add\n      0x00\n      keccak256\n      0x00\n        /* \"contracts/Upgrade Attempt/ERC20Token.sol\":3144:3166  _balances[to] += value */\n      dup3\n      dup3\n      sload\n      tag_103\n      swap2\n      swap1\n      tag_104\n      jump\t// in\n    tag_103:\n      swap3\n      pop\n      pop\n      dup2\n      swap1\n      sstore\n      pop\n        /* \"contracts/Upgrade Attempt/ERC20Token.sol\":3197:3199  to */\n      dup2\n        /* \"contracts/Upgrade Attempt/ERC20Token.sol\":3182:3207  Transfer(from, to, value) */\n      0xffffffffffffffffffffffffffffffffffffffff\n      and\n        /* \"contracts/Upgrade Attempt/ERC20Token.sol\":3191:3195  from */\n      dup4\n        /* \"contracts/Upgrade Attempt/ERC20Token.sol\":3182:3207  Transfer(from, to, value) */\n      0xffffffffffffffffffffffffffffffffffffffff\n      and\n      0xddf252ad1be2c89b69c2b068fc378daa952ba7f163c4a11628f55a4df523b3ef\n        /* \"contracts/Upgrade Attempt/ERC20Token.sol\":3201:3206  value */\n      dup4\n        /* \"contracts/Upgrade Attempt/ERC20Token.sol\":3182:3207  Transfer(from, to, value) */\n      mload(0x40)\n      tag_105\n      swap2\n      swap1\n      tag_28\n      jump\t// in\n    tag_105:\n      mload(0x40)\n      dup1\n      swap2\n      sub\n      swap1\n      log3\n        /* \"contracts/Upgrade Attempt/ERC20Token.sol\":2868:3215  function _transfer(address from, address to, uint256 value) internal {\r... */\n      pop\n      pop\n      pop\n      jump\t// out\n        /* \"contracts/Upgrade Attempt/SurvivalCoin.sol\":1247:1609  function _burn(address account, uint256 value) internal {\r... */\n    tag_85:\n        /* \"contracts/Upgrade Attempt/SurvivalCoin.sol\":1341:1342  0 */\n      0x00\n        /* \"contracts/Upgrade Attempt/SurvivalCoin.sol\":1322:1343  account != address(0) */\n      0xffffffffffffffffffffffffffffffffffffffff\n      and\n        /* \"contracts/Upgrade Attempt/SurvivalCoin.sol\":1322:1329  account */\n      dup3\n        /* \"contracts/Upgrade Attempt/SurvivalCoin.sol\":1322:1343  account != address(0) */\n      0xffffffffffffffffffffffffffffffffffffffff\n      and\n      eq\n      iszero\n        /* \"contracts/Upgrade Attempt/SurvivalCoin.sol\":1314:1388  require(account != address(0), \"SurvivalCoin: burn from the zero address\") */\n      tag_107\n      jumpi\n      mload(0x40)\n      0x08c379a000000000000000000000000000000000000000000000000000000000\n      dup2\n      mstore\n      0x04\n      add\n      tag_108\n      swap1\n      tag_109\n      jump\t// in\n    tag_108:\n      mload(0x40)\n      dup1\n      swap2\n      sub\n      swap1\n      revert\n    tag_107:\n        /* \"contracts/Upgrade Attempt/SurvivalCoin.sol\":1429:1434  value */\n      dup1\n        /* \"contracts/Upgrade Attempt/SurvivalCoin.sol\":1407:1416  _balances */\n      0x04\n        /* \"contracts/Upgrade Attempt/SurvivalCoin.sol\":1407:1425  _balances[account] */\n      0x00\n        /* \"contracts/Upgrade Attempt/SurvivalCoin.sol\":1417:1424  account */\n      dup5\n        /* \"contracts/Upgrade Attempt/SurvivalCoin.sol\":1407:1425  _balances[account] */\n      0xffffffffffffffffffffffffffffffffffffffff\n      and\n      0xffffffffffffffffffffffffffffffffffffffff\n      and\n      dup2\n      mstore\n      0x20\n      add\n      swap1\n      dup2\n      mstore\n      0x20\n      add\n      0x00\n      keccak256\n      sload\n        /* \"contracts/Upgrade Attempt/SurvivalCoin.sol\":1407:1434  _balances[account] >= value */\n      lt\n      iszero\n        /* \"contracts/Upgrade Attempt/SurvivalCoin.sol\":1399:1480  require(_balances[account] >= value, \"SurvivalCoin: burn amount exceeds balance\") */\n      tag_110\n      jumpi\n      mload(0x40)\n      0x08c379a000000000000000000000000000000000000000000000000000000000\n      dup2\n      mstore\n      0x04\n      add\n      tag_111\n      swap1\n      tag_112\n      jump\t// in\n    tag_111:\n      mload(0x40)\n      dup1\n      swap2\n      sub\n      swap1\n      revert\n    tag_110:\n        /* \"contracts/Upgrade Attempt/SurvivalCoin.sol\":1513:1518  value */\n      dup1\n        /* \"contracts/Upgrade Attempt/SurvivalCoin.sol\":1491:1500  _balances */\n      0x04\n        /* \"contracts/Upgrade Attempt/SurvivalCoin.sol\":1491:1509  _balances[account] */\n      0x00\n        /* \"contracts/Upgrade Attempt/SurvivalCoin.sol\":1501:1508  account */\n      dup5\n        /* \"contracts/Upgrade Attempt/SurvivalCoin.sol\":1491:1509  _balances[account] */\n      0xffffffffffffffffffffffffffffffffffffffff\n      and\n      0xffffffffffffffffffffffffffffffffffffffff\n      and\n      dup2\n      mstore\n      0x20\n      add\n      swap1\n      dup2\n      mstore\n      0x20\n      add\n      0x00\n      keccak256\n      0x00\n        /* \"contracts/Upgrade Attempt/SurvivalCoin.sol\":1491:1518  _balances[account] -= value */\n      dup3\n      dup3\n      sload\n      tag_113\n      swap2\n      swap1\n      tag_75\n      jump\t// in\n    tag_113:\n      swap3\n      pop\n      pop\n      dup2\n      swap1\n      sstore\n      pop\n        /* \"contracts/Upgrade Attempt/SurvivalCoin.sol\":1544:1549  value */\n      dup1\n        /* \"contracts/Upgrade Attempt/SurvivalCoin.sol\":1529:1540  totalSupply */\n      0x03\n      0x00\n        /* \"contracts/Upgrade Attempt/SurvivalCoin.sol\":1529:1549  totalSupply -= value */\n      dup3\n      dup3\n      sload\n      tag_114\n      swap2\n      swap1\n      tag_75\n      jump\t// in\n    tag_114:\n      swap3\n      pop\n      pop\n      dup2\n      swap1\n      sstore\n      pop\n        /* \"contracts/Upgrade Attempt/SurvivalCoin.sol\":1591:1592  0 */\n      0x00\n        /* \"contracts/Upgrade Attempt/SurvivalCoin.sol\":1565:1601  Transfer(account, address(0), value) */\n      0xffffffffffffffffffffffffffffffffffffffff\n      and\n        /* \"contracts/Upgrade Attempt/SurvivalCoin.sol\":1574:1581  account */\n      dup3\n        /* \"contracts/Upgrade Attempt/SurvivalCoin.sol\":1565:1601  Transfer(account, address(0), value) */\n      0xffffffffffffffffffffffffffffffffffffffff\n      and\n      0xddf252ad1be2c89b69c2b068fc378daa952ba7f163c4a11628f55a4df523b3ef\n        /* \"contracts/Upgrade Attempt/SurvivalCoin.sol\":1595:1600  value */\n      dup4\n        /* \"contracts/Upgrade Attempt/SurvivalCoin.sol\":1565:1601  Transfer(account, address(0), value) */\n      mload(0x40)\n      tag_115\n      swap2\n      swap1\n      tag_28\n      jump\t// in\n    tag_115:\n      mload(0x40)\n      dup1\n      swap2\n      sub\n      swap1\n      log3\n        /* \"contracts/Upgrade Attempt/SurvivalCoin.sol\":1247:1609  function _burn(address account, uint256 value) internal {\r... */\n      pop\n      pop\n      jump\t// out\n        /* \"#utility.yul\":7:146   */\n    tag_117:\n      0x00\n        /* \"#utility.yul\":91:97   */\n      dup2\n        /* \"#utility.yul\":78:98   */\n      calldataload\n        /* \"#utility.yul\":69:98   */\n      swap1\n      pop\n        /* \"#utility.yul\":107:140   */\n      tag_119\n        /* \"#utility.yul\":134:139   */\n      dup2\n        /* \"#utility.yul\":107:140   */\n      tag_120\n      jump\t// in\n    tag_119:\n        /* \"#utility.yul\":59:146   */\n      swap3\n      swap2\n      pop\n      pop\n      jump\t// out\n        /* \"#utility.yul\":152:291   */\n    tag_121:\n      0x00\n        /* \"#utility.yul\":236:242   */\n      dup2\n        /* \"#utility.yul\":223:243   */\n      calldataload\n        /* \"#utility.yul\":214:243   */\n      swap1\n      pop\n        /* \"#utility.yul\":252:285   */\n      tag_123\n        /* \"#utility.yul\":279:284   */\n      dup2\n        /* \"#utility.yul\":252:285   */\n      tag_124\n      jump\t// in\n    tag_123:\n        /* \"#utility.yul\":204:291   */\n      swap3\n      swap2\n      pop\n      pop\n      jump\t// out\n        /* \"#utility.yul\":297:559   */\n    tag_43:\n      0x00\n        /* \"#utility.yul\":405:407   */\n      0x20\n        /* \"#utility.yul\":393:402   */\n      dup3\n        /* \"#utility.yul\":384:391   */\n      dup5\n        /* \"#utility.yul\":380:403   */\n      sub\n        /* \"#utility.yul\":376:408   */\n      slt\n        /* \"#utility.yul\":373:375   */\n      iszero\n      tag_126\n      jumpi\n        /* \"#utility.yul\":421:422   */\n      0x00\n        /* \"#utility.yul\":418:419   */\n      dup1\n        /* \"#utility.yul\":411:423   */\n      revert\n        /* \"#utility.yul\":373:375   */\n    tag_126:\n        /* \"#utility.yul\":464:465   */\n      0x00\n        /* \"#utility.yul\":489:542   */\n      tag_127\n        /* \"#utility.yul\":534:541   */\n      dup5\n        /* \"#utility.yul\":525:531   */\n      dup3\n        /* \"#utility.yul\":514:523   */\n      dup6\n        /* \"#utility.yul\":510:532   */\n      add\n        /* \"#utility.yul\":489:542   */\n      tag_117\n      jump\t// in\n    tag_127:\n        /* \"#utility.yul\":479:542   */\n      swap2\n      pop\n        /* \"#utility.yul\":435:552   */\n      pop\n        /* \"#utility.yul\":363:559   */\n      swap3\n      swap2\n      pop\n      pop\n      jump\t// out\n        /* \"#utility.yul\":565:972   */\n    tag_55:\n      0x00\n      dup1\n        /* \"#utility.yul\":690:692   */\n      0x40\n        /* \"#utility.yul\":678:687   */\n      dup4\n        /* \"#utility.yul\":669:676   */\n      dup6\n        /* \"#utility.yul\":665:688   */\n      sub\n        /* \"#utility.yul\":661:693   */\n      slt\n        /* \"#utility.yul\":658:660   */\n      iszero\n      tag_129\n      jumpi\n        /* \"#utility.yul\":706:707   */\n      0x00\n        /* \"#utility.yul\":703:704   */\n      dup1\n        /* \"#utility.yul\":696:708   */\n      revert\n        /* \"#utility.yul\":658:660   */\n    tag_129:\n        /* \"#utility.yul\":749:750   */\n      0x00\n        /* \"#utility.yul\":774:827   */\n      tag_130\n        /* \"#utility.yul\":819:826   */\n      dup6\n        /* \"#utility.yul\":810:816   */\n      dup3\n        /* \"#utility.yul\":799:808   */\n      dup7\n        /* \"#utility.yul\":795:817   */\n      add\n        /* \"#utility.yul\":774:827   */\n      tag_117\n      jump\t// in\n    tag_130:\n        /* \"#utility.yul\":764:827   */\n      swap3\n      pop\n        /* \"#utility.yul\":720:837   */\n      pop\n        /* \"#utility.yul\":876:878   */\n      0x20\n        /* \"#utility.yul\":902:955   */\n      tag_131\n        /* \"#utility.yul\":947:954   */\n      dup6\n        /* \"#utility.yul\":938:944   */\n      dup3\n        /* \"#utility.yul\":927:936   */\n      dup7\n        /* \"#utility.yul\":923:945   */\n      add\n        /* \"#utility.yul\":902:955   */\n      tag_117\n      jump\t// in\n    tag_131:\n        /* \"#utility.yul\":892:955   */\n      swap2\n      pop\n        /* \"#utility.yul\":847:965   */\n      pop\n        /* \"#utility.yul\":648:972   */\n      swap3\n      pop\n      swap3\n      swap1\n      pop\n      jump\t// out\n        /* \"#utility.yul\":978:1530   */\n    tag_31:\n      0x00\n      dup1\n      0x00\n        /* \"#utility.yul\":1120:1122   */\n      0x60\n        /* \"#utility.yul\":1108:1117   */\n      dup5\n        /* \"#utility.yul\":1099:1106   */\n      dup7\n        /* \"#utility.yul\":1095:1118   */\n      sub\n        /* \"#utility.yul\":1091:1123   */\n      slt\n        /* \"#utility.yul\":1088:1090   */\n      iszero\n      tag_133\n      jumpi\n        /* \"#utility.yul\":1136:1137   */\n      0x00\n        /* \"#utility.yul\":1133:1134   */\n      dup1\n        /* \"#utility.yul\":1126:1138   */\n      revert\n        /* \"#utility.yul\":1088:1090   */\n    tag_133:\n        /* \"#utility.yul\":1179:1180   */\n      0x00\n        /* \"#utility.yul\":1204:1257   */\n      tag_134\n        /* \"#utility.yul\":1249:1256   */\n      dup7\n        /* \"#utility.yul\":1240:1246   */\n      dup3\n        /* \"#utility.yul\":1229:1238   */\n      dup8\n        /* \"#utility.yul\":1225:1247   */\n      add\n        /* \"#utility.yul\":1204:1257   */\n      tag_117\n      jump\t// in\n    tag_134:\n        /* \"#utility.yul\":1194:1257   */\n      swap4\n      pop\n        /* \"#utility.yul\":1150:1267   */\n      pop\n        /* \"#utility.yul\":1306:1308   */\n      0x20\n        /* \"#utility.yul\":1332:1385   */\n      tag_135\n        /* \"#utility.yul\":1377:1384   */\n      dup7\n        /* \"#utility.yul\":1368:1374   */\n      dup3\n        /* \"#utility.yul\":1357:1366   */\n      dup8\n        /* \"#utility.yul\":1353:1375   */\n      add\n        /* \"#utility.yul\":1332:1385   */\n      tag_117\n      jump\t// in\n    tag_135:\n        /* \"#utility.yul\":1322:1385   */\n      swap3\n      pop\n        /* \"#utility.yul\":1277:1395   */\n      pop\n        /* \"#utility.yul\":1434:1436   */\n      0x40\n        /* \"#utility.yul\":1460:1513   */\n      tag_136\n        /* \"#utility.yul\":1505:1512   */\n      dup7\n        /* \"#utility.yul\":1496:1502   */\n      dup3\n        /* \"#utility.yul\":1485:1494   */\n      dup8\n        /* \"#utility.yul\":1481:1503   */\n      add\n        /* \"#utility.yul\":1460:1513   */\n      tag_121\n      jump\t// in\n    tag_136:\n        /* \"#utility.yul\":1450:1513   */\n      swap2\n      pop\n        /* \"#utility.yul\":1405:1523   */\n      pop\n        /* \"#utility.yul\":1078:1530   */\n      swap3\n      pop\n      swap3\n      pop\n      swap3\n      jump\t// out\n        /* \"#utility.yul\":1536:1943   */\n    tag_21:\n      0x00\n      dup1\n        /* \"#utility.yul\":1661:1663   */\n      0x40\n        /* \"#utility.yul\":1649:1658   */\n      dup4\n        /* \"#utility.yul\":1640:1647   */\n      dup6\n        /* \"#utility.yul\":1636:1659   */\n      sub\n        /* \"#utility.yul\":1632:1664   */\n      slt\n        /* \"#utility.yul\":1629:1631   */\n      iszero\n      tag_138\n      jumpi\n        /* \"#utility.yul\":1677:1678   */\n      0x00\n        /* \"#utility.yul\":1674:1675   */\n      dup1\n        /* \"#utility.yul\":1667:1679   */\n      revert\n        /* \"#utility.yul\":1629:1631   */\n    tag_138:\n        /* \"#utility.yul\":1720:1721   */\n      0x00\n        /* \"#utility.yul\":1745:1798   */\n      tag_139\n        /* \"#utility.yul\":1790:1797   */\n      dup6\n        /* \"#utility.yul\":1781:1787   */\n      dup3\n        /* \"#utility.yul\":1770:1779   */\n      dup7\n        /* \"#utility.yul\":1766:1788   */\n      add\n        /* \"#utility.yul\":1745:1798   */\n      tag_117\n      jump\t// in\n    tag_139:\n        /* \"#utility.yul\":1735:1798   */\n      swap3\n      pop\n        /* \"#utility.yul\":1691:1808   */\n      pop\n        /* \"#utility.yul\":1847:1849   */\n      0x20\n        /* \"#utility.yul\":1873:1926   */\n      tag_140\n        /* \"#utility.yul\":1918:1925   */\n      dup6\n        /* \"#utility.yul\":1909:1915   */\n      dup3\n        /* \"#utility.yul\":1898:1907   */\n      dup7\n        /* \"#utility.yul\":1894:1916   */\n      add\n        /* \"#utility.yul\":1873:1926   */\n      tag_121\n      jump\t// in\n    tag_140:\n        /* \"#utility.yul\":1863:1926   */\n      swap2\n      pop\n        /* \"#utility.yul\":1818:1936   */\n      pop\n        /* \"#utility.yul\":1619:1943   */\n      swap3\n      pop\n      swap3\n      swap1\n      pop\n      jump\t// out\n        /* \"#utility.yul\":1949:2067   */\n    tag_141:\n        /* \"#utility.yul\":2036:2060   */\n      tag_143\n        /* \"#utility.yul\":2054:2059   */\n      dup2\n        /* \"#utility.yul\":2036:2060   */\n      tag_144\n      jump\t// in\n    tag_143:\n        /* \"#utility.yul\":2031:2034   */\n      dup3\n        /* \"#utility.yul\":2024:2061   */\n      mstore\n        /* \"#utility.yul\":2014:2067   */\n      pop\n      pop\n      jump\t// out\n        /* \"#utility.yul\":2073:2182   */\n    tag_145:\n        /* \"#utility.yul\":2154:2175   */\n      tag_147\n        /* \"#utility.yul\":2169:2174   */\n      dup2\n        /* \"#utility.yul\":2154:2175   */\n      tag_148\n      jump\t// in\n    tag_147:\n        /* \"#utility.yul\":2149:2152   */\n      dup3\n        /* \"#utility.yul\":2142:2176   */\n      mstore\n        /* \"#utility.yul\":2132:2182   */\n      pop\n      pop\n      jump\t// out\n        /* \"#utility.yul\":2188:2552   */\n    tag_149:\n      0x00\n        /* \"#utility.yul\":2304:2343   */\n      tag_151\n        /* \"#utility.yul\":2337:2342   */\n      dup3\n        /* \"#utility.yul\":2304:2343   */\n      tag_152\n      jump\t// in\n    tag_151:\n        /* \"#utility.yul\":2359:2430   */\n      tag_153\n        /* \"#utility.yul\":2423:2429   */\n      dup2\n        /* \"#utility.yul\":2418:2421   */\n      dup6\n        /* \"#utility.yul\":2359:2430   */\n      tag_154\n      jump\t// in\n    tag_153:\n        /* \"#utility.yul\":2352:2430   */\n      swap4\n      pop\n        /* \"#utility.yul\":2439:2491   */\n      tag_155\n        /* \"#utility.yul\":2484:2490   */\n      dup2\n        /* \"#utility.yul\":2479:2482   */\n      dup6\n        /* \"#utility.yul\":2472:2476   */\n      0x20\n        /* \"#utility.yul\":2465:2470   */\n      dup7\n        /* \"#utility.yul\":2461:2477   */\n      add\n        /* \"#utility.yul\":2439:2491   */\n      tag_156\n      jump\t// in\n    tag_155:\n        /* \"#utility.yul\":2516:2545   */\n      tag_157\n        /* \"#utility.yul\":2538:2544   */\n      dup2\n        /* \"#utility.yul\":2516:2545   */\n      tag_158\n      jump\t// in\n    tag_157:\n        /* \"#utility.yul\":2511:2514   */\n      dup5\n        /* \"#utility.yul\":2507:2546   */\n      add\n        /* \"#utility.yul\":2500:2546   */\n      swap2\n      pop\n        /* \"#utility.yul\":2280:2552   */\n      pop\n      swap3\n      swap2\n      pop\n      pop\n      jump\t// out\n        /* \"#utility.yul\":2558:2925   */\n    tag_159:\n      0x00\n        /* \"#utility.yul\":2721:2788   */\n      tag_161\n        /* \"#utility.yul\":2785:2787   */\n      0x23\n        /* \"#utility.yul\":2780:2783   */\n      dup4\n        /* \"#utility.yul\":2721:2788   */\n      tag_154\n      jump\t// in\n    tag_161:\n        /* \"#utility.yul\":2714:2788   */\n      swap2\n      pop\n        /* \"#utility.yul\":2818:2852   */\n      0x45524332303a207472616e7366657220746f20746865207a65726f2061646472\n        /* \"#utility.yul\":2814:2815   */\n      0x00\n        /* \"#utility.yul\":2809:2812   */\n      dup4\n        /* \"#utility.yul\":2805:2816   */\n      add\n        /* \"#utility.yul\":2798:2853   */\n      mstore\n        /* \"#utility.yul\":2884:2889   */\n      0x6573730000000000000000000000000000000000000000000000000000000000\n        /* \"#utility.yul\":2879:2881   */\n      0x20\n        /* \"#utility.yul\":2874:2877   */\n      dup4\n        /* \"#utility.yul\":2870:2882   */\n      add\n        /* \"#utility.yul\":2863:2890   */\n      mstore\n        /* \"#utility.yul\":2916:2918   */\n      0x40\n        /* \"#utility.yul\":2911:2914   */\n      dup3\n        /* \"#utility.yul\":2907:2919   */\n      add\n        /* \"#utility.yul\":2900:2919   */\n      swap1\n      pop\n        /* \"#utility.yul\":2704:2925   */\n      swap2\n      swap1\n      pop\n      jump\t// out\n        /* \"#utility.yul\":2931:3301   */\n    tag_162:\n      0x00\n        /* \"#utility.yul\":3094:3161   */\n      tag_164\n        /* \"#utility.yul\":3158:3160   */\n      0x26\n        /* \"#utility.yul\":3153:3156   */\n      dup4\n        /* \"#utility.yul\":3094:3161   */\n      tag_154\n      jump\t// in\n    tag_164:\n        /* \"#utility.yul\":3087:3161   */\n      swap2\n      pop\n        /* \"#utility.yul\":3191:3225   */\n      0x45524332303a207472616e7366657220616d6f756e7420657863656564732062\n        /* \"#utility.yul\":3187:3188   */\n      0x00\n        /* \"#utility.yul\":3182:3185   */\n      dup4\n        /* \"#utility.yul\":3178:3189   */\n      add\n        /* \"#utility.yul\":3171:3226   */\n      mstore\n        /* \"#utility.yul\":3257:3265   */\n      0x616c616e63650000000000000000000000000000000000000000000000000000\n        /* \"#utility.yul\":3252:3254   */\n      0x20\n        /* \"#utility.yul\":3247:3250   */\n      dup4\n        /* \"#utility.yul\":3243:3255   */\n      add\n        /* \"#utility.yul\":3236:3266   */\n      mstore\n        /* \"#utility.yul\":3292:3294   */\n      0x40\n        /* \"#utility.yul\":3287:3290   */\n      dup3\n        /* \"#utility.yul\":3283:3295   */\n      add\n        /* \"#utility.yul\":3276:3295   */\n      swap1\n      pop\n        /* \"#utility.yul\":3077:3301   */\n      swap2\n      swap1\n      pop\n      jump\t// out\n        /* \"#utility.yul\":3307:3683   */\n    tag_165:\n      0x00\n        /* \"#utility.yul\":3470:3537   */\n      tag_167\n        /* \"#utility.yul\":3534:3536   */\n      0x2c\n        /* \"#utility.yul\":3529:3532   */\n      dup4\n        /* \"#utility.yul\":3470:3537   */\n      tag_154\n      jump\t// in\n    tag_167:\n        /* \"#utility.yul\":3463:3537   */\n      swap2\n      pop\n        /* \"#utility.yul\":3567:3601   */\n      0x45524332303a207472616e7366657220616d6f756e7420657863656564732061\n        /* \"#utility.yul\":3563:3564   */\n      0x00\n        /* \"#utility.yul\":3558:3561   */\n      dup4\n        /* \"#utility.yul\":3554:3565   */\n      add\n        /* \"#utility.yul\":3547:3602   */\n      mstore\n        /* \"#utility.yul\":3633:3647   */\n      0x6c6c6f776564416d6f756e740000000000000000000000000000000000000000\n        /* \"#utility.yul\":3628:3630   */\n      0x20\n        /* \"#utility.yul\":3623:3626   */\n      dup4\n        /* \"#utility.yul\":3619:3631   */\n      add\n        /* \"#utility.yul\":3612:3648   */\n      mstore\n        /* \"#utility.yul\":3674:3676   */\n      0x40\n        /* \"#utility.yul\":3669:3672   */\n      dup3\n        /* \"#utility.yul\":3665:3677   */\n      add\n        /* \"#utility.yul\":3658:3677   */\n      swap1\n      pop\n        /* \"#utility.yul\":3453:3683   */\n      swap2\n      swap1\n      pop\n      jump\t// out\n        /* \"#utility.yul\":3689:4062   */\n    tag_168:\n      0x00\n        /* \"#utility.yul\":3852:3919   */\n      tag_170\n        /* \"#utility.yul\":3916:3918   */\n      0x29\n        /* \"#utility.yul\":3911:3914   */\n      dup4\n        /* \"#utility.yul\":3852:3919   */\n      tag_154\n      jump\t// in\n    tag_170:\n        /* \"#utility.yul\":3845:3919   */\n      swap2\n      pop\n        /* \"#utility.yul\":3949:3983   */\n      0x537572766976616c436f696e3a206275726e20616d6f756e7420657863656564\n        /* \"#utility.yul\":3945:3946   */\n      0x00\n        /* \"#utility.yul\":3940:3943   */\n      dup4\n        /* \"#utility.yul\":3936:3947   */\n      add\n        /* \"#utility.yul\":3929:3984   */\n      mstore\n        /* \"#utility.yul\":4015:4026   */\n      0x732062616c616e63650000000000000000000000000000000000000000000000\n        /* \"#utility.yul\":4010:4012   */\n      0x20\n        /* \"#utility.yul\":4005:4008   */\n      dup4\n        /* \"#utility.yul\":4001:4013   */\n      add\n        /* \"#utility.yul\":3994:4027   */\n      mstore\n        /* \"#utility.yul\":4053:4055   */\n      0x40\n        /* \"#utility.yul\":4048:4051   */\n      dup3\n        /* \"#utility.yul\":4044:4056   */\n      add\n        /* \"#utility.yul\":4037:4056   */\n      swap1\n      pop\n        /* \"#utility.yul\":3835:4062   */\n      swap2\n      swap1\n      pop\n      jump\t// out\n        /* \"#utility.yul\":4068:4437   */\n    tag_171:\n      0x00\n        /* \"#utility.yul\":4231:4298   */\n      tag_173\n        /* \"#utility.yul\":4295:4297   */\n      0x25\n        /* \"#utility.yul\":4290:4293   */\n      dup4\n        /* \"#utility.yul\":4231:4298   */\n      tag_154\n      jump\t// in\n    tag_173:\n        /* \"#utility.yul\":4224:4298   */\n      swap2\n      pop\n        /* \"#utility.yul\":4328:4362   */\n      0x537572766976616c436f696e3a2063616c6c6572206973206e6f742074686520\n        /* \"#utility.yul\":4324:4325   */\n      0x00\n        /* \"#utility.yul\":4319:4322   */\n      dup4\n        /* \"#utility.yul\":4315:4326   */\n      add\n        /* \"#utility.yul\":4308:4363   */\n      mstore\n        /* \"#utility.yul\":4394:4401   */\n      0x61646d696e000000000000000000000000000000000000000000000000000000\n        /* \"#utility.yul\":4389:4391   */\n      0x20\n        /* \"#utility.yul\":4384:4387   */\n      dup4\n        /* \"#utility.yul\":4380:4392   */\n      add\n        /* \"#utility.yul\":4373:4402   */\n      mstore\n        /* \"#utility.yul\":4428:4430   */\n      0x40\n        /* \"#utility.yul\":4423:4426   */\n      dup3\n        /* \"#utility.yul\":4419:4431   */\n      add\n        /* \"#utility.yul\":4412:4431   */\n      swap1\n      pop\n        /* \"#utility.yul\":4214:4437   */\n      swap2\n      swap1\n      pop\n      jump\t// out\n        /* \"#utility.yul\":4443:4815   */\n    tag_174:\n      0x00\n        /* \"#utility.yul\":4606:4673   */\n      tag_176\n        /* \"#utility.yul\":4670:4672   */\n      0x28\n        /* \"#utility.yul\":4665:4668   */\n      dup4\n        /* \"#utility.yul\":4606:4673   */\n      tag_154\n      jump\t// in\n    tag_176:\n        /* \"#utility.yul\":4599:4673   */\n      swap2\n      pop\n        /* \"#utility.yul\":4703:4737   */\n      0x537572766976616c436f696e3a206275726e2066726f6d20746865207a65726f\n        /* \"#utility.yul\":4699:4700   */\n      0x00\n        /* \"#utility.yul\":4694:4697   */\n      dup4\n        /* \"#utility.yul\":4690:4701   */\n      add\n        /* \"#utility.yul\":4683:4738   */\n      mstore\n        /* \"#utility.yul\":4769:4779   */\n      0x2061646472657373000000000000000000000000000000000000000000000000\n        /* \"#utility.yul\":4764:4766   */\n      0x20\n        /* \"#utility.yul\":4759:4762   */\n      dup4\n        /* \"#utility.yul\":4755:4767   */\n      add\n        /* \"#utility.yul\":4748:4780   */\n      mstore\n        /* \"#utility.yul\":4806:4808   */\n      0x40\n        /* \"#utility.yul\":4801:4804   */\n      dup3\n        /* \"#utility.yul\":4797:4809   */\n      add\n        /* \"#utility.yul\":4790:4809   */\n      swap1\n      pop\n        /* \"#utility.yul\":4589:4815   */\n      swap2\n      swap1\n      pop\n      jump\t// out\n        /* \"#utility.yul\":4821:4939   */\n    tag_177:\n        /* \"#utility.yul\":4908:4932   */\n      tag_179\n        /* \"#utility.yul\":4926:4931   */\n      dup2\n        /* \"#utility.yul\":4908:4932   */\n      tag_180\n      jump\t// in\n    tag_179:\n        /* \"#utility.yul\":4903:4906   */\n      dup3\n        /* \"#utility.yul\":4896:4933   */\n      mstore\n        /* \"#utility.yul\":4886:4939   */\n      pop\n      pop\n      jump\t// out\n        /* \"#utility.yul\":4945:5057   */\n    tag_181:\n        /* \"#utility.yul\":5028:5050   */\n      tag_183\n        /* \"#utility.yul\":5044:5049   */\n      dup2\n        /* \"#utility.yul\":5028:5050   */\n      tag_184\n      jump\t// in\n    tag_183:\n        /* \"#utility.yul\":5023:5026   */\n      dup3\n        /* \"#utility.yul\":5016:5051   */\n      mstore\n        /* \"#utility.yul\":5006:5057   */\n      pop\n      pop\n      jump\t// out\n        /* \"#utility.yul\":5063:5285   */\n    tag_61:\n      0x00\n        /* \"#utility.yul\":5194:5196   */\n      0x20\n        /* \"#utility.yul\":5183:5192   */\n      dup3\n        /* \"#utility.yul\":5179:5197   */\n      add\n        /* \"#utility.yul\":5171:5197   */\n      swap1\n      pop\n        /* \"#utility.yul\":5207:5278   */\n      tag_186\n        /* \"#utility.yul\":5275:5276   */\n      0x00\n        /* \"#utility.yul\":5264:5273   */\n      dup4\n        /* \"#utility.yul\":5260:5277   */\n      add\n        /* \"#utility.yul\":5251:5257   */\n      dup5\n        /* \"#utility.yul\":5207:5278   */\n      tag_141\n      jump\t// in\n    tag_186:\n        /* \"#utility.yul\":5161:5285   */\n      swap3\n      swap2\n      pop\n      pop\n      jump\t// out\n        /* \"#utility.yul\":5291:5501   */\n    tag_24:\n      0x00\n        /* \"#utility.yul\":5416:5418   */\n      0x20\n        /* \"#utility.yul\":5405:5414   */\n      dup3\n        /* \"#utility.yul\":5401:5419   */\n      add\n        /* \"#utility.yul\":5393:5419   */\n      swap1\n      pop\n        /* \"#utility.yul\":5429:5494   */\n      tag_188\n        /* \"#utility.yul\":5491:5492   */\n      0x00\n        /* \"#utility.yul\":5480:5489   */\n      dup4\n        /* \"#utility.yul\":5476:5493   */\n      add\n        /* \"#utility.yul\":5467:5473   */\n      dup5\n        /* \"#utility.yul\":5429:5494   */\n      tag_145\n      jump\t// in\n    tag_188:\n        /* \"#utility.yul\":5383:5501   */\n      swap3\n      swap2\n      pop\n      pop\n      jump\t// out\n        /* \"#utility.yul\":5507:5820   */\n    tag_18:\n      0x00\n        /* \"#utility.yul\":5658:5660   */\n      0x20\n        /* \"#utility.yul\":5647:5656   */\n      dup3\n        /* \"#utility.yul\":5643:5661   */\n      add\n        /* \"#utility.yul\":5635:5661   */\n      swap1\n      pop\n        /* \"#utility.yul\":5707:5716   */\n      dup2\n        /* \"#utility.yul\":5701:5705   */\n      dup2\n        /* \"#utility.yul\":5697:5717   */\n      sub\n        /* \"#utility.yul\":5693:5694   */\n      0x00\n        /* \"#utility.yul\":5682:5691   */\n      dup4\n        /* \"#utility.yul\":5678:5695   */\n      add\n        /* \"#utility.yul\":5671:5718   */\n      mstore\n        /* \"#utility.yul\":5735:5813   */\n      tag_190\n        /* \"#utility.yul\":5808:5812   */\n      dup2\n        /* \"#utility.yul\":5799:5805   */\n      dup5\n        /* \"#utility.yul\":5735:5813   */\n      tag_149\n      jump\t// in\n    tag_190:\n        /* \"#utility.yul\":5727:5813   */\n      swap1\n      pop\n        /* \"#utility.yul\":5625:5820   */\n      swap3\n      swap2\n      pop\n      pop\n      jump\t// out\n        /* \"#utility.yul\":5826:6245   */\n    tag_98:\n      0x00\n        /* \"#utility.yul\":6030:6032   */\n      0x20\n        /* \"#utility.yul\":6019:6028   */\n      dup3\n        /* \"#utility.yul\":6015:6033   */\n      add\n        /* \"#utility.yul\":6007:6033   */\n      swap1\n      pop\n        /* \"#utility.yul\":6079:6088   */\n      dup2\n        /* \"#utility.yul\":6073:6077   */\n      dup2\n        /* \"#utility.yul\":6069:6089   */\n      sub\n        /* \"#utility.yul\":6065:6066   */\n      0x00\n        /* \"#utility.yul\":6054:6063   */\n      dup4\n        /* \"#utility.yul\":6050:6067   */\n      add\n        /* \"#utility.yul\":6043:6090   */\n      mstore\n        /* \"#utility.yul\":6107:6238   */\n      tag_192\n        /* \"#utility.yul\":6233:6237   */\n      dup2\n        /* \"#utility.yul\":6107:6238   */\n      tag_159\n      jump\t// in\n    tag_192:\n        /* \"#utility.yul\":6099:6238   */\n      swap1\n      pop\n        /* \"#utility.yul\":5997:6245   */\n      swap2\n      swap1\n      pop\n      jump\t// out\n        /* \"#utility.yul\":6251:6670   */\n    tag_101:\n      0x00\n        /* \"#utility.yul\":6455:6457   */\n      0x20\n        /* \"#utility.yul\":6444:6453   */\n      dup3\n        /* \"#utility.yul\":6440:6458   */\n      add\n        /* \"#utility.yul\":6432:6458   */\n      swap1\n      pop\n        /* \"#utility.yul\":6504:6513   */\n      dup2\n        /* \"#utility.yul\":6498:6502   */\n      dup2\n        /* \"#utility.yul\":6494:6514   */\n      sub\n        /* \"#utility.yul\":6490:6491   */\n      0x00\n        /* \"#utility.yul\":6479:6488   */\n      dup4\n        /* \"#utility.yul\":6475:6492   */\n      add\n        /* \"#utility.yul\":6468:6515   */\n      mstore\n        /* \"#utility.yul\":6532:6663   */\n      tag_194\n        /* \"#utility.yul\":6658:6662   */\n      dup2\n        /* \"#utility.yul\":6532:6663   */\n      tag_162\n      jump\t// in\n    tag_194:\n        /* \"#utility.yul\":6524:6663   */\n      swap1\n      pop\n        /* \"#utility.yul\":6422:6670   */\n      swap2\n      swap1\n      pop\n      jump\t// out\n        /* \"#utility.yul\":6676:7095   */\n    tag_73:\n      0x00\n        /* \"#utility.yul\":6880:6882   */\n      0x20\n        /* \"#utility.yul\":6869:6878   */\n      dup3\n        /* \"#utility.yul\":6865:6883   */\n      add\n        /* \"#utility.yul\":6857:6883   */\n      swap1\n      pop\n        /* \"#utility.yul\":6929:6938   */\n      dup2\n        /* \"#utility.yul\":6923:6927   */\n      dup2\n        /* \"#utility.yul\":6919:6939   */\n      sub\n        /* \"#utility.yul\":6915:6916   */\n      0x00\n        /* \"#utility.yul\":6904:6913   */\n      dup4\n        /* \"#utility.yul\":6900:6917   */\n      add\n        /* \"#utility.yul\":6893:6940   */\n      mstore\n        /* \"#utility.yul\":6957:7088   */\n      tag_196\n        /* \"#utility.yul\":7083:7087   */\n      dup2\n        /* \"#utility.yul\":6957:7088   */\n      tag_165\n      jump\t// in\n    tag_196:\n        /* \"#utility.yul\":6949:7088   */\n      swap1\n      pop\n        /* \"#utility.yul\":6847:7095   */\n      swap2\n      swap1\n      pop\n      jump\t// out\n        /* \"#utility.yul\":7101:7520   */\n    tag_112:\n      0x00\n        /* \"#utility.yul\":7305:7307   */\n      0x20\n        /* \"#utility.yul\":7294:7303   */\n      dup3\n        /* \"#utility.yul\":7290:7308   */\n      add\n        /* \"#utility.yul\":7282:7308   */\n      swap1\n      pop\n        /* \"#utility.yul\":7354:7363   */\n      dup2\n        /* \"#utility.yul\":7348:7352   */\n      dup2\n        /* \"#utility.yul\":7344:7364   */\n      sub\n        /* \"#utility.yul\":7340:7341   */\n      0x00\n        /* \"#utility.yul\":7329:7338   */\n      dup4\n        /* \"#utility.yul\":7325:7342   */\n      add\n        /* \"#utility.yul\":7318:7365   */\n      mstore\n        /* \"#utility.yul\":7382:7513   */\n      tag_198\n        /* \"#utility.yul\":7508:7512   */\n      dup2\n        /* \"#utility.yul\":7382:7513   */\n      tag_168\n      jump\t// in\n    tag_198:\n        /* \"#utility.yul\":7374:7513   */\n      swap1\n      pop\n        /* \"#utility.yul\":7272:7520   */\n      swap2\n      swap1\n      pop\n      jump\t// out\n        /* \"#utility.yul\":7526:7945   */\n    tag_81:\n      0x00\n        /* \"#utility.yul\":7730:7732   */\n      0x20\n        /* \"#utility.yul\":7719:7728   */\n      dup3\n        /* \"#utility.yul\":7715:7733   */\n      add\n        /* \"#utility.yul\":7707:7733   */\n      swap1\n      pop\n        /* \"#utility.yul\":7779:7788   */\n      dup2\n        /* \"#utility.yul\":7773:7777   */\n      dup2\n        /* \"#utility.yul\":7769:7789   */\n      sub\n        /* \"#utility.yul\":7765:7766   */\n      0x00\n        /* \"#utility.yul\":7754:7763   */\n      dup4\n        /* \"#utility.yul\":7750:7767   */\n      add\n        /* \"#utility.yul\":7743:7790   */\n      mstore\n        /* \"#utility.yul\":7807:7938   */\n      tag_200\n        /* \"#utility.yul\":7933:7937   */\n      dup2\n        /* \"#utility.yul\":7807:7938   */\n      tag_171\n      jump\t// in\n    tag_200:\n        /* \"#utility.yul\":7799:7938   */\n      swap1\n      pop\n        /* \"#utility.yul\":7697:7945   */\n      swap2\n      swap1\n      pop\n      jump\t// out\n        /* \"#utility.yul\":7951:8370   */\n    tag_109:\n      0x00\n        /* \"#utility.yul\":8155:8157   */\n      0x20\n        /* \"#utility.yul\":8144:8153   */\n      dup3\n        /* \"#utility.yul\":8140:8158   */\n      add\n        /* \"#utility.yul\":8132:8158   */\n      swap1\n      pop\n        /* \"#utility.yul\":8204:8213   */\n      dup2\n        /* \"#utility.yul\":8198:8202   */\n      dup2\n        /* \"#utility.yul\":8194:8214   */\n      sub\n        /* \"#utility.yul\":8190:8191   */\n      0x00\n        /* \"#utility.yul\":8179:8188   */\n      dup4\n        /* \"#utility.yul\":8175:8192   */\n      add\n        /* \"#utility.yul\":8168:8215   */\n      mstore\n        /* \"#utility.yul\":8232:8363   */\n      tag_202\n        /* \"#utility.yul\":8358:8362   */\n      dup2\n        /* \"#utility.yul\":8232:8363   */\n      tag_174\n      jump\t// in\n    tag_202:\n        /* \"#utility.yul\":8224:8363   */\n      swap1\n      pop\n        /* \"#utility.yul\":8122:8370   */\n      swap2\n      swap1\n      pop\n      jump\t// out\n        /* \"#utility.yul\":8376:8598   */\n    tag_28:\n      0x00\n        /* \"#utility.yul\":8507:8509   */\n      0x20\n        /* \"#utility.yul\":8496:8505   */\n      dup3\n        /* \"#utility.yul\":8492:8510   */\n      add\n        /* \"#utility.yul\":8484:8510   */\n      swap1\n      pop\n        /* \"#utility.yul\":8520:8591   */\n      tag_204\n        /* \"#utility.yul\":8588:8589   */\n      0x00\n        /* \"#utility.yul\":8577:8586   */\n      dup4\n        /* \"#utility.yul\":8573:8590   */\n      add\n        /* \"#utility.yul\":8564:8570   */\n      dup5\n        /* \"#utility.yul\":8520:8591   */\n      tag_177\n      jump\t// in\n    tag_204:\n        /* \"#utility.yul\":8474:8598   */\n      swap3\n      swap2\n      pop\n      pop\n      jump\t// out\n        /* \"#utility.yul\":8604:8818   */\n    tag_37:\n      0x00\n        /* \"#utility.yul\":8731:8733   */\n      0x20\n        /* \"#utility.yul\":8720:8729   */\n      dup3\n        /* \"#utility.yul\":8716:8734   */\n      add\n        /* \"#utility.yul\":8708:8734   */\n      swap1\n      pop\n        /* \"#utility.yul\":8744:8811   */\n      tag_206\n        /* \"#utility.yul\":8808:8809   */\n      0x00\n        /* \"#utility.yul\":8797:8806   */\n      dup4\n        /* \"#utility.yul\":8793:8810   */\n      add\n        /* \"#utility.yul\":8784:8790   */\n      dup5\n        /* \"#utility.yul\":8744:8811   */\n      tag_181\n      jump\t// in\n    tag_206:\n        /* \"#utility.yul\":8698:8818   */\n      swap3\n      swap2\n      pop\n      pop\n      jump\t// out\n        /* \"#utility.yul\":8824:8923   */\n    tag_152:\n      0x00\n        /* \"#utility.yul\":8910:8915   */\n      dup2\n        /* \"#utility.yul\":8904:8916   */\n      mload\n        /* \"#utility.yul\":8894:8916   */\n      swap1\n      pop\n        /* \"#utility.yul\":8883:8923   */\n      swap2\n      swap1\n      pop\n      jump\t// out\n        /* \"#utility.yul\":8929:9098   */\n    tag_154:\n      0x00\n        /* \"#utility.yul\":9047:9053   */\n      dup3\n        /* \"#utility.yul\":9042:9045   */\n      dup3\n        /* \"#utility.yul\":9035:9054   */\n      mstore\n        /* \"#utility.yul\":9087:9091   */\n      0x20\n        /* \"#utility.yul\":9082:9085   */\n      dup3\n        /* \"#utility.yul\":9078:9092   */\n      add\n        /* \"#utility.yul\":9063:9092   */\n      swap1\n      pop\n        /* \"#utility.yul\":9025:9098   */\n      swap3\n      swap2\n      pop\n      pop\n      jump\t// out\n        /* \"#utility.yul\":9104:9409   */\n    tag_104:\n      0x00\n        /* \"#utility.yul\":9163:9183   */\n      tag_210\n        /* \"#utility.yul\":9181:9182   */\n      dup3\n        /* \"#utility.yul\":9163:9183   */\n      tag_180\n      jump\t// in\n    tag_210:\n        /* \"#utility.yul\":9158:9183   */\n      swap2\n      pop\n        /* \"#utility.yul\":9197:9217   */\n      tag_211\n        /* \"#utility.yul\":9215:9216   */\n      dup4\n        /* \"#utility.yul\":9197:9217   */\n      tag_180\n      jump\t// in\n    tag_211:\n        /* \"#utility.yul\":9192:9217   */\n      swap3\n      pop\n        /* \"#utility.yul\":9351:9352   */\n      dup3\n        /* \"#utility.yul\":9283:9349   */\n      0xffffffffffffffffffffffffffffffffffffffffffffffffffffffffffffffff\n        /* \"#utility.yul\":9279:9353   */\n      sub\n        /* \"#utility.yul\":9276:9277   */\n      dup3\n        /* \"#utility.yul\":9273:9354   */\n      gt\n        /* \"#utility.yul\":9270:9272   */\n      iszero\n      tag_212\n      jumpi\n        /* \"#utility.yul\":9357:9375   */\n      tag_213\n      tag_214\n      jump\t// in\n    tag_213:\n        /* \"#utility.yul\":9270:9272   */\n    tag_212:\n        /* \"#utility.yul\":9401:9402   */\n      dup3\n        /* \"#utility.yul\":9398:9399   */\n      dup3\n        /* \"#utility.yul\":9394:9403   */\n      add\n        /* \"#utility.yul\":9387:9403   */\n      swap1\n      pop\n        /* \"#utility.yul\":9148:9409   */\n      swap3\n      swap2\n      pop\n      pop\n      jump\t// out\n        /* \"#utility.yul\":9415:9606   */\n    tag_75:\n      0x00\n        /* \"#utility.yul\":9475:9495   */\n      tag_216\n        /* \"#utility.yul\":9493:9494   */\n      dup3\n        /* \"#utility.yul\":9475:9495   */\n      tag_180\n      jump\t// in\n    tag_216:\n        /* \"#utility.yul\":9470:9495   */\n      swap2\n      pop\n        /* \"#utility.yul\":9509:9529   */\n      tag_217\n        /* \"#utility.yul\":9527:9528   */\n      dup4\n        /* \"#utility.yul\":9509:9529   */\n      tag_180\n      jump\t// in\n    tag_217:\n        /* \"#utility.yul\":9504:9529   */\n      swap3\n      pop\n        /* \"#utility.yul\":9548:9549   */\n      dup3\n        /* \"#utility.yul\":9545:9546   */\n      dup3\n        /* \"#utility.yul\":9542:9550   */\n      lt\n        /* \"#utility.yul\":9539:9541   */\n      iszero\n      tag_218\n      jumpi\n        /* \"#utility.yul\":9553:9571   */\n      tag_219\n      tag_214\n      jump\t// in\n    tag_219:\n        /* \"#utility.yul\":9539:9541   */\n    tag_218:\n        /* \"#utility.yul\":9598:9599   */\n      dup3\n        /* \"#utility.yul\":9595:9596   */\n      dup3\n        /* \"#utility.yul\":9591:9600   */\n      sub\n        /* \"#utility.yul\":9583:9600   */\n      swap1\n      pop\n        /* \"#utility.yul\":9460:9606   */\n      swap3\n      swap2\n      pop\n      pop\n      jump\t// out\n        /* \"#utility.yul\":9612:9708   */\n    tag_144:\n      0x00\n        /* \"#utility.yul\":9678:9702   */\n      tag_221\n        /* \"#utility.yul\":9696:9701   */\n      dup3\n        /* \"#utility.yul\":9678:9702   */\n      tag_222\n      jump\t// in\n    tag_221:\n        /* \"#utility.yul\":9667:9702   */\n      swap1\n      pop\n        /* \"#utility.yul\":9657:9708   */\n      swap2\n      swap1\n      pop\n      jump\t// out\n        /* \"#utility.yul\":9714:9804   */\n    tag_148:\n      0x00\n        /* \"#utility.yul\":9791:9796   */\n      dup2\n        /* \"#utility.yul\":9784:9797   */\n      iszero\n        /* \"#utility.yul\":9777:9798   */\n      iszero\n        /* \"#utility.yul\":9766:9798   */\n      swap1\n      pop\n        /* \"#utility.yul\":9756:9804   */\n      swap2\n      swap1\n      pop\n      jump\t// out\n        /* \"#utility.yul\":9810:9936   */\n    tag_222:\n      0x00\n        /* \"#utility.yul\":9887:9929   */\n      0xffffffffffffffffffffffffffffffffffffffff\n        /* \"#utility.yul\":9880:9885   */\n      dup3\n        /* \"#utility.yul\":9876:9930   */\n      and\n        /* \"#utility.yul\":9865:9930   */\n      swap1\n      pop\n        /* \"#utility.yul\":9855:9936   */\n      swap2\n      swap1\n      pop\n      jump\t// out\n        /* \"#utility.yul\":9942:10019   */\n    tag_180:\n      0x00\n        /* \"#utility.yul\":10008:10013   */\n      dup2\n        /* \"#utility.yul\":9997:10013   */\n      swap1\n      pop\n        /* \"#utility.yul\":9987:10019   */\n      swap2\n      swap1\n      pop\n      jump\t// out\n        /* \"#utility.yul\":10025:10111   */\n    tag_184:\n      0x00\n        /* \"#utility.yul\":10100:10104   */\n      0xff\n        /* \"#utility.yul\":10093:10098   */\n      dup3\n        /* \"#utility.yul\":10089:10105   */\n      and\n        /* \"#utility.yul\":10078:10105   */\n      swap1\n      pop\n        /* \"#utility.yul\":10068:10111   */\n      swap2\n      swap1\n      pop\n      jump\t// out\n        /* \"#utility.yul\":10117:10424   */\n    tag_156:\n        /* \"#utility.yul\":10185:10186   */\n      0x00\n        /* \"#utility.yul\":10195:10308   */\n    tag_228:\n        /* \"#utility.yul\":10209:10215   */\n      dup4\n        /* \"#utility.yul\":10206:10207   */\n      dup2\n        /* \"#utility.yul\":10203:10216   */\n      lt\n        /* \"#utility.yul\":10195:10308   */\n      iszero\n      tag_230\n      jumpi\n        /* \"#utility.yul\":10294:10295   */\n      dup1\n        /* \"#utility.yul\":10289:10292   */\n      dup3\n        /* \"#utility.yul\":10285:10296   */\n      add\n        /* \"#utility.yul\":10279:10297   */\n      mload\n        /* \"#utility.yul\":10275:10276   */\n      dup2\n        /* \"#utility.yul\":10270:10273   */\n      dup5\n        /* \"#utility.yul\":10266:10277   */\n      add\n        /* \"#utility.yul\":10259:10298   */\n      mstore\n        /* \"#utility.yul\":10231:10233   */\n      0x20\n        /* \"#utility.yul\":10228:10229   */\n      dup2\n        /* \"#utility.yul\":10224:10234   */\n      add\n        /* \"#utility.yul\":10219:10234   */\n      swap1\n      pop\n        /* \"#utility.yul\":10195:10308   */\n      jump(tag_228)\n    tag_230:\n        /* \"#utility.yul\":10326:10332   */\n      dup4\n        /* \"#utility.yul\":10323:10324   */\n      dup2\n        /* \"#utility.yul\":10320:10333   */\n      gt\n        /* \"#utility.yul\":10317:10319   */\n      iszero\n      tag_231\n      jumpi\n        /* \"#utility.yul\":10406:10407   */\n      0x00\n        /* \"#utility.yul\":10397:10403   */\n      dup5\n        /* \"#utility.yul\":10392:10395   */\n      dup5\n        /* \"#utility.yul\":10388:10404   */\n      add\n        /* \"#utility.yul\":10381:10408   */\n      mstore\n        /* \"#utility.yul\":10317:10319   */\n    tag_231:\n        /* \"#utility.yul\":10166:10424   */\n      pop\n      pop\n      pop\n      pop\n      jump\t// out\n        /* \"#utility.yul\":10430:10750   */\n    tag_63:\n      0x00\n        /* \"#utility.yul\":10511:10512   */\n      0x02\n        /* \"#utility.yul\":10505:10509   */\n      dup3\n        /* \"#utility.yul\":10501:10513   */\n      div\n        /* \"#utility.yul\":10491:10513   */\n      swap1\n      pop\n        /* \"#utility.yul\":10558:10559   */\n      0x01\n        /* \"#utility.yul\":10552:10556   */\n      dup3\n        /* \"#utility.yul\":10548:10560   */\n      and\n        /* \"#utility.yul\":10579:10597   */\n      dup1\n        /* \"#utility.yul\":10569:10571   */\n      tag_233\n      jumpi\n        /* \"#utility.yul\":10635:10639   */\n      0x7f\n        /* \"#utility.yul\":10627:10633   */\n      dup3\n        /* \"#utility.yul\":10623:10640   */\n      and\n        /* \"#utility.yul\":10613:10640   */\n      swap2\n      pop\n        /* \"#utility.yul\":10569:10571   */\n    tag_233:\n        /* \"#utility.yul\":10697:10699   */\n      0x20\n        /* \"#utility.yul\":10689:10695   */\n      dup3\n        /* \"#utility.yul\":10686:10700   */\n      lt\n        /* \"#utility.yul\":10666:10684   */\n      dup2\n        /* \"#utility.yul\":10663:10701   */\n      eq\n        /* \"#utility.yul\":10660:10662   */\n      iszero\n      tag_234\n      jumpi\n        /* \"#utility.yul\":10716:10734   */\n      tag_235\n      tag_236\n      jump\t// in\n    tag_235:\n        /* \"#utility.yul\":10660:10662   */\n    tag_234:\n        /* \"#utility.yul\":10481:10750   */\n      pop\n      swap2\n      swap1\n      pop\n      jump\t// out\n        /* \"#utility.yul\":10756:10936   */\n    tag_214:\n        /* \"#utility.yul\":10804:10881   */\n      0x4e487b7100000000000000000000000000000000000000000000000000000000\n        /* \"#utility.yul\":10801:10802   */\n      0x00\n        /* \"#utility.yul\":10794:10882   */\n      mstore\n        /* \"#utility.yul\":10901:10905   */\n      0x11\n        /* \"#utility.yul\":10898:10899   */\n      0x04\n        /* \"#utility.yul\":10891:10906   */\n      mstore\n        /* \"#utility.yul\":10925:10929   */\n      0x24\n        /* \"#utility.yul\":10922:10923   */\n      0x00\n        /* \"#utility.yul\":10915:10930   */\n      revert\n        /* \"#utility.yul\":10942:11122   */\n    tag_236:\n        /* \"#utility.yul\":10990:11067   */\n      0x4e487b7100000000000000000000000000000000000000000000000000000000\n        /* \"#utility.yul\":10987:10988   */\n      0x00\n        /* \"#utility.yul\":10980:11068   */\n      mstore\n        /* \"#utility.yul\":11087:11091   */\n      0x22\n        /* \"#utility.yul\":11084:11085   */\n      0x04\n        /* \"#utility.yul\":11077:11092   */\n      mstore\n        /* \"#utility.yul\":11111:11115   */\n      0x24\n        /* \"#utility.yul\":11108:11109   */\n      0x00\n        /* \"#utility.yul\":11101:11116   */\n      revert\n        /* \"#utility.yul\":11128:11230   */\n    tag_158:\n      0x00\n        /* \"#utility.yul\":11220:11222   */\n      0x1f\n        /* \"#utility.yul\":11216:11223   */\n      not\n        /* \"#utility.yul\":11211:11213   */\n      0x1f\n        /* \"#utility.yul\":11204:11209   */\n      dup4\n        /* \"#utility.yul\":11200:11214   */\n      add\n        /* \"#utility.yul\":11196:11224   */\n      and\n        /* \"#utility.yul\":11186:11224   */\n      swap1\n      pop\n        /* \"#utility.yul\":11176:11230   */\n      swap2\n      swap1\n      pop\n      jump\t// out\n        /* \"#utility.yul\":11236:11358   */\n    tag_120:\n        /* \"#utility.yul\":11309:11333   */\n      tag_241\n        /* \"#utility.yul\":11327:11332   */\n      dup2\n        /* \"#utility.yul\":11309:11333   */\n      tag_144\n      jump\t// in\n    tag_241:\n        /* \"#utility.yul\":11302:11307   */\n      dup2\n        /* \"#utility.yul\":11299:11334   */\n      eq\n        /* \"#utility.yul\":11289:11291   */\n      tag_242\n      jumpi\n        /* \"#utility.yul\":11348:11349   */\n      0x00\n        /* \"#utility.yul\":11345:11346   */\n      dup1\n        /* \"#utility.yul\":11338:11350   */\n      revert\n        /* \"#utility.yul\":11289:11291   */\n    tag_242:\n        /* \"#utility.yul\":11279:11358   */\n      pop\n      jump\t// out\n        /* \"#utility.yul\":11364:11486   */\n    tag_124:\n        /* \"#utility.yul\":11437:11461   */\n      tag_244\n        /* \"#utility.yul\":11455:11460   */\n      dup2\n        /* \"#utility.yul\":11437:11461   */\n      tag_180\n      jump\t// in\n    tag_244:\n        /* \"#utility.yul\":11430:11435   */\n      dup2\n        /* \"#utility.yul\":11427:11462   */\n      eq\n        /* \"#utility.yul\":11417:11419   */\n      tag_245\n      jumpi\n        /* \"#utility.yul\":11476:11477   */\n      0x00\n        /* \"#utility.yul\":11473:11474   */\n      dup1\n        /* \"#utility.yul\":11466:11478   */\n      revert\n        /* \"#utility.yul\":11417:11419   */\n    tag_245:\n        /* \"#utility.yul\":11407:11486   */\n      pop\n      jump\t// out\n\n    auxdata: 0xa26469706673582212206bcb939f9c8e6b51aff5ae40a0670c5c6d9d572137b5127b369110a50880784564736f6c63430008000033\n}\n",
				"bytecode": {
					"linkReferences": {},
					"object": "60806040523480156200001157600080fd5b50604051620018cd380380620018cd833981810160405281019062000037919062000289565b6040518060400160405280600c81526020017f537572766976616c436f696e00000000000000000000000000000000000000008152506040518060400160405280600481526020017f53564332000000000000000000000000000000000000000000000000000000008152506000838360009080519060200190620000be929190620001ab565b508260019080519060200190620000d7929190620001ab565b5081600260006101000a81548160ff021916908360ff1602179055508160ff16600a62000105919062000325565b8162000112919062000462565b600381905550600354600460003373ffffffffffffffffffffffffffffffffffffffff1673ffffffffffffffffffffffffffffffffffffffff168152602001908152602001600020819055505050505081600660006101000a81548173ffffffffffffffffffffffffffffffffffffffff021916908373ffffffffffffffffffffffffffffffffffffffff1602179055505050620005d6565b828054620001b99062000501565b90600052602060002090601f016020900481019282620001dd576000855562000229565b82601f10620001f857805160ff191683800117855562000229565b8280016001018555821562000229579182015b82811115620002285782518255916020019190600101906200020b565b5b5090506200023891906200023c565b5090565b5b80821115620002575760008160009055506001016200023d565b5090565b6000815190506200026c81620005a2565b92915050565b6000815190506200028381620005bc565b92915050565b600080604083850312156200029d57600080fd5b6000620002ad858286016200025b565b9250506020620002c08582860162000272565b9150509250929050565b6000808291508390505b60018511156200031c57808604811115620002f457620002f362000537565b5b6001851615620003045780820291505b8081029050620003148562000595565b9450620002d4565b94509492505050565b60006200033282620004f7565b91506200033f83620004f7565b92506200036e7fffffffffffffffffffffffffffffffffffffffffffffffffffffffffffffffff848462000376565b905092915050565b6000826200038857600190506200045b565b816200039857600090506200045b565b8160018114620003b15760028114620003bc57620003f2565b60019150506200045b565b60ff841115620003d157620003d062000537565b5b8360020a915084821115620003eb57620003ea62000537565b5b506200045b565b5060208310610133831016604e8410600b84101617156200042c5782820a90508381111562000426576200042562000537565b5b6200045b565b6200043b8484846001620002ca565b9250905081840481111562000455576200045462000537565b5b81810290505b9392505050565b60006200046f82620004f7565b91506200047c83620004f7565b9250817fffffffffffffffffffffffffffffffffffffffffffffffffffffffffffffffff0483118215151615620004b857620004b762000537565b5b828202905092915050565b6000620004d082620004d7565b9050919050565b600073ffffffffffffffffffffffffffffffffffffffff82169050919050565b6000819050919050565b600060028204905060018216806200051a57607f821691505b6020821081141562000531576200053062000566565b5b50919050565b7f4e487b7100000000000000000000000000000000000000000000000000000000600052601160045260246000fd5b7f4e487b7100000000000000000000000000000000000000000000000000000000600052602260045260246000fd5b60008160011c9050919050565b620005ad81620004c3565b8114620005b957600080fd5b50565b620005c781620004f7565b8114620005d357600080fd5b50565b6112e780620005e66000396000f3fe608060405234801561001057600080fd5b50600436106100a95760003560e01c806344df8e701161007157806344df8e701461016857806370a082311461018657806395d89b41146101b6578063a9059cbb146101d4578063dd62ed3e14610204578063f851a44014610234576100a9565b806306fdde03146100ae578063095ea7b3146100cc57806318160ddd146100fc57806323b872dd1461011a578063313ce5671461014a575b600080fd5b6100b6610252565b6040516100c39190610f9c565b60405180910390f35b6100e660048036038101906100e19190610c51565b6102e0565b6040516100f39190610f81565b60405180910390f35b6101046103d2565b604051610111919061107e565b60405180910390f35b610134600480360381019061012f9190610c02565b6103d8565b6040516101419190610f81565b60405180910390f35b610152610547565b60405161015f9190611099565b60405180910390f35b61017061055a565b60405161017d9190610f81565b60405180910390f35b6101a0600480360381019061019b9190610b9d565b610605565b6040516101ad919061107e565b60405180910390f35b6101be61064e565b6040516101cb9190610f9c565b60405180910390f35b6101ee60048036038101906101e99190610c51565b6106dc565b6040516101fb9190610f81565b60405180910390f35b61021e60048036038101906102199190610bc6565b6106f3565b60405161022b919061107e565b60405180910390f35b61023c61077a565b6040516102499190610f66565b60405180910390f35b6000805461025f906111e2565b80601f016020809104026020016040519081016040528092919081815260200182805461028b906111e2565b80156102d85780601f106102ad576101008083540402835291602001916102d8565b820191906000526020600020905b8154815290600101906020018083116102bb57829003601f168201915b505050505081565b600081600560003373ffffffffffffffffffffffffffffffffffffffff1673ffffffffffffffffffffffffffffffffffffffff16815260200190815260200160002060008573ffffffffffffffffffffffffffffffffffffffff1673ffffffffffffffffffffffffffffffffffffffff168152602001908152602001600020819055508273ffffffffffffffffffffffffffffffffffffffff163373ffffffffffffffffffffffffffffffffffffffff167f8c5be1e5ebec7d5bd14f71427d1e84f3dd0314c0f7b2291e5b200ac8c7c3b925846040516103c0919061107e565b60405180910390a36001905092915050565b60035481565b600080600560008673ffffffffffffffffffffffffffffffffffffffff1673ffffffffffffffffffffffffffffffffffffffff16815260200190815260200160002060003373ffffffffffffffffffffffffffffffffffffffff1673ffffffffffffffffffffffffffffffffffffffff1681526020019081526020016000205490508281101561049d576040517f08c379a000000000000000000000000000000000000000000000000000000000815260040161049490610ffe565b60405180910390fd5b82600560008773ffffffffffffffffffffffffffffffffffffffff1673ffffffffffffffffffffffffffffffffffffffff16815260200190815260200160002060003373ffffffffffffffffffffffffffffffffffffffff1673ffffffffffffffffffffffffffffffffffffffff16815260200190815260200160002060008282546105299190611126565b9250508190555061053b8585856107a0565b60019150509392505050565b600260009054906101000a900460ff1681565b6000600660009054906101000a900473ffffffffffffffffffffffffffffffffffffffff1673ffffffffffffffffffffffffffffffffffffffff163373ffffffffffffffffffffffffffffffffffffffff16146105ec576040517f08c379a00000000000000000000000000000000000000000000000000000000081526004016105e39061103e565b60405180910390fd5b6105fe336105f933610605565b6109a8565b6001905090565b6000600460008373ffffffffffffffffffffffffffffffffffffffff1673ffffffffffffffffffffffffffffffffffffffff168152602001908152602001600020549050919050565b6001805461065b906111e2565b80601f0160208091040260200160405190810160405280929190818152602001828054610687906111e2565b80156106d45780601f106106a9576101008083540402835291602001916106d4565b820191906000526020600020905b8154815290600101906020018083116106b757829003601f168201915b505050505081565b60006106e93384846107a0565b6001905092915050565b6000600560008473ffffffffffffffffffffffffffffffffffffffff1673ffffffffffffffffffffffffffffffffffffffff16815260200190815260200160002060008373ffffffffffffffffffffffffffffffffffffffff1673ffffffffffffffffffffffffffffffffffffffff16815260200190815260200160002054905092915050565b600660009054906101000a900473ffffffffffffffffffffffffffffffffffffffff1681565b600073ffffffffffffffffffffffffffffffffffffffff168273ffffffffffffffffffffffffffffffffffffffff161415610810576040517f08c379a000000000000000000000000000000000000000000000000000000000815260040161080790610fbe565b60405180910390fd5b80600460008573ffffffffffffffffffffffffffffffffffffffff1673ffffffffffffffffffffffffffffffffffffffff168152602001908152602001600020541015610892576040517f08c379a000000000000000000000000000000000000000000000000000000000815260040161088990610fde565b60405180910390fd5b80600460008573ffffffffffffffffffffffffffffffffffffffff1673ffffffffffffffffffffffffffffffffffffffff16815260200190815260200160002060008282546108e19190611126565b9250508190555080600460008473ffffffffffffffffffffffffffffffffffffffff1673ffffffffffffffffffffffffffffffffffffffff168152602001908152602001600020600082825461093791906110d0565b925050819055508173ffffffffffffffffffffffffffffffffffffffff168373ffffffffffffffffffffffffffffffffffffffff167fddf252ad1be2c89b69c2b068fc378daa952ba7f163c4a11628f55a4df523b3ef8360405161099b919061107e565b60405180910390a3505050565b600073ffffffffffffffffffffffffffffffffffffffff168273ffffffffffffffffffffffffffffffffffffffff161415610a18576040517f08c379a0000000000000000000000000000000000000000000000000000000008152600401610a0f9061105e565b60405180910390fd5b80600460008473ffffffffffffffffffffffffffffffffffffffff1673ffffffffffffffffffffffffffffffffffffffff168152602001908152602001600020541015610a9a576040517f08c379a0000000000000000000000000000000000000000000000000000000008152600401610a919061101e565b60405180910390fd5b80600460008473ffffffffffffffffffffffffffffffffffffffff1673ffffffffffffffffffffffffffffffffffffffff1681526020019081526020016000206000828254610ae99190611126565b925050819055508060036000828254610b029190611126565b92505081905550600073ffffffffffffffffffffffffffffffffffffffff168273ffffffffffffffffffffffffffffffffffffffff167fddf252ad1be2c89b69c2b068fc378daa952ba7f163c4a11628f55a4df523b3ef83604051610b67919061107e565b60405180910390a35050565b600081359050610b8281611283565b92915050565b600081359050610b978161129a565b92915050565b600060208284031215610baf57600080fd5b6000610bbd84828501610b73565b91505092915050565b60008060408385031215610bd957600080fd5b6000610be785828601610b73565b9250506020610bf885828601610b73565b9150509250929050565b600080600060608486031215610c1757600080fd5b6000610c2586828701610b73565b9350506020610c3686828701610b73565b9250506040610c4786828701610b88565b9150509250925092565b60008060408385031215610c6457600080fd5b6000610c7285828601610b73565b9250506020610c8385828601610b88565b9150509250929050565b610c968161115a565b82525050565b610ca58161116c565b82525050565b6000610cb6826110b4565b610cc081856110bf565b9350610cd08185602086016111af565b610cd981611272565b840191505092915050565b6000610cf16023836110bf565b91507f45524332303a207472616e7366657220746f20746865207a65726f206164647260008301527f65737300000000000000000000000000000000000000000000000000000000006020830152604082019050919050565b6000610d576026836110bf565b91507f45524332303a207472616e7366657220616d6f756e742065786365656473206260008301527f616c616e636500000000000000000000000000000000000000000000000000006020830152604082019050919050565b6000610dbd602c836110bf565b91507f45524332303a207472616e7366657220616d6f756e742065786365656473206160008301527f6c6c6f776564416d6f756e7400000000000000000000000000000000000000006020830152604082019050919050565b6000610e236029836110bf565b91507f537572766976616c436f696e3a206275726e20616d6f756e742065786365656460008301527f732062616c616e636500000000000000000000000000000000000000000000006020830152604082019050919050565b6000610e896025836110bf565b91507f537572766976616c436f696e3a2063616c6c6572206973206e6f74207468652060008301527f61646d696e0000000000000000000000000000000000000000000000000000006020830152604082019050919050565b6000610eef6028836110bf565b91507f537572766976616c436f696e3a206275726e2066726f6d20746865207a65726f60008301527f20616464726573730000000000000000000000000000000000000000000000006020830152604082019050919050565b610f5181611198565b82525050565b610f60816111a2565b82525050565b6000602082019050610f7b6000830184610c8d565b92915050565b6000602082019050610f966000830184610c9c565b92915050565b60006020820190508181036000830152610fb68184610cab565b905092915050565b60006020820190508181036000830152610fd781610ce4565b9050919050565b60006020820190508181036000830152610ff781610d4a565b9050919050565b6000602082019050818103600083015261101781610db0565b9050919050565b6000602082019050818103600083015261103781610e16565b9050919050565b6000602082019050818103600083015261105781610e7c565b9050919050565b6000602082019050818103600083015261107781610ee2565b9050919050565b60006020820190506110936000830184610f48565b92915050565b60006020820190506110ae6000830184610f57565b92915050565b600081519050919050565b600082825260208201905092915050565b60006110db82611198565b91506110e683611198565b9250827fffffffffffffffffffffffffffffffffffffffffffffffffffffffffffffffff0382111561111b5761111a611214565b5b828201905092915050565b600061113182611198565b915061113c83611198565b92508282101561114f5761114e611214565b5b828203905092915050565b600061116582611178565b9050919050565b60008115159050919050565b600073ffffffffffffffffffffffffffffffffffffffff82169050919050565b6000819050919050565b600060ff82169050919050565b60005b838110156111cd5780820151818401526020810190506111b2565b838111156111dc576000848401525b50505050565b600060028204905060018216806111fa57607f821691505b6020821081141561120e5761120d611243565b5b50919050565b7f4e487b7100000000000000000000000000000000000000000000000000000000600052601160045260246000fd5b7f4e487b7100000000000000000000000000000000000000000000000000000000600052602260045260246000fd5b6000601f19601f8301169050919050565b61128c8161115a565b811461129757600080fd5b50565b6112a381611198565b81146112ae57600080fd5b5056fea26469706673582212206bcb939f9c8e6b51aff5ae40a0670c5c6d9d572137b5127b369110a50880784564736f6c63430008000033",
					"opcodes": "PUSH1 0x80 PUSH1 0x40 MSTORE CALLVALUE DUP1 ISZERO PUSH3 0x11 JUMPI PUSH1 0x0 DUP1 REVERT JUMPDEST POP PUSH1 0x40 MLOAD PUSH3 0x18CD CODESIZE SUB DUP1 PUSH3 0x18CD DUP4 CODECOPY DUP2 DUP2 ADD PUSH1 0x40 MSTORE DUP2 ADD SWAP1 PUSH3 0x37 SWAP2 SWAP1 PUSH3 0x289 JUMP JUMPDEST PUSH1 0x40 MLOAD DUP1 PUSH1 0x40 ADD PUSH1 0x40 MSTORE DUP1 PUSH1 0xC DUP2 MSTORE PUSH1 0x20 ADD PUSH32 0x537572766976616C436F696E0000000000000000000000000000000000000000 DUP2 MSTORE POP PUSH1 0x40 MLOAD DUP1 PUSH1 0x40 ADD PUSH1 0x40 MSTORE DUP1 PUSH1 0x4 DUP2 MSTORE PUSH1 0x20 ADD PUSH32 0x5356433200000000000000000000000000000000000000000000000000000000 DUP2 MSTORE POP PUSH1 0x0 DUP4 DUP4 PUSH1 0x0 SWAP1 DUP1 MLOAD SWAP1 PUSH1 0x20 ADD SWAP1 PUSH3 0xBE SWAP3 SWAP2 SWAP1 PUSH3 0x1AB JUMP JUMPDEST POP DUP3 PUSH1 0x1 SWAP1 DUP1 MLOAD SWAP1 PUSH1 0x20 ADD SWAP1 PUSH3 0xD7 SWAP3 SWAP2 SWAP1 PUSH3 0x1AB JUMP JUMPDEST POP DUP2 PUSH1 0x2 PUSH1 0x0 PUSH2 0x100 EXP DUP2 SLOAD DUP2 PUSH1 0xFF MUL NOT AND SWAP1 DUP4 PUSH1 0xFF AND MUL OR SWAP1 SSTORE POP DUP2 PUSH1 0xFF AND PUSH1 0xA PUSH3 0x105 SWAP2 SWAP1 PUSH3 0x325 JUMP JUMPDEST DUP2 PUSH3 0x112 SWAP2 SWAP1 PUSH3 0x462 JUMP JUMPDEST PUSH1 0x3 DUP2 SWAP1 SSTORE POP PUSH1 0x3 SLOAD PUSH1 0x4 PUSH1 0x0 CALLER PUSH20 0xFFFFFFFFFFFFFFFFFFFFFFFFFFFFFFFFFFFFFFFF AND PUSH20 0xFFFFFFFFFFFFFFFFFFFFFFFFFFFFFFFFFFFFFFFF AND DUP2 MSTORE PUSH1 0x20 ADD SWAP1 DUP2 MSTORE PUSH1 0x20 ADD PUSH1 0x0 KECCAK256 DUP2 SWAP1 SSTORE POP POP POP POP POP DUP2 PUSH1 0x6 PUSH1 0x0 PUSH2 0x100 EXP DUP2 SLOAD DUP2 PUSH20 0xFFFFFFFFFFFFFFFFFFFFFFFFFFFFFFFFFFFFFFFF MUL NOT AND SWAP1 DUP4 PUSH20 0xFFFFFFFFFFFFFFFFFFFFFFFFFFFFFFFFFFFFFFFF AND MUL OR SWAP1 SSTORE POP POP POP PUSH3 0x5D6 JUMP JUMPDEST DUP3 DUP1 SLOAD PUSH3 0x1B9 SWAP1 PUSH3 0x501 JUMP JUMPDEST SWAP1 PUSH1 0x0 MSTORE PUSH1 0x20 PUSH1 0x0 KECCAK256 SWAP1 PUSH1 0x1F ADD PUSH1 0x20 SWAP1 DIV DUP2 ADD SWAP3 DUP3 PUSH3 0x1DD JUMPI PUSH1 0x0 DUP6 SSTORE PUSH3 0x229 JUMP JUMPDEST DUP3 PUSH1 0x1F LT PUSH3 0x1F8 JUMPI DUP1 MLOAD PUSH1 0xFF NOT AND DUP4 DUP1 ADD OR DUP6 SSTORE PUSH3 0x229 JUMP JUMPDEST DUP3 DUP1 ADD PUSH1 0x1 ADD DUP6 SSTORE DUP3 ISZERO PUSH3 0x229 JUMPI SWAP2 DUP3 ADD JUMPDEST DUP3 DUP2 GT ISZERO PUSH3 0x228 JUMPI DUP3 MLOAD DUP3 SSTORE SWAP2 PUSH1 0x20 ADD SWAP2 SWAP1 PUSH1 0x1 ADD SWAP1 PUSH3 0x20B JUMP JUMPDEST JUMPDEST POP SWAP1 POP PUSH3 0x238 SWAP2 SWAP1 PUSH3 0x23C JUMP JUMPDEST POP SWAP1 JUMP JUMPDEST JUMPDEST DUP1 DUP3 GT ISZERO PUSH3 0x257 JUMPI PUSH1 0x0 DUP2 PUSH1 0x0 SWAP1 SSTORE POP PUSH1 0x1 ADD PUSH3 0x23D JUMP JUMPDEST POP SWAP1 JUMP JUMPDEST PUSH1 0x0 DUP2 MLOAD SWAP1 POP PUSH3 0x26C DUP2 PUSH3 0x5A2 JUMP JUMPDEST SWAP3 SWAP2 POP POP JUMP JUMPDEST PUSH1 0x0 DUP2 MLOAD SWAP1 POP PUSH3 0x283 DUP2 PUSH3 0x5BC JUMP JUMPDEST SWAP3 SWAP2 POP POP JUMP JUMPDEST PUSH1 0x0 DUP1 PUSH1 0x40 DUP4 DUP6 SUB SLT ISZERO PUSH3 0x29D JUMPI PUSH1 0x0 DUP1 REVERT JUMPDEST PUSH1 0x0 PUSH3 0x2AD DUP6 DUP3 DUP7 ADD PUSH3 0x25B JUMP JUMPDEST SWAP3 POP POP PUSH1 0x20 PUSH3 0x2C0 DUP6 DUP3 DUP7 ADD PUSH3 0x272 JUMP JUMPDEST SWAP2 POP POP SWAP3 POP SWAP3 SWAP1 POP JUMP JUMPDEST PUSH1 0x0 DUP1 DUP3 SWAP2 POP DUP4 SWAP1 POP JUMPDEST PUSH1 0x1 DUP6 GT ISZERO PUSH3 0x31C JUMPI DUP1 DUP7 DIV DUP2 GT ISZERO PUSH3 0x2F4 JUMPI PUSH3 0x2F3 PUSH3 0x537 JUMP JUMPDEST JUMPDEST PUSH1 0x1 DUP6 AND ISZERO PUSH3 0x304 JUMPI DUP1 DUP3 MUL SWAP2 POP JUMPDEST DUP1 DUP2 MUL SWAP1 POP PUSH3 0x314 DUP6 PUSH3 0x595 JUMP JUMPDEST SWAP5 POP PUSH3 0x2D4 JUMP JUMPDEST SWAP5 POP SWAP5 SWAP3 POP POP POP JUMP JUMPDEST PUSH1 0x0 PUSH3 0x332 DUP3 PUSH3 0x4F7 JUMP JUMPDEST SWAP2 POP PUSH3 0x33F DUP4 PUSH3 0x4F7 JUMP JUMPDEST SWAP3 POP PUSH3 0x36E PUSH32 0xFFFFFFFFFFFFFFFFFFFFFFFFFFFFFFFFFFFFFFFFFFFFFFFFFFFFFFFFFFFFFFFF DUP5 DUP5 PUSH3 0x376 JUMP JUMPDEST SWAP1 POP SWAP3 SWAP2 POP POP JUMP JUMPDEST PUSH1 0x0 DUP3 PUSH3 0x388 JUMPI PUSH1 0x1 SWAP1 POP PUSH3 0x45B JUMP JUMPDEST DUP2 PUSH3 0x398 JUMPI PUSH1 0x0 SWAP1 POP PUSH3 0x45B JUMP JUMPDEST DUP2 PUSH1 0x1 DUP2 EQ PUSH3 0x3B1 JUMPI PUSH1 0x2 DUP2 EQ PUSH3 0x3BC JUMPI PUSH3 0x3F2 JUMP JUMPDEST PUSH1 0x1 SWAP2 POP POP PUSH3 0x45B JUMP JUMPDEST PUSH1 0xFF DUP5 GT ISZERO PUSH3 0x3D1 JUMPI PUSH3 0x3D0 PUSH3 0x537 JUMP JUMPDEST JUMPDEST DUP4 PUSH1 0x2 EXP SWAP2 POP DUP5 DUP3 GT ISZERO PUSH3 0x3EB JUMPI PUSH3 0x3EA PUSH3 0x537 JUMP JUMPDEST JUMPDEST POP PUSH3 0x45B JUMP JUMPDEST POP PUSH1 0x20 DUP4 LT PUSH2 0x133 DUP4 LT AND PUSH1 0x4E DUP5 LT PUSH1 0xB DUP5 LT AND OR ISZERO PUSH3 0x42C JUMPI DUP3 DUP3 EXP SWAP1 POP DUP4 DUP2 GT ISZERO PUSH3 0x426 JUMPI PUSH3 0x425 PUSH3 0x537 JUMP JUMPDEST JUMPDEST PUSH3 0x45B JUMP JUMPDEST PUSH3 0x43B DUP5 DUP5 DUP5 PUSH1 0x1 PUSH3 0x2CA JUMP JUMPDEST SWAP3 POP SWAP1 POP DUP2 DUP5 DIV DUP2 GT ISZERO PUSH3 0x455 JUMPI PUSH3 0x454 PUSH3 0x537 JUMP JUMPDEST JUMPDEST DUP2 DUP2 MUL SWAP1 POP JUMPDEST SWAP4 SWAP3 POP POP POP JUMP JUMPDEST PUSH1 0x0 PUSH3 0x46F DUP3 PUSH3 0x4F7 JUMP JUMPDEST SWAP2 POP PUSH3 0x47C DUP4 PUSH3 0x4F7 JUMP JUMPDEST SWAP3 POP DUP2 PUSH32 0xFFFFFFFFFFFFFFFFFFFFFFFFFFFFFFFFFFFFFFFFFFFFFFFFFFFFFFFFFFFFFFFF DIV DUP4 GT DUP3 ISZERO ISZERO AND ISZERO PUSH3 0x4B8 JUMPI PUSH3 0x4B7 PUSH3 0x537 JUMP JUMPDEST JUMPDEST DUP3 DUP3 MUL SWAP1 POP SWAP3 SWAP2 POP POP JUMP JUMPDEST PUSH1 0x0 PUSH3 0x4D0 DUP3 PUSH3 0x4D7 JUMP JUMPDEST SWAP1 POP SWAP2 SWAP1 POP JUMP JUMPDEST PUSH1 0x0 PUSH20 0xFFFFFFFFFFFFFFFFFFFFFFFFFFFFFFFFFFFFFFFF DUP3 AND SWAP1 POP SWAP2 SWAP1 POP JUMP JUMPDEST PUSH1 0x0 DUP2 SWAP1 POP SWAP2 SWAP1 POP JUMP JUMPDEST PUSH1 0x0 PUSH1 0x2 DUP3 DIV SWAP1 POP PUSH1 0x1 DUP3 AND DUP1 PUSH3 0x51A JUMPI PUSH1 0x7F DUP3 AND SWAP2 POP JUMPDEST PUSH1 0x20 DUP3 LT DUP2 EQ ISZERO PUSH3 0x531 JUMPI PUSH3 0x530 PUSH3 0x566 JUMP JUMPDEST JUMPDEST POP SWAP2 SWAP1 POP JUMP JUMPDEST PUSH32 0x4E487B7100000000000000000000000000000000000000000000000000000000 PUSH1 0x0 MSTORE PUSH1 0x11 PUSH1 0x4 MSTORE PUSH1 0x24 PUSH1 0x0 REVERT JUMPDEST PUSH32 0x4E487B7100000000000000000000000000000000000000000000000000000000 PUSH1 0x0 MSTORE PUSH1 0x22 PUSH1 0x4 MSTORE PUSH1 0x24 PUSH1 0x0 REVERT JUMPDEST PUSH1 0x0 DUP2 PUSH1 0x1 SHR SWAP1 POP SWAP2 SWAP1 POP JUMP JUMPDEST PUSH3 0x5AD DUP2 PUSH3 0x4C3 JUMP JUMPDEST DUP2 EQ PUSH3 0x5B9 JUMPI PUSH1 0x0 DUP1 REVERT JUMPDEST POP JUMP JUMPDEST PUSH3 0x5C7 DUP2 PUSH3 0x4F7 JUMP JUMPDEST DUP2 EQ PUSH3 0x5D3 JUMPI PUSH1 0x0 DUP1 REVERT JUMPDEST POP JUMP JUMPDEST PUSH2 0x12E7 DUP1 PUSH3 0x5E6 PUSH1 0x0 CODECOPY PUSH1 0x0 RETURN INVALID PUSH1 0x80 PUSH1 0x40 MSTORE CALLVALUE DUP1 ISZERO PUSH2 0x10 JUMPI PUSH1 0x0 DUP1 REVERT JUMPDEST POP PUSH1 0x4 CALLDATASIZE LT PUSH2 0xA9 JUMPI PUSH1 0x0 CALLDATALOAD PUSH1 0xE0 SHR DUP1 PUSH4 0x44DF8E70 GT PUSH2 0x71 JUMPI DUP1 PUSH4 0x44DF8E70 EQ PUSH2 0x168 JUMPI DUP1 PUSH4 0x70A08231 EQ PUSH2 0x186 JUMPI DUP1 PUSH4 0x95D89B41 EQ PUSH2 0x1B6 JUMPI DUP1 PUSH4 0xA9059CBB EQ PUSH2 0x1D4 JUMPI DUP1 PUSH4 0xDD62ED3E EQ PUSH2 0x204 JUMPI DUP1 PUSH4 0xF851A440 EQ PUSH2 0x234 JUMPI PUSH2 0xA9 JUMP JUMPDEST DUP1 PUSH4 0x6FDDE03 EQ PUSH2 0xAE JUMPI DUP1 PUSH4 0x95EA7B3 EQ PUSH2 0xCC JUMPI DUP1 PUSH4 0x18160DDD EQ PUSH2 0xFC JUMPI DUP1 PUSH4 0x23B872DD EQ PUSH2 0x11A JUMPI DUP1 PUSH4 0x313CE567 EQ PUSH2 0x14A JUMPI JUMPDEST PUSH1 0x0 DUP1 REVERT JUMPDEST PUSH2 0xB6 PUSH2 0x252 JUMP JUMPDEST PUSH1 0x40 MLOAD PUSH2 0xC3 SWAP2 SWAP1 PUSH2 0xF9C JUMP JUMPDEST PUSH1 0x40 MLOAD DUP1 SWAP2 SUB SWAP1 RETURN JUMPDEST PUSH2 0xE6 PUSH1 0x4 DUP1 CALLDATASIZE SUB DUP2 ADD SWAP1 PUSH2 0xE1 SWAP2 SWAP1 PUSH2 0xC51 JUMP JUMPDEST PUSH2 0x2E0 JUMP JUMPDEST PUSH1 0x40 MLOAD PUSH2 0xF3 SWAP2 SWAP1 PUSH2 0xF81 JUMP JUMPDEST PUSH1 0x40 MLOAD DUP1 SWAP2 SUB SWAP1 RETURN JUMPDEST PUSH2 0x104 PUSH2 0x3D2 JUMP JUMPDEST PUSH1 0x40 MLOAD PUSH2 0x111 SWAP2 SWAP1 PUSH2 0x107E JUMP JUMPDEST PUSH1 0x40 MLOAD DUP1 SWAP2 SUB SWAP1 RETURN JUMPDEST PUSH2 0x134 PUSH1 0x4 DUP1 CALLDATASIZE SUB DUP2 ADD SWAP1 PUSH2 0x12F SWAP2 SWAP1 PUSH2 0xC02 JUMP JUMPDEST PUSH2 0x3D8 JUMP JUMPDEST PUSH1 0x40 MLOAD PUSH2 0x141 SWAP2 SWAP1 PUSH2 0xF81 JUMP JUMPDEST PUSH1 0x40 MLOAD DUP1 SWAP2 SUB SWAP1 RETURN JUMPDEST PUSH2 0x152 PUSH2 0x547 JUMP JUMPDEST PUSH1 0x40 MLOAD PUSH2 0x15F SWAP2 SWAP1 PUSH2 0x1099 JUMP JUMPDEST PUSH1 0x40 MLOAD DUP1 SWAP2 SUB SWAP1 RETURN JUMPDEST PUSH2 0x170 PUSH2 0x55A JUMP JUMPDEST PUSH1 0x40 MLOAD PUSH2 0x17D SWAP2 SWAP1 PUSH2 0xF81 JUMP JUMPDEST PUSH1 0x40 MLOAD DUP1 SWAP2 SUB SWAP1 RETURN JUMPDEST PUSH2 0x1A0 PUSH1 0x4 DUP1 CALLDATASIZE SUB DUP2 ADD SWAP1 PUSH2 0x19B SWAP2 SWAP1 PUSH2 0xB9D JUMP JUMPDEST PUSH2 0x605 JUMP JUMPDEST PUSH1 0x40 MLOAD PUSH2 0x1AD SWAP2 SWAP1 PUSH2 0x107E JUMP JUMPDEST PUSH1 0x40 MLOAD DUP1 SWAP2 SUB SWAP1 RETURN JUMPDEST PUSH2 0x1BE PUSH2 0x64E JUMP JUMPDEST PUSH1 0x40 MLOAD PUSH2 0x1CB SWAP2 SWAP1 PUSH2 0xF9C JUMP JUMPDEST PUSH1 0x40 MLOAD DUP1 SWAP2 SUB SWAP1 RETURN JUMPDEST PUSH2 0x1EE PUSH1 0x4 DUP1 CALLDATASIZE SUB DUP2 ADD SWAP1 PUSH2 0x1E9 SWAP2 SWAP1 PUSH2 0xC51 JUMP JUMPDEST PUSH2 0x6DC JUMP JUMPDEST PUSH1 0x40 MLOAD PUSH2 0x1FB SWAP2 SWAP1 PUSH2 0xF81 JUMP JUMPDEST PUSH1 0x40 MLOAD DUP1 SWAP2 SUB SWAP1 RETURN JUMPDEST PUSH2 0x21E PUSH1 0x4 DUP1 CALLDATASIZE SUB DUP2 ADD SWAP1 PUSH2 0x219 SWAP2 SWAP1 PUSH2 0xBC6 JUMP JUMPDEST PUSH2 0x6F3 JUMP JUMPDEST PUSH1 0x40 MLOAD PUSH2 0x22B SWAP2 SWAP1 PUSH2 0x107E JUMP JUMPDEST PUSH1 0x40 MLOAD DUP1 SWAP2 SUB SWAP1 RETURN JUMPDEST PUSH2 0x23C PUSH2 0x77A JUMP JUMPDEST PUSH1 0x40 MLOAD PUSH2 0x249 SWAP2 SWAP1 PUSH2 0xF66 JUMP JUMPDEST PUSH1 0x40 MLOAD DUP1 SWAP2 SUB SWAP1 RETURN JUMPDEST PUSH1 0x0 DUP1 SLOAD PUSH2 0x25F SWAP1 PUSH2 0x11E2 JUMP JUMPDEST DUP1 PUSH1 0x1F ADD PUSH1 0x20 DUP1 SWAP2 DIV MUL PUSH1 0x20 ADD PUSH1 0x40 MLOAD SWAP1 DUP2 ADD PUSH1 0x40 MSTORE DUP1 SWAP3 SWAP2 SWAP1 DUP2 DUP2 MSTORE PUSH1 0x20 ADD DUP3 DUP1 SLOAD PUSH2 0x28B SWAP1 PUSH2 0x11E2 JUMP JUMPDEST DUP1 ISZERO PUSH2 0x2D8 JUMPI DUP1 PUSH1 0x1F LT PUSH2 0x2AD JUMPI PUSH2 0x100 DUP1 DUP4 SLOAD DIV MUL DUP4 MSTORE SWAP2 PUSH1 0x20 ADD SWAP2 PUSH2 0x2D8 JUMP JUMPDEST DUP3 ADD SWAP2 SWAP1 PUSH1 0x0 MSTORE PUSH1 0x20 PUSH1 0x0 KECCAK256 SWAP1 JUMPDEST DUP2 SLOAD DUP2 MSTORE SWAP1 PUSH1 0x1 ADD SWAP1 PUSH1 0x20 ADD DUP1 DUP4 GT PUSH2 0x2BB JUMPI DUP3 SWAP1 SUB PUSH1 0x1F AND DUP3 ADD SWAP2 JUMPDEST POP POP POP POP POP DUP2 JUMP JUMPDEST PUSH1 0x0 DUP2 PUSH1 0x5 PUSH1 0x0 CALLER PUSH20 0xFFFFFFFFFFFFFFFFFFFFFFFFFFFFFFFFFFFFFFFF AND PUSH20 0xFFFFFFFFFFFFFFFFFFFFFFFFFFFFFFFFFFFFFFFF AND DUP2 MSTORE PUSH1 0x20 ADD SWAP1 DUP2 MSTORE PUSH1 0x20 ADD PUSH1 0x0 KECCAK256 PUSH1 0x0 DUP6 PUSH20 0xFFFFFFFFFFFFFFFFFFFFFFFFFFFFFFFFFFFFFFFF AND PUSH20 0xFFFFFFFFFFFFFFFFFFFFFFFFFFFFFFFFFFFFFFFF AND DUP2 MSTORE PUSH1 0x20 ADD SWAP1 DUP2 MSTORE PUSH1 0x20 ADD PUSH1 0x0 KECCAK256 DUP2 SWAP1 SSTORE POP DUP3 PUSH20 0xFFFFFFFFFFFFFFFFFFFFFFFFFFFFFFFFFFFFFFFF AND CALLER PUSH20 0xFFFFFFFFFFFFFFFFFFFFFFFFFFFFFFFFFFFFFFFF AND PUSH32 0x8C5BE1E5EBEC7D5BD14F71427D1E84F3DD0314C0F7B2291E5B200AC8C7C3B925 DUP5 PUSH1 0x40 MLOAD PUSH2 0x3C0 SWAP2 SWAP1 PUSH2 0x107E JUMP JUMPDEST PUSH1 0x40 MLOAD DUP1 SWAP2 SUB SWAP1 LOG3 PUSH1 0x1 SWAP1 POP SWAP3 SWAP2 POP POP JUMP JUMPDEST PUSH1 0x3 SLOAD DUP2 JUMP JUMPDEST PUSH1 0x0 DUP1 PUSH1 0x5 PUSH1 0x0 DUP7 PUSH20 0xFFFFFFFFFFFFFFFFFFFFFFFFFFFFFFFFFFFFFFFF AND PUSH20 0xFFFFFFFFFFFFFFFFFFFFFFFFFFFFFFFFFFFFFFFF AND DUP2 MSTORE PUSH1 0x20 ADD SWAP1 DUP2 MSTORE PUSH1 0x20 ADD PUSH1 0x0 KECCAK256 PUSH1 0x0 CALLER PUSH20 0xFFFFFFFFFFFFFFFFFFFFFFFFFFFFFFFFFFFFFFFF AND PUSH20 0xFFFFFFFFFFFFFFFFFFFFFFFFFFFFFFFFFFFFFFFF AND DUP2 MSTORE PUSH1 0x20 ADD SWAP1 DUP2 MSTORE PUSH1 0x20 ADD PUSH1 0x0 KECCAK256 SLOAD SWAP1 POP DUP3 DUP2 LT ISZERO PUSH2 0x49D JUMPI PUSH1 0x40 MLOAD PUSH32 0x8C379A000000000000000000000000000000000000000000000000000000000 DUP2 MSTORE PUSH1 0x4 ADD PUSH2 0x494 SWAP1 PUSH2 0xFFE JUMP JUMPDEST PUSH1 0x40 MLOAD DUP1 SWAP2 SUB SWAP1 REVERT JUMPDEST DUP3 PUSH1 0x5 PUSH1 0x0 DUP8 PUSH20 0xFFFFFFFFFFFFFFFFFFFFFFFFFFFFFFFFFFFFFFFF AND PUSH20 0xFFFFFFFFFFFFFFFFFFFFFFFFFFFFFFFFFFFFFFFF AND DUP2 MSTORE PUSH1 0x20 ADD SWAP1 DUP2 MSTORE PUSH1 0x20 ADD PUSH1 0x0 KECCAK256 PUSH1 0x0 CALLER PUSH20 0xFFFFFFFFFFFFFFFFFFFFFFFFFFFFFFFFFFFFFFFF AND PUSH20 0xFFFFFFFFFFFFFFFFFFFFFFFFFFFFFFFFFFFFFFFF AND DUP2 MSTORE PUSH1 0x20 ADD SWAP1 DUP2 MSTORE PUSH1 0x20 ADD PUSH1 0x0 KECCAK256 PUSH1 0x0 DUP3 DUP3 SLOAD PUSH2 0x529 SWAP2 SWAP1 PUSH2 0x1126 JUMP JUMPDEST SWAP3 POP POP DUP2 SWAP1 SSTORE POP PUSH2 0x53B DUP6 DUP6 DUP6 PUSH2 0x7A0 JUMP JUMPDEST PUSH1 0x1 SWAP2 POP POP SWAP4 SWAP3 POP POP POP JUMP JUMPDEST PUSH1 0x2 PUSH1 0x0 SWAP1 SLOAD SWAP1 PUSH2 0x100 EXP SWAP1 DIV PUSH1 0xFF AND DUP2 JUMP JUMPDEST PUSH1 0x0 PUSH1 0x6 PUSH1 0x0 SWAP1 SLOAD SWAP1 PUSH2 0x100 EXP SWAP1 DIV PUSH20 0xFFFFFFFFFFFFFFFFFFFFFFFFFFFFFFFFFFFFFFFF AND PUSH20 0xFFFFFFFFFFFFFFFFFFFFFFFFFFFFFFFFFFFFFFFF AND CALLER PUSH20 0xFFFFFFFFFFFFFFFFFFFFFFFFFFFFFFFFFFFFFFFF AND EQ PUSH2 0x5EC JUMPI PUSH1 0x40 MLOAD PUSH32 0x8C379A000000000000000000000000000000000000000000000000000000000 DUP2 MSTORE PUSH1 0x4 ADD PUSH2 0x5E3 SWAP1 PUSH2 0x103E JUMP JUMPDEST PUSH1 0x40 MLOAD DUP1 SWAP2 SUB SWAP1 REVERT JUMPDEST PUSH2 0x5FE CALLER PUSH2 0x5F9 CALLER PUSH2 0x605 JUMP JUMPDEST PUSH2 0x9A8 JUMP JUMPDEST PUSH1 0x1 SWAP1 POP SWAP1 JUMP JUMPDEST PUSH1 0x0 PUSH1 0x4 PUSH1 0x0 DUP4 PUSH20 0xFFFFFFFFFFFFFFFFFFFFFFFFFFFFFFFFFFFFFFFF AND PUSH20 0xFFFFFFFFFFFFFFFFFFFFFFFFFFFFFFFFFFFFFFFF AND DUP2 MSTORE PUSH1 0x20 ADD SWAP1 DUP2 MSTORE PUSH1 0x20 ADD PUSH1 0x0 KECCAK256 SLOAD SWAP1 POP SWAP2 SWAP1 POP JUMP JUMPDEST PUSH1 0x1 DUP1 SLOAD PUSH2 0x65B SWAP1 PUSH2 0x11E2 JUMP JUMPDEST DUP1 PUSH1 0x1F ADD PUSH1 0x20 DUP1 SWAP2 DIV MUL PUSH1 0x20 ADD PUSH1 0x40 MLOAD SWAP1 DUP2 ADD PUSH1 0x40 MSTORE DUP1 SWAP3 SWAP2 SWAP1 DUP2 DUP2 MSTORE PUSH1 0x20 ADD DUP3 DUP1 SLOAD PUSH2 0x687 SWAP1 PUSH2 0x11E2 JUMP JUMPDEST DUP1 ISZERO PUSH2 0x6D4 JUMPI DUP1 PUSH1 0x1F LT PUSH2 0x6A9 JUMPI PUSH2 0x100 DUP1 DUP4 SLOAD DIV MUL DUP4 MSTORE SWAP2 PUSH1 0x20 ADD SWAP2 PUSH2 0x6D4 JUMP JUMPDEST DUP3 ADD SWAP2 SWAP1 PUSH1 0x0 MSTORE PUSH1 0x20 PUSH1 0x0 KECCAK256 SWAP1 JUMPDEST DUP2 SLOAD DUP2 MSTORE SWAP1 PUSH1 0x1 ADD SWAP1 PUSH1 0x20 ADD DUP1 DUP4 GT PUSH2 0x6B7 JUMPI DUP3 SWAP1 SUB PUSH1 0x1F AND DUP3 ADD SWAP2 JUMPDEST POP POP POP POP POP DUP2 JUMP JUMPDEST PUSH1 0x0 PUSH2 0x6E9 CALLER DUP5 DUP5 PUSH2 0x7A0 JUMP JUMPDEST PUSH1 0x1 SWAP1 POP SWAP3 SWAP2 POP POP JUMP JUMPDEST PUSH1 0x0 PUSH1 0x5 PUSH1 0x0 DUP5 PUSH20 0xFFFFFFFFFFFFFFFFFFFFFFFFFFFFFFFFFFFFFFFF AND PUSH20 0xFFFFFFFFFFFFFFFFFFFFFFFFFFFFFFFFFFFFFFFF AND DUP2 MSTORE PUSH1 0x20 ADD SWAP1 DUP2 MSTORE PUSH1 0x20 ADD PUSH1 0x0 KECCAK256 PUSH1 0x0 DUP4 PUSH20 0xFFFFFFFFFFFFFFFFFFFFFFFFFFFFFFFFFFFFFFFF AND PUSH20 0xFFFFFFFFFFFFFFFFFFFFFFFFFFFFFFFFFFFFFFFF AND DUP2 MSTORE PUSH1 0x20 ADD SWAP1 DUP2 MSTORE PUSH1 0x20 ADD PUSH1 0x0 KECCAK256 SLOAD SWAP1 POP SWAP3 SWAP2 POP POP JUMP JUMPDEST PUSH1 0x6 PUSH1 0x0 SWAP1 SLOAD SWAP1 PUSH2 0x100 EXP SWAP1 DIV PUSH20 0xFFFFFFFFFFFFFFFFFFFFFFFFFFFFFFFFFFFFFFFF AND DUP2 JUMP JUMPDEST PUSH1 0x0 PUSH20 0xFFFFFFFFFFFFFFFFFFFFFFFFFFFFFFFFFFFFFFFF AND DUP3 PUSH20 0xFFFFFFFFFFFFFFFFFFFFFFFFFFFFFFFFFFFFFFFF AND EQ ISZERO PUSH2 0x810 JUMPI PUSH1 0x40 MLOAD PUSH32 0x8C379A000000000000000000000000000000000000000000000000000000000 DUP2 MSTORE PUSH1 0x4 ADD PUSH2 0x807 SWAP1 PUSH2 0xFBE JUMP JUMPDEST PUSH1 0x40 MLOAD DUP1 SWAP2 SUB SWAP1 REVERT JUMPDEST DUP1 PUSH1 0x4 PUSH1 0x0 DUP6 PUSH20 0xFFFFFFFFFFFFFFFFFFFFFFFFFFFFFFFFFFFFFFFF AND PUSH20 0xFFFFFFFFFFFFFFFFFFFFFFFFFFFFFFFFFFFFFFFF AND DUP2 MSTORE PUSH1 0x20 ADD SWAP1 DUP2 MSTORE PUSH1 0x20 ADD PUSH1 0x0 KECCAK256 SLOAD LT ISZERO PUSH2 0x892 JUMPI PUSH1 0x40 MLOAD PUSH32 0x8C379A000000000000000000000000000000000000000000000000000000000 DUP2 MSTORE PUSH1 0x4 ADD PUSH2 0x889 SWAP1 PUSH2 0xFDE JUMP JUMPDEST PUSH1 0x40 MLOAD DUP1 SWAP2 SUB SWAP1 REVERT JUMPDEST DUP1 PUSH1 0x4 PUSH1 0x0 DUP6 PUSH20 0xFFFFFFFFFFFFFFFFFFFFFFFFFFFFFFFFFFFFFFFF AND PUSH20 0xFFFFFFFFFFFFFFFFFFFFFFFFFFFFFFFFFFFFFFFF AND DUP2 MSTORE PUSH1 0x20 ADD SWAP1 DUP2 MSTORE PUSH1 0x20 ADD PUSH1 0x0 KECCAK256 PUSH1 0x0 DUP3 DUP3 SLOAD PUSH2 0x8E1 SWAP2 SWAP1 PUSH2 0x1126 JUMP JUMPDEST SWAP3 POP POP DUP2 SWAP1 SSTORE POP DUP1 PUSH1 0x4 PUSH1 0x0 DUP5 PUSH20 0xFFFFFFFFFFFFFFFFFFFFFFFFFFFFFFFFFFFFFFFF AND PUSH20 0xFFFFFFFFFFFFFFFFFFFFFFFFFFFFFFFFFFFFFFFF AND DUP2 MSTORE PUSH1 0x20 ADD SWAP1 DUP2 MSTORE PUSH1 0x20 ADD PUSH1 0x0 KECCAK256 PUSH1 0x0 DUP3 DUP3 SLOAD PUSH2 0x937 SWAP2 SWAP1 PUSH2 0x10D0 JUMP JUMPDEST SWAP3 POP POP DUP2 SWAP1 SSTORE POP DUP2 PUSH20 0xFFFFFFFFFFFFFFFFFFFFFFFFFFFFFFFFFFFFFFFF AND DUP4 PUSH20 0xFFFFFFFFFFFFFFFFFFFFFFFFFFFFFFFFFFFFFFFF AND PUSH32 0xDDF252AD1BE2C89B69C2B068FC378DAA952BA7F163C4A11628F55A4DF523B3EF DUP4 PUSH1 0x40 MLOAD PUSH2 0x99B SWAP2 SWAP1 PUSH2 0x107E JUMP JUMPDEST PUSH1 0x40 MLOAD DUP1 SWAP2 SUB SWAP1 LOG3 POP POP POP JUMP JUMPDEST PUSH1 0x0 PUSH20 0xFFFFFFFFFFFFFFFFFFFFFFFFFFFFFFFFFFFFFFFF AND DUP3 PUSH20 0xFFFFFFFFFFFFFFFFFFFFFFFFFFFFFFFFFFFFFFFF AND EQ ISZERO PUSH2 0xA18 JUMPI PUSH1 0x40 MLOAD PUSH32 0x8C379A000000000000000000000000000000000000000000000000000000000 DUP2 MSTORE PUSH1 0x4 ADD PUSH2 0xA0F SWAP1 PUSH2 0x105E JUMP JUMPDEST PUSH1 0x40 MLOAD DUP1 SWAP2 SUB SWAP1 REVERT JUMPDEST DUP1 PUSH1 0x4 PUSH1 0x0 DUP5 PUSH20 0xFFFFFFFFFFFFFFFFFFFFFFFFFFFFFFFFFFFFFFFF AND PUSH20 0xFFFFFFFFFFFFFFFFFFFFFFFFFFFFFFFFFFFFFFFF AND DUP2 MSTORE PUSH1 0x20 ADD SWAP1 DUP2 MSTORE PUSH1 0x20 ADD PUSH1 0x0 KECCAK256 SLOAD LT ISZERO PUSH2 0xA9A JUMPI PUSH1 0x40 MLOAD PUSH32 0x8C379A000000000000000000000000000000000000000000000000000000000 DUP2 MSTORE PUSH1 0x4 ADD PUSH2 0xA91 SWAP1 PUSH2 0x101E JUMP JUMPDEST PUSH1 0x40 MLOAD DUP1 SWAP2 SUB SWAP1 REVERT JUMPDEST DUP1 PUSH1 0x4 PUSH1 0x0 DUP5 PUSH20 0xFFFFFFFFFFFFFFFFFFFFFFFFFFFFFFFFFFFFFFFF AND PUSH20 0xFFFFFFFFFFFFFFFFFFFFFFFFFFFFFFFFFFFFFFFF AND DUP2 MSTORE PUSH1 0x20 ADD SWAP1 DUP2 MSTORE PUSH1 0x20 ADD PUSH1 0x0 KECCAK256 PUSH1 0x0 DUP3 DUP3 SLOAD PUSH2 0xAE9 SWAP2 SWAP1 PUSH2 0x1126 JUMP JUMPDEST SWAP3 POP POP DUP2 SWAP1 SSTORE POP DUP1 PUSH1 0x3 PUSH1 0x0 DUP3 DUP3 SLOAD PUSH2 0xB02 SWAP2 SWAP1 PUSH2 0x1126 JUMP JUMPDEST SWAP3 POP POP DUP2 SWAP1 SSTORE POP PUSH1 0x0 PUSH20 0xFFFFFFFFFFFFFFFFFFFFFFFFFFFFFFFFFFFFFFFF AND DUP3 PUSH20 0xFFFFFFFFFFFFFFFFFFFFFFFFFFFFFFFFFFFFFFFF AND PUSH32 0xDDF252AD1BE2C89B69C2B068FC378DAA952BA7F163C4A11628F55A4DF523B3EF DUP4 PUSH1 0x40 MLOAD PUSH2 0xB67 SWAP2 SWAP1 PUSH2 0x107E JUMP JUMPDEST PUSH1 0x40 MLOAD DUP1 SWAP2 SUB SWAP1 LOG3 POP POP JUMP JUMPDEST PUSH1 0x0 DUP2 CALLDATALOAD SWAP1 POP PUSH2 0xB82 DUP2 PUSH2 0x1283 JUMP JUMPDEST SWAP3 SWAP2 POP POP JUMP JUMPDEST PUSH1 0x0 DUP2 CALLDATALOAD SWAP1 POP PUSH2 0xB97 DUP2 PUSH2 0x129A JUMP JUMPDEST SWAP3 SWAP2 POP POP JUMP JUMPDEST PUSH1 0x0 PUSH1 0x20 DUP3 DUP5 SUB SLT ISZERO PUSH2 0xBAF JUMPI PUSH1 0x0 DUP1 REVERT JUMPDEST PUSH1 0x0 PUSH2 0xBBD DUP5 DUP3 DUP6 ADD PUSH2 0xB73 JUMP JUMPDEST SWAP2 POP POP SWAP3 SWAP2 POP POP JUMP JUMPDEST PUSH1 0x0 DUP1 PUSH1 0x40 DUP4 DUP6 SUB SLT ISZERO PUSH2 0xBD9 JUMPI PUSH1 0x0 DUP1 REVERT JUMPDEST PUSH1 0x0 PUSH2 0xBE7 DUP6 DUP3 DUP7 ADD PUSH2 0xB73 JUMP JUMPDEST SWAP3 POP POP PUSH1 0x20 PUSH2 0xBF8 DUP6 DUP3 DUP7 ADD PUSH2 0xB73 JUMP JUMPDEST SWAP2 POP POP SWAP3 POP SWAP3 SWAP1 POP JUMP JUMPDEST PUSH1 0x0 DUP1 PUSH1 0x0 PUSH1 0x60 DUP5 DUP7 SUB SLT ISZERO PUSH2 0xC17 JUMPI PUSH1 0x0 DUP1 REVERT JUMPDEST PUSH1 0x0 PUSH2 0xC25 DUP7 DUP3 DUP8 ADD PUSH2 0xB73 JUMP JUMPDEST SWAP4 POP POP PUSH1 0x20 PUSH2 0xC36 DUP7 DUP3 DUP8 ADD PUSH2 0xB73 JUMP JUMPDEST SWAP3 POP POP PUSH1 0x40 PUSH2 0xC47 DUP7 DUP3 DUP8 ADD PUSH2 0xB88 JUMP JUMPDEST SWAP2 POP POP SWAP3 POP SWAP3 POP SWAP3 JUMP JUMPDEST PUSH1 0x0 DUP1 PUSH1 0x40 DUP4 DUP6 SUB SLT ISZERO PUSH2 0xC64 JUMPI PUSH1 0x0 DUP1 REVERT JUMPDEST PUSH1 0x0 PUSH2 0xC72 DUP6 DUP3 DUP7 ADD PUSH2 0xB73 JUMP JUMPDEST SWAP3 POP POP PUSH1 0x20 PUSH2 0xC83 DUP6 DUP3 DUP7 ADD PUSH2 0xB88 JUMP JUMPDEST SWAP2 POP POP SWAP3 POP SWAP3 SWAP1 POP JUMP JUMPDEST PUSH2 0xC96 DUP2 PUSH2 0x115A JUMP JUMPDEST DUP3 MSTORE POP POP JUMP JUMPDEST PUSH2 0xCA5 DUP2 PUSH2 0x116C JUMP JUMPDEST DUP3 MSTORE POP POP JUMP JUMPDEST PUSH1 0x0 PUSH2 0xCB6 DUP3 PUSH2 0x10B4 JUMP JUMPDEST PUSH2 0xCC0 DUP2 DUP6 PUSH2 0x10BF JUMP JUMPDEST SWAP4 POP PUSH2 0xCD0 DUP2 DUP6 PUSH1 0x20 DUP7 ADD PUSH2 0x11AF JUMP JUMPDEST PUSH2 0xCD9 DUP2 PUSH2 0x1272 JUMP JUMPDEST DUP5 ADD SWAP2 POP POP SWAP3 SWAP2 POP POP JUMP JUMPDEST PUSH1 0x0 PUSH2 0xCF1 PUSH1 0x23 DUP4 PUSH2 0x10BF JUMP JUMPDEST SWAP2 POP PUSH32 0x45524332303A207472616E7366657220746F20746865207A65726F2061646472 PUSH1 0x0 DUP4 ADD MSTORE PUSH32 0x6573730000000000000000000000000000000000000000000000000000000000 PUSH1 0x20 DUP4 ADD MSTORE PUSH1 0x40 DUP3 ADD SWAP1 POP SWAP2 SWAP1 POP JUMP JUMPDEST PUSH1 0x0 PUSH2 0xD57 PUSH1 0x26 DUP4 PUSH2 0x10BF JUMP JUMPDEST SWAP2 POP PUSH32 0x45524332303A207472616E7366657220616D6F756E7420657863656564732062 PUSH1 0x0 DUP4 ADD MSTORE PUSH32 0x616C616E63650000000000000000000000000000000000000000000000000000 PUSH1 0x20 DUP4 ADD MSTORE PUSH1 0x40 DUP3 ADD SWAP1 POP SWAP2 SWAP1 POP JUMP JUMPDEST PUSH1 0x0 PUSH2 0xDBD PUSH1 0x2C DUP4 PUSH2 0x10BF JUMP JUMPDEST SWAP2 POP PUSH32 0x45524332303A207472616E7366657220616D6F756E7420657863656564732061 PUSH1 0x0 DUP4 ADD MSTORE PUSH32 0x6C6C6F776564416D6F756E740000000000000000000000000000000000000000 PUSH1 0x20 DUP4 ADD MSTORE PUSH1 0x40 DUP3 ADD SWAP1 POP SWAP2 SWAP1 POP JUMP JUMPDEST PUSH1 0x0 PUSH2 0xE23 PUSH1 0x29 DUP4 PUSH2 0x10BF JUMP JUMPDEST SWAP2 POP PUSH32 0x537572766976616C436F696E3A206275726E20616D6F756E7420657863656564 PUSH1 0x0 DUP4 ADD MSTORE PUSH32 0x732062616C616E63650000000000000000000000000000000000000000000000 PUSH1 0x20 DUP4 ADD MSTORE PUSH1 0x40 DUP3 ADD SWAP1 POP SWAP2 SWAP1 POP JUMP JUMPDEST PUSH1 0x0 PUSH2 0xE89 PUSH1 0x25 DUP4 PUSH2 0x10BF JUMP JUMPDEST SWAP2 POP PUSH32 0x537572766976616C436F696E3A2063616C6C6572206973206E6F742074686520 PUSH1 0x0 DUP4 ADD MSTORE PUSH32 0x61646D696E000000000000000000000000000000000000000000000000000000 PUSH1 0x20 DUP4 ADD MSTORE PUSH1 0x40 DUP3 ADD SWAP1 POP SWAP2 SWAP1 POP JUMP JUMPDEST PUSH1 0x0 PUSH2 0xEEF PUSH1 0x28 DUP4 PUSH2 0x10BF JUMP JUMPDEST SWAP2 POP PUSH32 0x537572766976616C436F696E3A206275726E2066726F6D20746865207A65726F PUSH1 0x0 DUP4 ADD MSTORE PUSH32 0x2061646472657373000000000000000000000000000000000000000000000000 PUSH1 0x20 DUP4 ADD MSTORE PUSH1 0x40 DUP3 ADD SWAP1 POP SWAP2 SWAP1 POP JUMP JUMPDEST PUSH2 0xF51 DUP2 PUSH2 0x1198 JUMP JUMPDEST DUP3 MSTORE POP POP JUMP JUMPDEST PUSH2 0xF60 DUP2 PUSH2 0x11A2 JUMP JUMPDEST DUP3 MSTORE POP POP JUMP JUMPDEST PUSH1 0x0 PUSH1 0x20 DUP3 ADD SWAP1 POP PUSH2 0xF7B PUSH1 0x0 DUP4 ADD DUP5 PUSH2 0xC8D JUMP JUMPDEST SWAP3 SWAP2 POP POP JUMP JUMPDEST PUSH1 0x0 PUSH1 0x20 DUP3 ADD SWAP1 POP PUSH2 0xF96 PUSH1 0x0 DUP4 ADD DUP5 PUSH2 0xC9C JUMP JUMPDEST SWAP3 SWAP2 POP POP JUMP JUMPDEST PUSH1 0x0 PUSH1 0x20 DUP3 ADD SWAP1 POP DUP2 DUP2 SUB PUSH1 0x0 DUP4 ADD MSTORE PUSH2 0xFB6 DUP2 DUP5 PUSH2 0xCAB JUMP JUMPDEST SWAP1 POP SWAP3 SWAP2 POP POP JUMP JUMPDEST PUSH1 0x0 PUSH1 0x20 DUP3 ADD SWAP1 POP DUP2 DUP2 SUB PUSH1 0x0 DUP4 ADD MSTORE PUSH2 0xFD7 DUP2 PUSH2 0xCE4 JUMP JUMPDEST SWAP1 POP SWAP2 SWAP1 POP JUMP JUMPDEST PUSH1 0x0 PUSH1 0x20 DUP3 ADD SWAP1 POP DUP2 DUP2 SUB PUSH1 0x0 DUP4 ADD MSTORE PUSH2 0xFF7 DUP2 PUSH2 0xD4A JUMP JUMPDEST SWAP1 POP SWAP2 SWAP1 POP JUMP JUMPDEST PUSH1 0x0 PUSH1 0x20 DUP3 ADD SWAP1 POP DUP2 DUP2 SUB PUSH1 0x0 DUP4 ADD MSTORE PUSH2 0x1017 DUP2 PUSH2 0xDB0 JUMP JUMPDEST SWAP1 POP SWAP2 SWAP1 POP JUMP JUMPDEST PUSH1 0x0 PUSH1 0x20 DUP3 ADD SWAP1 POP DUP2 DUP2 SUB PUSH1 0x0 DUP4 ADD MSTORE PUSH2 0x1037 DUP2 PUSH2 0xE16 JUMP JUMPDEST SWAP1 POP SWAP2 SWAP1 POP JUMP JUMPDEST PUSH1 0x0 PUSH1 0x20 DUP3 ADD SWAP1 POP DUP2 DUP2 SUB PUSH1 0x0 DUP4 ADD MSTORE PUSH2 0x1057 DUP2 PUSH2 0xE7C JUMP JUMPDEST SWAP1 POP SWAP2 SWAP1 POP JUMP JUMPDEST PUSH1 0x0 PUSH1 0x20 DUP3 ADD SWAP1 POP DUP2 DUP2 SUB PUSH1 0x0 DUP4 ADD MSTORE PUSH2 0x1077 DUP2 PUSH2 0xEE2 JUMP JUMPDEST SWAP1 POP SWAP2 SWAP1 POP JUMP JUMPDEST PUSH1 0x0 PUSH1 0x20 DUP3 ADD SWAP1 POP PUSH2 0x1093 PUSH1 0x0 DUP4 ADD DUP5 PUSH2 0xF48 JUMP JUMPDEST SWAP3 SWAP2 POP POP JUMP JUMPDEST PUSH1 0x0 PUSH1 0x20 DUP3 ADD SWAP1 POP PUSH2 0x10AE PUSH1 0x0 DUP4 ADD DUP5 PUSH2 0xF57 JUMP JUMPDEST SWAP3 SWAP2 POP POP JUMP JUMPDEST PUSH1 0x0 DUP2 MLOAD SWAP1 POP SWAP2 SWAP1 POP JUMP JUMPDEST PUSH1 0x0 DUP3 DUP3 MSTORE PUSH1 0x20 DUP3 ADD SWAP1 POP SWAP3 SWAP2 POP POP JUMP JUMPDEST PUSH1 0x0 PUSH2 0x10DB DUP3 PUSH2 0x1198 JUMP JUMPDEST SWAP2 POP PUSH2 0x10E6 DUP4 PUSH2 0x1198 JUMP JUMPDEST SWAP3 POP DUP3 PUSH32 0xFFFFFFFFFFFFFFFFFFFFFFFFFFFFFFFFFFFFFFFFFFFFFFFFFFFFFFFFFFFFFFFF SUB DUP3 GT ISZERO PUSH2 0x111B JUMPI PUSH2 0x111A PUSH2 0x1214 JUMP JUMPDEST JUMPDEST DUP3 DUP3 ADD SWAP1 POP SWAP3 SWAP2 POP POP JUMP JUMPDEST PUSH1 0x0 PUSH2 0x1131 DUP3 PUSH2 0x1198 JUMP JUMPDEST SWAP2 POP PUSH2 0x113C DUP4 PUSH2 0x1198 JUMP JUMPDEST SWAP3 POP DUP3 DUP3 LT ISZERO PUSH2 0x114F JUMPI PUSH2 0x114E PUSH2 0x1214 JUMP JUMPDEST JUMPDEST DUP3 DUP3 SUB SWAP1 POP SWAP3 SWAP2 POP POP JUMP JUMPDEST PUSH1 0x0 PUSH2 0x1165 DUP3 PUSH2 0x1178 JUMP JUMPDEST SWAP1 POP SWAP2 SWAP1 POP JUMP JUMPDEST PUSH1 0x0 DUP2 ISZERO ISZERO SWAP1 POP SWAP2 SWAP1 POP JUMP JUMPDEST PUSH1 0x0 PUSH20 0xFFFFFFFFFFFFFFFFFFFFFFFFFFFFFFFFFFFFFFFF DUP3 AND SWAP1 POP SWAP2 SWAP1 POP JUMP JUMPDEST PUSH1 0x0 DUP2 SWAP1 POP SWAP2 SWAP1 POP JUMP JUMPDEST PUSH1 0x0 PUSH1 0xFF DUP3 AND SWAP1 POP SWAP2 SWAP1 POP JUMP JUMPDEST PUSH1 0x0 JUMPDEST DUP4 DUP2 LT ISZERO PUSH2 0x11CD JUMPI DUP1 DUP3 ADD MLOAD DUP2 DUP5 ADD MSTORE PUSH1 0x20 DUP2 ADD SWAP1 POP PUSH2 0x11B2 JUMP JUMPDEST DUP4 DUP2 GT ISZERO PUSH2 0x11DC JUMPI PUSH1 0x0 DUP5 DUP5 ADD MSTORE JUMPDEST POP POP POP POP JUMP JUMPDEST PUSH1 0x0 PUSH1 0x2 DUP3 DIV SWAP1 POP PUSH1 0x1 DUP3 AND DUP1 PUSH2 0x11FA JUMPI PUSH1 0x7F DUP3 AND SWAP2 POP JUMPDEST PUSH1 0x20 DUP3 LT DUP2 EQ ISZERO PUSH2 0x120E JUMPI PUSH2 0x120D PUSH2 0x1243 JUMP JUMPDEST JUMPDEST POP SWAP2 SWAP1 POP JUMP JUMPDEST PUSH32 0x4E487B7100000000000000000000000000000000000000000000000000000000 PUSH1 0x0 MSTORE PUSH1 0x11 PUSH1 0x4 MSTORE PUSH1 0x24 PUSH1 0x0 REVERT JUMPDEST PUSH32 0x4E487B7100000000000000000000000000000000000000000000000000000000 PUSH1 0x0 MSTORE PUSH1 0x22 PUSH1 0x4 MSTORE PUSH1 0x24 PUSH1 0x0 REVERT JUMPDEST PUSH1 0x0 PUSH1 0x1F NOT PUSH1 0x1F DUP4 ADD AND SWAP1 POP SWAP2 SWAP1 POP JUMP JUMPDEST PUSH2 0x128C DUP2 PUSH2 0x115A JUMP JUMPDEST DUP2 EQ PUSH2 0x1297 JUMPI PUSH1 0x0 DUP1 REVERT JUMPDEST POP JUMP JUMPDEST PUSH2 0x12A3 DUP2 PUSH2 0x1198 JUMP JUMPDEST DUP2 EQ PUSH2 0x12AE JUMPI PUSH1 0x0 DUP1 REVERT JUMPDEST POP JUMP INVALID LOG2 PUSH5 0x6970667358 0x22 SLT KECCAK256 PUSH12 0xCB939F9C8E6B51AFF5AE40A0 PUSH8 0xC5C6D9D572137B5 SLT PUSH28 0x369110A50880784564736F6C63430008000033000000000000000000 "
				},
				"gasEstimates": {
					"creation": {
						"codeDepositCost": "967800",
						"executionCost": "infinite",
						"totalCost": "infinite"
					},
					"external": {
						"admin()": "1324",
						"allowance(address,address)": "infinite",
						"approve(address,uint256)": "infinite",
						"balanceOf(address)": "1563",
						"burn()": "infinite",
						"decimals()": "1260",
						"name()": "infinite",
						"symbol()": "infinite",
						"totalSupply()": "1174",
						"transfer(address,uint256)": "infinite",
						"transferFrom(address,address,uint256)": "infinite"
					},
					"internal": {
						"_burn(address,uint256)": "infinite"
					}
				},
				"methodIdentifiers": {
					"admin()": "f851a440",
					"allowance(address,address)": "dd62ed3e",
					"approve(address,uint256)": "095ea7b3",
					"balanceOf(address)": "70a08231",
					"burn()": "44df8e70",
					"decimals()": "313ce567",
					"name()": "06fdde03",
					"symbol()": "95d89b41",
					"totalSupply()": "18160ddd",
					"transfer(address,uint256)": "a9059cbb",
					"transferFrom(address,address,uint256)": "23b872dd"
				}
			},
			"storageLayout": {
				"storage": [
					{
						"astId": 4,
						"contract": "contracts/Upgrade Attempt/SurvivalCoin.sol:SurvivalCoin",
						"label": "name",
						"offset": 0,
						"slot": "0",
						"type": "t_string_storage"
					},
					{
						"astId": 6,
						"contract": "contracts/Upgrade Attempt/SurvivalCoin.sol:SurvivalCoin",
						"label": "symbol",
						"offset": 0,
						"slot": "1",
						"type": "t_string_storage"
					},
					{
						"astId": 8,
						"contract": "contracts/Upgrade Attempt/SurvivalCoin.sol:SurvivalCoin",
						"label": "decimals",
						"offset": 0,
						"slot": "2",
						"type": "t_uint8"
					},
					{
						"astId": 10,
						"contract": "contracts/Upgrade Attempt/SurvivalCoin.sol:SurvivalCoin",
						"label": "totalSupply",
						"offset": 0,
						"slot": "3",
						"type": "t_uint256"
					},
					{
						"astId": 14,
						"contract": "contracts/Upgrade Attempt/SurvivalCoin.sol:SurvivalCoin",
						"label": "_balances",
						"offset": 0,
						"slot": "4",
						"type": "t_mapping(t_address,t_uint256)"
					},
					{
						"astId": 20,
						"contract": "contracts/Upgrade Attempt/SurvivalCoin.sol:SurvivalCoin",
						"label": "_allowances",
						"offset": 0,
						"slot": "5",
						"type": "t_mapping(t_address,t_mapping(t_address,t_uint256))"
					},
					{
						"astId": 281,
						"contract": "contracts/Upgrade Attempt/SurvivalCoin.sol:SurvivalCoin",
						"label": "admin",
						"offset": 0,
						"slot": "6",
						"type": "t_address"
					}
				],
				"types": {
					"t_address": {
						"encoding": "inplace",
						"label": "address",
						"numberOfBytes": "20"
					},
					"t_mapping(t_address,t_mapping(t_address,t_uint256))": {
						"encoding": "mapping",
						"key": "t_address",
						"label": "mapping(address => mapping(address => uint256))",
						"numberOfBytes": "32",
						"value": "t_mapping(t_address,t_uint256)"
					},
					"t_mapping(t_address,t_uint256)": {
						"encoding": "mapping",
						"key": "t_address",
						"label": "mapping(address => uint256)",
						"numberOfBytes": "32",
						"value": "t_uint256"
					},
					"t_string_storage": {
						"encoding": "bytes",
						"label": "string",
						"numberOfBytes": "32"
					},
					"t_uint256": {
						"encoding": "inplace",
						"label": "uint256",
						"numberOfBytes": "32"
					},
					"t_uint8": {
						"encoding": "inplace",
						"label": "uint8",
						"numberOfBytes": "1"
					}
				}
			},
			"userdoc": {
				"kind": "user",
				"methods": {},
				"version": 1
			}
		}
	}
}